{
	"contracts/1_Storage.sol": {
		"VendorRegistration": {
			"abi": [
				{
					"anonymous": false,
					"inputs": [
						{
							"indexed": true,
							"internalType": "address",
							"name": "vendorAddress",
							"type": "address"
						},
						{
							"indexed": false,
							"internalType": "string",
							"name": "name",
							"type": "string"
						}
					],
					"name": "VendorRegistered",
					"type": "event"
				},
				{
					"anonymous": false,
					"inputs": [
						{
							"indexed": true,
							"internalType": "address",
							"name": "vendorAddress",
							"type": "address"
						},
						{
							"indexed": false,
							"internalType": "bool",
							"name": "isEligible",
							"type": "bool"
						}
					],
					"name": "VendorStatusChanged",
					"type": "event"
				},
				{
					"inputs": [
						{
							"internalType": "address",
							"name": "_vendorAddress",
							"type": "address"
						},
						{
							"internalType": "bool",
							"name": "_isEligible",
							"type": "bool"
						}
					],
					"name": "changeVendorEligibility",
					"outputs": [],
					"stateMutability": "nonpayable",
					"type": "function"
				},
				{
					"inputs": [
						{
							"internalType": "address",
							"name": "_vendorAddress",
							"type": "address"
						}
					],
					"name": "getVendorDetails",
					"outputs": [
						{
							"components": [
								{
									"internalType": "string",
									"name": "name",
									"type": "string"
								},
								{
									"internalType": "address",
									"name": "vendorAddress",
									"type": "address"
								},
								{
									"internalType": "bool",
									"name": "isRegistered",
									"type": "bool"
								},
								{
									"internalType": "bool",
									"name": "isEligible",
									"type": "bool"
								}
							],
							"internalType": "struct VendorRegistration.Vendor",
							"name": "",
							"type": "tuple"
						}
					],
					"stateMutability": "view",
					"type": "function"
				},
				{
					"inputs": [
						{
							"internalType": "address",
							"name": "_vendorAddress",
							"type": "address"
						}
					],
					"name": "isVendorEligible",
					"outputs": [
						{
							"internalType": "bool",
							"name": "",
							"type": "bool"
						}
					],
					"stateMutability": "view",
					"type": "function"
				},
				{
					"inputs": [
						{
							"internalType": "address",
							"name": "_vendorAddress",
							"type": "address"
						}
					],
					"name": "isVendorRegistered",
					"outputs": [
						{
							"internalType": "bool",
							"name": "",
							"type": "bool"
						}
					],
					"stateMutability": "view",
					"type": "function"
				},
				{
					"inputs": [
						{
							"internalType": "string",
							"name": "_name",
							"type": "string"
						}
					],
					"name": "registerVendor",
					"outputs": [],
					"stateMutability": "nonpayable",
					"type": "function"
				},
				{
					"inputs": [
						{
							"internalType": "address",
							"name": "",
							"type": "address"
						}
					],
					"name": "vendors",
					"outputs": [
						{
							"internalType": "string",
							"name": "name",
							"type": "string"
						},
						{
							"internalType": "address",
							"name": "vendorAddress",
							"type": "address"
						},
						{
							"internalType": "bool",
							"name": "isRegistered",
							"type": "bool"
						},
						{
							"internalType": "bool",
							"name": "isEligible",
							"type": "bool"
						}
					],
					"stateMutability": "view",
					"type": "function"
				}
			],
			"devdoc": {
				"kind": "dev",
				"methods": {},
				"version": 1
			},
			"evm": {
				"assembly": "    /* \"contracts/1_Storage.sol\":57:1974  contract VendorRegistration {... */\n  mstore(0x40, 0x80)\n  callvalue\n  dup1\n  iszero\n  tag_1\n  jumpi\n  0x00\n  dup1\n  revert\ntag_1:\n  pop\n  dataSize(sub_0)\n  dup1\n  dataOffset(sub_0)\n  0x00\n  codecopy\n  0x00\n  return\nstop\n\nsub_0: assembly {\n        /* \"contracts/1_Storage.sol\":57:1974  contract VendorRegistration {... */\n      mstore(0x40, 0x80)\n      callvalue\n      dup1\n      iszero\n      tag_1\n      jumpi\n      0x00\n      dup1\n      revert\n    tag_1:\n      pop\n      jumpi(tag_2, lt(calldatasize, 0x04))\n      shr(0xe0, calldataload(0x00))\n      dup1\n      0x1fb1ae5a\n      eq\n      tag_3\n      jumpi\n      dup1\n      0x27e30c36\n      eq\n      tag_4\n      jumpi\n      dup1\n      0x29116087\n      eq\n      tag_5\n      jumpi\n      dup1\n      0x317ac79b\n      eq\n      tag_6\n      jumpi\n      dup1\n      0x506ce066\n      eq\n      tag_7\n      jumpi\n      dup1\n      0xe538109a\n      eq\n      tag_8\n      jumpi\n    tag_2:\n      0x00\n      dup1\n      revert\n        /* \"contracts/1_Storage.sol\":950:1325  function changeVendorEligibility(address _vendorAddress, bool _isEligible) public {... */\n    tag_3:\n      tag_9\n      0x04\n      dup1\n      calldatasize\n      sub\n      dup2\n      add\n      swap1\n      tag_10\n      swap2\n      swap1\n      tag_11\n      jump\t// in\n    tag_10:\n      tag_12\n      jump\t// in\n    tag_9:\n      stop\n        /* \"contracts/1_Storage.sol\":223:264  mapping(address => Vendor) public vendors */\n    tag_4:\n      tag_13\n      0x04\n      dup1\n      calldatasize\n      sub\n      dup2\n      add\n      swap1\n      tag_14\n      swap2\n      swap1\n      tag_15\n      jump\t// in\n    tag_14:\n      tag_16\n      jump\t// in\n    tag_13:\n      mload(0x40)\n      tag_17\n      swap5\n      swap4\n      swap3\n      swap2\n      swap1\n      tag_18\n      jump\t// in\n    tag_17:\n      mload(0x40)\n      dup1\n      swap2\n      sub\n      swap1\n      return\n        /* \"contracts/1_Storage.sol\":1382:1521  function isVendorRegistered(address _vendorAddress) public view returns (bool) {... */\n    tag_5:\n      tag_19\n      0x04\n      dup1\n      calldatasize\n      sub\n      dup2\n      add\n      swap1\n      tag_20\n      swap2\n      swap1\n      tag_15\n      jump\t// in\n    tag_20:\n      tag_21\n      jump\t// in\n    tag_19:\n      mload(0x40)\n      tag_22\n      swap2\n      swap1\n      tag_23\n      jump\t// in\n    tag_22:\n      mload(0x40)\n      dup1\n      swap2\n      sub\n      swap1\n      return\n        /* \"contracts/1_Storage.sol\":1580:1715  function isVendorEligible(address _vendorAddress) public view returns (bool) {... */\n    tag_6:\n      tag_24\n      0x04\n      dup1\n      calldatasize\n      sub\n      dup2\n      add\n      swap1\n      tag_25\n      swap2\n      swap1\n      tag_15\n      jump\t// in\n    tag_25:\n      tag_26\n      jump\t// in\n    tag_24:\n      mload(0x40)\n      tag_27\n      swap2\n      swap1\n      tag_23\n      jump\t// in\n    tag_27:\n      mload(0x40)\n      dup1\n      swap2\n      sub\n      swap1\n      return\n        /* \"contracts/1_Storage.sol\":1759:1972  function getVendorDetails(address _vendorAddress) public view returns (Vendor memory) {... */\n    tag_7:\n      tag_28\n      0x04\n      dup1\n      calldatasize\n      sub\n      dup2\n      add\n      swap1\n      tag_29\n      swap2\n      swap1\n      tag_15\n      jump\t// in\n    tag_29:\n      tag_30\n      jump\t// in\n    tag_28:\n      mload(0x40)\n      tag_31\n      swap2\n      swap1\n      tag_32\n      jump\t// in\n    tag_31:\n      mload(0x40)\n      dup1\n      swap2\n      sub\n      swap1\n      return\n        /* \"contracts/1_Storage.sol\":460:883  function registerVendor(string memory _name) public {... */\n    tag_8:\n      tag_33\n      0x04\n      dup1\n      calldatasize\n      sub\n      dup2\n      add\n      swap1\n      tag_34\n      swap2\n      swap1\n      tag_35\n      jump\t// in\n    tag_34:\n      tag_36\n      jump\t// in\n    tag_33:\n      stop\n        /* \"contracts/1_Storage.sol\":950:1325  function changeVendorEligibility(address _vendorAddress, bool _isEligible) public {... */\n    tag_12:\n        /* \"contracts/1_Storage.sol\":1133:1140  vendors */\n      0x00\n        /* \"contracts/1_Storage.sol\":1133:1156  vendors[_vendorAddress] */\n      dup1\n        /* \"contracts/1_Storage.sol\":1141:1155  _vendorAddress */\n      dup4\n        /* \"contracts/1_Storage.sol\":1133:1156  vendors[_vendorAddress] */\n      0xffffffffffffffffffffffffffffffffffffffff\n      and\n      0xffffffffffffffffffffffffffffffffffffffff\n      and\n      dup2\n      mstore\n      0x20\n      add\n      swap1\n      dup2\n      mstore\n      0x20\n      add\n      0x00\n      keccak256\n        /* \"contracts/1_Storage.sol\":1133:1169  vendors[_vendorAddress].isRegistered */\n      0x01\n      add\n      0x14\n      swap1\n      sload\n      swap1\n      0x0100\n      exp\n      swap1\n      div\n      0xff\n      and\n        /* \"contracts/1_Storage.sol\":1125:1195  require(vendors[_vendorAddress].isRegistered, \"Vendor not registered\") */\n      tag_38\n      jumpi\n      mload(0x40)\n      0x08c379a000000000000000000000000000000000000000000000000000000000\n      dup2\n      mstore\n      0x04\n      add\n      tag_39\n      swap1\n      tag_40\n      jump\t// in\n    tag_39:\n      mload(0x40)\n      dup1\n      swap2\n      sub\n      swap1\n      revert\n    tag_38:\n        /* \"contracts/1_Storage.sol\":1243:1254  _isEligible */\n      dup1\n        /* \"contracts/1_Storage.sol\":1206:1213  vendors */\n      0x00\n        /* \"contracts/1_Storage.sol\":1206:1229  vendors[_vendorAddress] */\n      dup1\n        /* \"contracts/1_Storage.sol\":1214:1228  _vendorAddress */\n      dup5\n        /* \"contracts/1_Storage.sol\":1206:1229  vendors[_vendorAddress] */\n      0xffffffffffffffffffffffffffffffffffffffff\n      and\n      0xffffffffffffffffffffffffffffffffffffffff\n      and\n      dup2\n      mstore\n      0x20\n      add\n      swap1\n      dup2\n      mstore\n      0x20\n      add\n      0x00\n      keccak256\n        /* \"contracts/1_Storage.sol\":1206:1240  vendors[_vendorAddress].isEligible */\n      0x01\n      add\n      0x15\n        /* \"contracts/1_Storage.sol\":1206:1254  vendors[_vendorAddress].isEligible = _isEligible */\n      0x0100\n      exp\n      dup2\n      sload\n      dup2\n      0xff\n      mul\n      not\n      and\n      swap1\n      dup4\n      iszero\n      iszero\n      mul\n      or\n      swap1\n      sstore\n      pop\n        /* \"contracts/1_Storage.sol\":1290:1304  _vendorAddress */\n      dup2\n        /* \"contracts/1_Storage.sol\":1270:1318  VendorStatusChanged(_vendorAddress, _isEligible) */\n      0xffffffffffffffffffffffffffffffffffffffff\n      and\n      0xb69ae854f1647f491c551e39d9a4a2b0608f6d7bc4fa128ad73c80c0148bf9b4\n        /* \"contracts/1_Storage.sol\":1306:1317  _isEligible */\n      dup3\n        /* \"contracts/1_Storage.sol\":1270:1318  VendorStatusChanged(_vendorAddress, _isEligible) */\n      mload(0x40)\n      tag_41\n      swap2\n      swap1\n      tag_23\n      jump\t// in\n    tag_41:\n      mload(0x40)\n      dup1\n      swap2\n      sub\n      swap1\n      log2\n        /* \"contracts/1_Storage.sol\":950:1325  function changeVendorEligibility(address _vendorAddress, bool _isEligible) public {... */\n      pop\n      pop\n      jump\t// out\n        /* \"contracts/1_Storage.sol\":223:264  mapping(address => Vendor) public vendors */\n    tag_16:\n      mstore(0x20, 0x00)\n      dup1\n      0x00\n      mstore\n      keccak256(0x00, 0x40)\n      0x00\n      swap2\n      pop\n      swap1\n      pop\n      dup1\n      0x00\n      add\n      dup1\n      sload\n      tag_42\n      swap1\n      tag_43\n      jump\t// in\n    tag_42:\n      dup1\n      0x1f\n      add\n      0x20\n      dup1\n      swap2\n      div\n      mul\n      0x20\n      add\n      mload(0x40)\n      swap1\n      dup2\n      add\n      0x40\n      mstore\n      dup1\n      swap3\n      swap2\n      swap1\n      dup2\n      dup2\n      mstore\n      0x20\n      add\n      dup3\n      dup1\n      sload\n      tag_44\n      swap1\n      tag_43\n      jump\t// in\n    tag_44:\n      dup1\n      iszero\n      tag_45\n      jumpi\n      dup1\n      0x1f\n      lt\n      tag_46\n      jumpi\n      0x0100\n      dup1\n      dup4\n      sload\n      div\n      mul\n      dup4\n      mstore\n      swap2\n      0x20\n      add\n      swap2\n      jump(tag_45)\n    tag_46:\n      dup3\n      add\n      swap2\n      swap1\n      0x00\n      mstore\n      keccak256(0x00, 0x20)\n      swap1\n    tag_47:\n      dup2\n      sload\n      dup2\n      mstore\n      swap1\n      0x01\n      add\n      swap1\n      0x20\n      add\n      dup1\n      dup4\n      gt\n      tag_47\n      jumpi\n      dup3\n      swap1\n      sub\n      0x1f\n      and\n      dup3\n      add\n      swap2\n    tag_45:\n      pop\n      pop\n      pop\n      pop\n      pop\n      swap1\n      dup1\n      0x01\n      add\n      0x00\n      swap1\n      sload\n      swap1\n      0x0100\n      exp\n      swap1\n      div\n      0xffffffffffffffffffffffffffffffffffffffff\n      and\n      swap1\n      dup1\n      0x01\n      add\n      0x14\n      swap1\n      sload\n      swap1\n      0x0100\n      exp\n      swap1\n      div\n      0xff\n      and\n      swap1\n      dup1\n      0x01\n      add\n      0x15\n      swap1\n      sload\n      swap1\n      0x0100\n      exp\n      swap1\n      div\n      0xff\n      and\n      swap1\n      pop\n      dup5\n      jump\t// out\n        /* \"contracts/1_Storage.sol\":1382:1521  function isVendorRegistered(address _vendorAddress) public view returns (bool) {... */\n    tag_21:\n        /* \"contracts/1_Storage.sol\":1455:1459  bool */\n      0x00\n        /* \"contracts/1_Storage.sol\":1478:1485  vendors */\n      dup1\n        /* \"contracts/1_Storage.sol\":1478:1501  vendors[_vendorAddress] */\n      0x00\n        /* \"contracts/1_Storage.sol\":1486:1500  _vendorAddress */\n      dup4\n        /* \"contracts/1_Storage.sol\":1478:1501  vendors[_vendorAddress] */\n      0xffffffffffffffffffffffffffffffffffffffff\n      and\n      0xffffffffffffffffffffffffffffffffffffffff\n      and\n      dup2\n      mstore\n      0x20\n      add\n      swap1\n      dup2\n      mstore\n      0x20\n      add\n      0x00\n      keccak256\n        /* \"contracts/1_Storage.sol\":1478:1514  vendors[_vendorAddress].isRegistered */\n      0x01\n      add\n      0x14\n      swap1\n      sload\n      swap1\n      0x0100\n      exp\n      swap1\n      div\n      0xff\n      and\n        /* \"contracts/1_Storage.sol\":1471:1514  return vendors[_vendorAddress].isRegistered */\n      swap1\n      pop\n        /* \"contracts/1_Storage.sol\":1382:1521  function isVendorRegistered(address _vendorAddress) public view returns (bool) {... */\n      swap2\n      swap1\n      pop\n      jump\t// out\n        /* \"contracts/1_Storage.sol\":1580:1715  function isVendorEligible(address _vendorAddress) public view returns (bool) {... */\n    tag_26:\n        /* \"contracts/1_Storage.sol\":1651:1655  bool */\n      0x00\n        /* \"contracts/1_Storage.sol\":1674:1681  vendors */\n      dup1\n        /* \"contracts/1_Storage.sol\":1674:1697  vendors[_vendorAddress] */\n      0x00\n        /* \"contracts/1_Storage.sol\":1682:1696  _vendorAddress */\n      dup4\n        /* \"contracts/1_Storage.sol\":1674:1697  vendors[_vendorAddress] */\n      0xffffffffffffffffffffffffffffffffffffffff\n      and\n      0xffffffffffffffffffffffffffffffffffffffff\n      and\n      dup2\n      mstore\n      0x20\n      add\n      swap1\n      dup2\n      mstore\n      0x20\n      add\n      0x00\n      keccak256\n        /* \"contracts/1_Storage.sol\":1674:1708  vendors[_vendorAddress].isEligible */\n      0x01\n      add\n      0x15\n      swap1\n      sload\n      swap1\n      0x0100\n      exp\n      swap1\n      div\n      0xff\n      and\n        /* \"contracts/1_Storage.sol\":1667:1708  return vendors[_vendorAddress].isEligible */\n      swap1\n      pop\n        /* \"contracts/1_Storage.sol\":1580:1715  function isVendorEligible(address _vendorAddress) public view returns (bool) {... */\n      swap2\n      swap1\n      pop\n      jump\t// out\n        /* \"contracts/1_Storage.sol\":1759:1972  function getVendorDetails(address _vendorAddress) public view returns (Vendor memory) {... */\n    tag_30:\n        /* \"contracts/1_Storage.sol\":1830:1843  Vendor memory */\n      tag_50\n      tag_51\n      jump\t// in\n    tag_50:\n        /* \"contracts/1_Storage.sol\":1863:1870  vendors */\n      0x00\n        /* \"contracts/1_Storage.sol\":1863:1886  vendors[_vendorAddress] */\n      dup1\n        /* \"contracts/1_Storage.sol\":1871:1885  _vendorAddress */\n      dup4\n        /* \"contracts/1_Storage.sol\":1863:1886  vendors[_vendorAddress] */\n      0xffffffffffffffffffffffffffffffffffffffff\n      and\n      0xffffffffffffffffffffffffffffffffffffffff\n      and\n      dup2\n      mstore\n      0x20\n      add\n      swap1\n      dup2\n      mstore\n      0x20\n      add\n      0x00\n      keccak256\n        /* \"contracts/1_Storage.sol\":1863:1899  vendors[_vendorAddress].isRegistered */\n      0x01\n      add\n      0x14\n      swap1\n      sload\n      swap1\n      0x0100\n      exp\n      swap1\n      div\n      0xff\n      and\n        /* \"contracts/1_Storage.sol\":1855:1925  require(vendors[_vendorAddress].isRegistered, \"Vendor not registered\") */\n      tag_53\n      jumpi\n      mload(0x40)\n      0x08c379a000000000000000000000000000000000000000000000000000000000\n      dup2\n      mstore\n      0x04\n      add\n      tag_54\n      swap1\n      tag_40\n      jump\t// in\n    tag_54:\n      mload(0x40)\n      dup1\n      swap2\n      sub\n      swap1\n      revert\n    tag_53:\n        /* \"contracts/1_Storage.sol\":1942:1949  vendors */\n      0x00\n        /* \"contracts/1_Storage.sol\":1942:1965  vendors[_vendorAddress] */\n      dup1\n        /* \"contracts/1_Storage.sol\":1950:1964  _vendorAddress */\n      dup4\n        /* \"contracts/1_Storage.sol\":1942:1965  vendors[_vendorAddress] */\n      0xffffffffffffffffffffffffffffffffffffffff\n      and\n      0xffffffffffffffffffffffffffffffffffffffff\n      and\n      dup2\n      mstore\n      0x20\n      add\n      swap1\n      dup2\n      mstore\n      0x20\n      add\n      0x00\n      keccak256\n        /* \"contracts/1_Storage.sol\":1935:1965  return vendors[_vendorAddress] */\n      mload(0x40)\n      dup1\n      0x80\n      add\n      0x40\n      mstore\n      swap1\n      dup2\n      0x00\n      dup3\n      add\n      dup1\n      sload\n      tag_55\n      swap1\n      tag_43\n      jump\t// in\n    tag_55:\n      dup1\n      0x1f\n      add\n      0x20\n      dup1\n      swap2\n      div\n      mul\n      0x20\n      add\n      mload(0x40)\n      swap1\n      dup2\n      add\n      0x40\n      mstore\n      dup1\n      swap3\n      swap2\n      swap1\n      dup2\n      dup2\n      mstore\n      0x20\n      add\n      dup3\n      dup1\n      sload\n      tag_56\n      swap1\n      tag_43\n      jump\t// in\n    tag_56:\n      dup1\n      iszero\n      tag_57\n      jumpi\n      dup1\n      0x1f\n      lt\n      tag_58\n      jumpi\n      0x0100\n      dup1\n      dup4\n      sload\n      div\n      mul\n      dup4\n      mstore\n      swap2\n      0x20\n      add\n      swap2\n      jump(tag_57)\n    tag_58:\n      dup3\n      add\n      swap2\n      swap1\n      0x00\n      mstore\n      keccak256(0x00, 0x20)\n      swap1\n    tag_59:\n      dup2\n      sload\n      dup2\n      mstore\n      swap1\n      0x01\n      add\n      swap1\n      0x20\n      add\n      dup1\n      dup4\n      gt\n      tag_59\n      jumpi\n      dup3\n      swap1\n      sub\n      0x1f\n      and\n      dup3\n      add\n      swap2\n    tag_57:\n      pop\n      pop\n      pop\n      pop\n      pop\n      dup2\n      mstore\n      0x20\n      add\n      0x01\n      dup3\n      add\n      0x00\n      swap1\n      sload\n      swap1\n      0x0100\n      exp\n      swap1\n      div\n      0xffffffffffffffffffffffffffffffffffffffff\n      and\n      0xffffffffffffffffffffffffffffffffffffffff\n      and\n      0xffffffffffffffffffffffffffffffffffffffff\n      and\n      dup2\n      mstore\n      0x20\n      add\n      0x01\n      dup3\n      add\n      0x14\n      swap1\n      sload\n      swap1\n      0x0100\n      exp\n      swap1\n      div\n      0xff\n      and\n      iszero\n      iszero\n      iszero\n      iszero\n      dup2\n      mstore\n      0x20\n      add\n      0x01\n      dup3\n      add\n      0x15\n      swap1\n      sload\n      swap1\n      0x0100\n      exp\n      swap1\n      div\n      0xff\n      and\n      iszero\n      iszero\n      iszero\n      iszero\n      dup2\n      mstore\n      pop\n      pop\n      swap1\n      pop\n        /* \"contracts/1_Storage.sol\":1759:1972  function getVendorDetails(address _vendorAddress) public view returns (Vendor memory) {... */\n      swap2\n      swap1\n      pop\n      jump\t// out\n        /* \"contracts/1_Storage.sol\":460:883  function registerVendor(string memory _name) public {... */\n    tag_36:\n        /* \"contracts/1_Storage.sol\":575:576  0 */\n      0x00\n        /* \"contracts/1_Storage.sol\":530:577  vendors[msg.sender].vendorAddress == address(0) */\n      0xffffffffffffffffffffffffffffffffffffffff\n      and\n        /* \"contracts/1_Storage.sol\":530:537  vendors */\n      0x00\n        /* \"contracts/1_Storage.sol\":530:549  vendors[msg.sender] */\n      dup1\n        /* \"contracts/1_Storage.sol\":538:548  msg.sender */\n      caller\n        /* \"contracts/1_Storage.sol\":530:549  vendors[msg.sender] */\n      0xffffffffffffffffffffffffffffffffffffffff\n      and\n      0xffffffffffffffffffffffffffffffffffffffff\n      and\n      dup2\n      mstore\n      0x20\n      add\n      swap1\n      dup2\n      mstore\n      0x20\n      add\n      0x00\n      keccak256\n        /* \"contracts/1_Storage.sol\":530:563  vendors[msg.sender].vendorAddress */\n      0x01\n      add\n      0x00\n      swap1\n      sload\n      swap1\n      0x0100\n      exp\n      swap1\n      div\n      0xffffffffffffffffffffffffffffffffffffffff\n      and\n        /* \"contracts/1_Storage.sol\":530:577  vendors[msg.sender].vendorAddress == address(0) */\n      0xffffffffffffffffffffffffffffffffffffffff\n      and\n      eq\n        /* \"contracts/1_Storage.sol\":522:607  require(vendors[msg.sender].vendorAddress == address(0), \"Vendor already registered\") */\n      tag_61\n      jumpi\n      mload(0x40)\n      0x08c379a000000000000000000000000000000000000000000000000000000000\n      dup2\n      mstore\n      0x04\n      add\n      tag_62\n      swap1\n      tag_63\n      jump\t// in\n    tag_62:\n      mload(0x40)\n      dup1\n      swap2\n      sub\n      swap1\n      revert\n    tag_61:\n        /* \"contracts/1_Storage.sol\":648:825  Vendor({... */\n      mload(0x40)\n      dup1\n      0x80\n      add\n      0x40\n      mstore\n      dup1\n        /* \"contracts/1_Storage.sol\":675:680  _name */\n      dup3\n        /* \"contracts/1_Storage.sol\":648:825  Vendor({... */\n      dup2\n      mstore\n      0x20\n      add\n        /* \"contracts/1_Storage.sol\":709:719  msg.sender */\n      caller\n        /* \"contracts/1_Storage.sol\":648:825  Vendor({... */\n      0xffffffffffffffffffffffffffffffffffffffff\n      and\n      dup2\n      mstore\n      0x20\n      add\n        /* \"contracts/1_Storage.sol\":747:751  true */\n      0x01\n        /* \"contracts/1_Storage.sol\":648:825  Vendor({... */\n      iszero\n      iszero\n      dup2\n      mstore\n      0x20\n      add\n        /* \"contracts/1_Storage.sol\":777:782  false */\n      0x00\n        /* \"contracts/1_Storage.sol\":648:825  Vendor({... */\n      iszero\n      iszero\n      dup2\n      mstore\n      pop\n        /* \"contracts/1_Storage.sol\":626:633  vendors */\n      0x00\n        /* \"contracts/1_Storage.sol\":626:645  vendors[msg.sender] */\n      dup1\n        /* \"contracts/1_Storage.sol\":634:644  msg.sender */\n      caller\n        /* \"contracts/1_Storage.sol\":626:645  vendors[msg.sender] */\n      0xffffffffffffffffffffffffffffffffffffffff\n      and\n      0xffffffffffffffffffffffffffffffffffffffff\n      and\n      dup2\n      mstore\n      0x20\n      add\n      swap1\n      dup2\n      mstore\n      0x20\n      add\n      0x00\n      keccak256\n        /* \"contracts/1_Storage.sol\":626:825  vendors[msg.sender] = Vendor({... */\n      0x00\n      dup3\n      add\n      mload\n      dup2\n      0x00\n      add\n      swap1\n      dup2\n      tag_64\n      swap2\n      swap1\n      tag_65\n      jump\t// in\n    tag_64:\n      pop\n      0x20\n      dup3\n      add\n      mload\n      dup2\n      0x01\n      add\n      exp(0x0100, 0x00)\n      dup2\n      sload\n      dup2\n      0xffffffffffffffffffffffffffffffffffffffff\n      mul\n      not\n      and\n      swap1\n      dup4\n      0xffffffffffffffffffffffffffffffffffffffff\n      and\n      mul\n      or\n      swap1\n      sstore\n      pop\n      0x40\n      dup3\n      add\n      mload\n      dup2\n      0x01\n      add\n      exp(0x0100, 0x14)\n      dup2\n      sload\n      dup2\n      0xff\n      mul\n      not\n      and\n      swap1\n      dup4\n      iszero\n      iszero\n      mul\n      or\n      swap1\n      sstore\n      pop\n      0x60\n      dup3\n      add\n      mload\n      dup2\n      0x01\n      add\n      exp(0x0100, 0x15)\n      dup2\n      sload\n      dup2\n      0xff\n      mul\n      not\n      and\n      swap1\n      dup4\n      iszero\n      iszero\n      mul\n      or\n      swap1\n      sstore\n      pop\n      swap1\n      pop\n      pop\n        /* \"contracts/1_Storage.sol\":858:868  msg.sender */\n      caller\n        /* \"contracts/1_Storage.sol\":841:876  VendorRegistered(msg.sender, _name) */\n      0xffffffffffffffffffffffffffffffffffffffff\n      and\n      0x85b62d42045862192f9e1f971fcb74803cb7ce2635b0dd91716f738bafcb32c6\n        /* \"contracts/1_Storage.sol\":870:875  _name */\n      dup3\n        /* \"contracts/1_Storage.sol\":841:876  VendorRegistered(msg.sender, _name) */\n      mload(0x40)\n      tag_66\n      swap2\n      swap1\n      tag_67\n      jump\t// in\n    tag_66:\n      mload(0x40)\n      dup1\n      swap2\n      sub\n      swap1\n      log2\n        /* \"contracts/1_Storage.sol\":460:883  function registerVendor(string memory _name) public {... */\n      pop\n      jump\t// out\n    tag_51:\n      mload(0x40)\n      dup1\n      0x80\n      add\n      0x40\n      mstore\n      dup1\n      0x60\n      dup2\n      mstore\n      0x20\n      add\n      and(0xffffffffffffffffffffffffffffffffffffffff, 0x00)\n      dup2\n      mstore\n      0x20\n      add\n      iszero(iszero(0x00))\n      dup2\n      mstore\n      0x20\n      add\n      iszero(iszero(0x00))\n      dup2\n      mstore\n      pop\n      swap1\n      jump\t// out\n        /* \"#utility.yul\":7:82   */\n    tag_68:\n        /* \"#utility.yul\":40:46   */\n      0x00\n        /* \"#utility.yul\":73:75   */\n      0x40\n        /* \"#utility.yul\":67:76   */\n      mload\n        /* \"#utility.yul\":57:76   */\n      swap1\n      pop\n        /* \"#utility.yul\":7:82   */\n      swap1\n      jump\t// out\n        /* \"#utility.yul\":88:205   */\n    tag_69:\n        /* \"#utility.yul\":197:198   */\n      0x00\n        /* \"#utility.yul\":194:195   */\n      dup1\n        /* \"#utility.yul\":187:199   */\n      revert\n        /* \"#utility.yul\":211:328   */\n    tag_70:\n        /* \"#utility.yul\":320:321   */\n      0x00\n        /* \"#utility.yul\":317:318   */\n      dup1\n        /* \"#utility.yul\":310:322   */\n      revert\n        /* \"#utility.yul\":334:460   */\n    tag_71:\n        /* \"#utility.yul\":371:378   */\n      0x00\n        /* \"#utility.yul\":411:453   */\n      0xffffffffffffffffffffffffffffffffffffffff\n        /* \"#utility.yul\":404:409   */\n      dup3\n        /* \"#utility.yul\":400:454   */\n      and\n        /* \"#utility.yul\":389:454   */\n      swap1\n      pop\n        /* \"#utility.yul\":334:460   */\n      swap2\n      swap1\n      pop\n      jump\t// out\n        /* \"#utility.yul\":466:562   */\n    tag_72:\n        /* \"#utility.yul\":503:510   */\n      0x00\n        /* \"#utility.yul\":532:556   */\n      tag_126\n        /* \"#utility.yul\":550:555   */\n      dup3\n        /* \"#utility.yul\":532:556   */\n      tag_71\n      jump\t// in\n    tag_126:\n        /* \"#utility.yul\":521:556   */\n      swap1\n      pop\n        /* \"#utility.yul\":466:562   */\n      swap2\n      swap1\n      pop\n      jump\t// out\n        /* \"#utility.yul\":568:690   */\n    tag_73:\n        /* \"#utility.yul\":641:665   */\n      tag_128\n        /* \"#utility.yul\":659:664   */\n      dup2\n        /* \"#utility.yul\":641:665   */\n      tag_72\n      jump\t// in\n    tag_128:\n        /* \"#utility.yul\":634:639   */\n      dup2\n        /* \"#utility.yul\":631:666   */\n      eq\n        /* \"#utility.yul\":621:684   */\n      tag_129\n      jumpi\n        /* \"#utility.yul\":680:681   */\n      0x00\n        /* \"#utility.yul\":677:678   */\n      dup1\n        /* \"#utility.yul\":670:682   */\n      revert\n        /* \"#utility.yul\":621:684   */\n    tag_129:\n        /* \"#utility.yul\":568:690   */\n      pop\n      jump\t// out\n        /* \"#utility.yul\":696:835   */\n    tag_74:\n        /* \"#utility.yul\":742:747   */\n      0x00\n        /* \"#utility.yul\":780:786   */\n      dup2\n        /* \"#utility.yul\":767:787   */\n      calldataload\n        /* \"#utility.yul\":758:787   */\n      swap1\n      pop\n        /* \"#utility.yul\":796:829   */\n      tag_131\n        /* \"#utility.yul\":823:828   */\n      dup2\n        /* \"#utility.yul\":796:829   */\n      tag_73\n      jump\t// in\n    tag_131:\n        /* \"#utility.yul\":696:835   */\n      swap3\n      swap2\n      pop\n      pop\n      jump\t// out\n        /* \"#utility.yul\":841:931   */\n    tag_75:\n        /* \"#utility.yul\":875:882   */\n      0x00\n        /* \"#utility.yul\":918:923   */\n      dup2\n        /* \"#utility.yul\":911:924   */\n      iszero\n        /* \"#utility.yul\":904:925   */\n      iszero\n        /* \"#utility.yul\":893:925   */\n      swap1\n      pop\n        /* \"#utility.yul\":841:931   */\n      swap2\n      swap1\n      pop\n      jump\t// out\n        /* \"#utility.yul\":937:1053   */\n    tag_76:\n        /* \"#utility.yul\":1007:1028   */\n      tag_134\n        /* \"#utility.yul\":1022:1027   */\n      dup2\n        /* \"#utility.yul\":1007:1028   */\n      tag_75\n      jump\t// in\n    tag_134:\n        /* \"#utility.yul\":1000:1005   */\n      dup2\n        /* \"#utility.yul\":997:1029   */\n      eq\n        /* \"#utility.yul\":987:1047   */\n      tag_135\n      jumpi\n        /* \"#utility.yul\":1043:1044   */\n      0x00\n        /* \"#utility.yul\":1040:1041   */\n      dup1\n        /* \"#utility.yul\":1033:1045   */\n      revert\n        /* \"#utility.yul\":987:1047   */\n    tag_135:\n        /* \"#utility.yul\":937:1053   */\n      pop\n      jump\t// out\n        /* \"#utility.yul\":1059:1192   */\n    tag_77:\n        /* \"#utility.yul\":1102:1107   */\n      0x00\n        /* \"#utility.yul\":1140:1146   */\n      dup2\n        /* \"#utility.yul\":1127:1147   */\n      calldataload\n        /* \"#utility.yul\":1118:1147   */\n      swap1\n      pop\n        /* \"#utility.yul\":1156:1186   */\n      tag_137\n        /* \"#utility.yul\":1180:1185   */\n      dup2\n        /* \"#utility.yul\":1156:1186   */\n      tag_76\n      jump\t// in\n    tag_137:\n        /* \"#utility.yul\":1059:1192   */\n      swap3\n      swap2\n      pop\n      pop\n      jump\t// out\n        /* \"#utility.yul\":1198:1666   */\n    tag_11:\n        /* \"#utility.yul\":1263:1269   */\n      0x00\n        /* \"#utility.yul\":1271:1277   */\n      dup1\n        /* \"#utility.yul\":1320:1322   */\n      0x40\n        /* \"#utility.yul\":1308:1317   */\n      dup4\n        /* \"#utility.yul\":1299:1306   */\n      dup6\n        /* \"#utility.yul\":1295:1318   */\n      sub\n        /* \"#utility.yul\":1291:1323   */\n      slt\n        /* \"#utility.yul\":1288:1407   */\n      iszero\n      tag_139\n      jumpi\n        /* \"#utility.yul\":1326:1405   */\n      tag_140\n      tag_69\n      jump\t// in\n    tag_140:\n        /* \"#utility.yul\":1288:1407   */\n    tag_139:\n        /* \"#utility.yul\":1446:1447   */\n      0x00\n        /* \"#utility.yul\":1471:1524   */\n      tag_141\n        /* \"#utility.yul\":1516:1523   */\n      dup6\n        /* \"#utility.yul\":1507:1513   */\n      dup3\n        /* \"#utility.yul\":1496:1505   */\n      dup7\n        /* \"#utility.yul\":1492:1514   */\n      add\n        /* \"#utility.yul\":1471:1524   */\n      tag_74\n      jump\t// in\n    tag_141:\n        /* \"#utility.yul\":1461:1524   */\n      swap3\n      pop\n        /* \"#utility.yul\":1417:1534   */\n      pop\n        /* \"#utility.yul\":1573:1575   */\n      0x20\n        /* \"#utility.yul\":1599:1649   */\n      tag_142\n        /* \"#utility.yul\":1641:1648   */\n      dup6\n        /* \"#utility.yul\":1632:1638   */\n      dup3\n        /* \"#utility.yul\":1621:1630   */\n      dup7\n        /* \"#utility.yul\":1617:1639   */\n      add\n        /* \"#utility.yul\":1599:1649   */\n      tag_77\n      jump\t// in\n    tag_142:\n        /* \"#utility.yul\":1589:1649   */\n      swap2\n      pop\n        /* \"#utility.yul\":1544:1659   */\n      pop\n        /* \"#utility.yul\":1198:1666   */\n      swap3\n      pop\n      swap3\n      swap1\n      pop\n      jump\t// out\n        /* \"#utility.yul\":1672:2001   */\n    tag_15:\n        /* \"#utility.yul\":1731:1737   */\n      0x00\n        /* \"#utility.yul\":1780:1782   */\n      0x20\n        /* \"#utility.yul\":1768:1777   */\n      dup3\n        /* \"#utility.yul\":1759:1766   */\n      dup5\n        /* \"#utility.yul\":1755:1778   */\n      sub\n        /* \"#utility.yul\":1751:1783   */\n      slt\n        /* \"#utility.yul\":1748:1867   */\n      iszero\n      tag_144\n      jumpi\n        /* \"#utility.yul\":1786:1865   */\n      tag_145\n      tag_69\n      jump\t// in\n    tag_145:\n        /* \"#utility.yul\":1748:1867   */\n    tag_144:\n        /* \"#utility.yul\":1906:1907   */\n      0x00\n        /* \"#utility.yul\":1931:1984   */\n      tag_146\n        /* \"#utility.yul\":1976:1983   */\n      dup5\n        /* \"#utility.yul\":1967:1973   */\n      dup3\n        /* \"#utility.yul\":1956:1965   */\n      dup6\n        /* \"#utility.yul\":1952:1974   */\n      add\n        /* \"#utility.yul\":1931:1984   */\n      tag_74\n      jump\t// in\n    tag_146:\n        /* \"#utility.yul\":1921:1984   */\n      swap2\n      pop\n        /* \"#utility.yul\":1877:1994   */\n      pop\n        /* \"#utility.yul\":1672:2001   */\n      swap3\n      swap2\n      pop\n      pop\n      jump\t// out\n        /* \"#utility.yul\":2007:2106   */\n    tag_78:\n        /* \"#utility.yul\":2059:2065   */\n      0x00\n        /* \"#utility.yul\":2093:2098   */\n      dup2\n        /* \"#utility.yul\":2087:2099   */\n      mload\n        /* \"#utility.yul\":2077:2099   */\n      swap1\n      pop\n        /* \"#utility.yul\":2007:2106   */\n      swap2\n      swap1\n      pop\n      jump\t// out\n        /* \"#utility.yul\":2112:2281   */\n    tag_79:\n        /* \"#utility.yul\":2196:2207   */\n      0x00\n        /* \"#utility.yul\":2230:2236   */\n      dup3\n        /* \"#utility.yul\":2225:2228   */\n      dup3\n        /* \"#utility.yul\":2218:2237   */\n      mstore\n        /* \"#utility.yul\":2270:2274   */\n      0x20\n        /* \"#utility.yul\":2265:2268   */\n      dup3\n        /* \"#utility.yul\":2261:2275   */\n      add\n        /* \"#utility.yul\":2246:2275   */\n      swap1\n      pop\n        /* \"#utility.yul\":2112:2281   */\n      swap3\n      swap2\n      pop\n      pop\n      jump\t// out\n        /* \"#utility.yul\":2287:2533   */\n    tag_80:\n        /* \"#utility.yul\":2368:2369   */\n      0x00\n        /* \"#utility.yul\":2378:2491   */\n    tag_150:\n        /* \"#utility.yul\":2392:2398   */\n      dup4\n        /* \"#utility.yul\":2389:2390   */\n      dup2\n        /* \"#utility.yul\":2386:2399   */\n      lt\n        /* \"#utility.yul\":2378:2491   */\n      iszero\n      tag_152\n      jumpi\n        /* \"#utility.yul\":2477:2478   */\n      dup1\n        /* \"#utility.yul\":2472:2475   */\n      dup3\n        /* \"#utility.yul\":2468:2479   */\n      add\n        /* \"#utility.yul\":2462:2480   */\n      mload\n        /* \"#utility.yul\":2458:2459   */\n      dup2\n        /* \"#utility.yul\":2453:2456   */\n      dup5\n        /* \"#utility.yul\":2449:2460   */\n      add\n        /* \"#utility.yul\":2442:2481   */\n      mstore\n        /* \"#utility.yul\":2414:2416   */\n      0x20\n        /* \"#utility.yul\":2411:2412   */\n      dup2\n        /* \"#utility.yul\":2407:2417   */\n      add\n        /* \"#utility.yul\":2402:2417   */\n      swap1\n      pop\n        /* \"#utility.yul\":2378:2491   */\n      jump(tag_150)\n    tag_152:\n        /* \"#utility.yul\":2525:2526   */\n      0x00\n        /* \"#utility.yul\":2516:2522   */\n      dup5\n        /* \"#utility.yul\":2511:2514   */\n      dup5\n        /* \"#utility.yul\":2507:2523   */\n      add\n        /* \"#utility.yul\":2500:2527   */\n      mstore\n        /* \"#utility.yul\":2349:2533   */\n      pop\n        /* \"#utility.yul\":2287:2533   */\n      pop\n      pop\n      pop\n      jump\t// out\n        /* \"#utility.yul\":2539:2641   */\n    tag_81:\n        /* \"#utility.yul\":2580:2586   */\n      0x00\n        /* \"#utility.yul\":2631:2633   */\n      0x1f\n        /* \"#utility.yul\":2627:2634   */\n      not\n        /* \"#utility.yul\":2622:2624   */\n      0x1f\n        /* \"#utility.yul\":2615:2620   */\n      dup4\n        /* \"#utility.yul\":2611:2625   */\n      add\n        /* \"#utility.yul\":2607:2635   */\n      and\n        /* \"#utility.yul\":2597:2635   */\n      swap1\n      pop\n        /* \"#utility.yul\":2539:2641   */\n      swap2\n      swap1\n      pop\n      jump\t// out\n        /* \"#utility.yul\":2647:3024   */\n    tag_82:\n        /* \"#utility.yul\":2735:2738   */\n      0x00\n        /* \"#utility.yul\":2763:2802   */\n      tag_155\n        /* \"#utility.yul\":2796:2801   */\n      dup3\n        /* \"#utility.yul\":2763:2802   */\n      tag_78\n      jump\t// in\n    tag_155:\n        /* \"#utility.yul\":2818:2889   */\n      tag_156\n        /* \"#utility.yul\":2882:2888   */\n      dup2\n        /* \"#utility.yul\":2877:2880   */\n      dup6\n        /* \"#utility.yul\":2818:2889   */\n      tag_79\n      jump\t// in\n    tag_156:\n        /* \"#utility.yul\":2811:2889   */\n      swap4\n      pop\n        /* \"#utility.yul\":2898:2963   */\n      tag_157\n        /* \"#utility.yul\":2956:2962   */\n      dup2\n        /* \"#utility.yul\":2951:2954   */\n      dup6\n        /* \"#utility.yul\":2944:2948   */\n      0x20\n        /* \"#utility.yul\":2937:2942   */\n      dup7\n        /* \"#utility.yul\":2933:2949   */\n      add\n        /* \"#utility.yul\":2898:2963   */\n      tag_80\n      jump\t// in\n    tag_157:\n        /* \"#utility.yul\":2988:3017   */\n      tag_158\n        /* \"#utility.yul\":3010:3016   */\n      dup2\n        /* \"#utility.yul\":2988:3017   */\n      tag_81\n      jump\t// in\n    tag_158:\n        /* \"#utility.yul\":2983:2986   */\n      dup5\n        /* \"#utility.yul\":2979:3018   */\n      add\n        /* \"#utility.yul\":2972:3018   */\n      swap2\n      pop\n        /* \"#utility.yul\":2739:3024   */\n      pop\n        /* \"#utility.yul\":2647:3024   */\n      swap3\n      swap2\n      pop\n      pop\n      jump\t// out\n        /* \"#utility.yul\":3030:3148   */\n    tag_83:\n        /* \"#utility.yul\":3117:3141   */\n      tag_160\n        /* \"#utility.yul\":3135:3140   */\n      dup2\n        /* \"#utility.yul\":3117:3141   */\n      tag_72\n      jump\t// in\n    tag_160:\n        /* \"#utility.yul\":3112:3115   */\n      dup3\n        /* \"#utility.yul\":3105:3142   */\n      mstore\n        /* \"#utility.yul\":3030:3148   */\n      pop\n      pop\n      jump\t// out\n        /* \"#utility.yul\":3154:3263   */\n    tag_84:\n        /* \"#utility.yul\":3235:3256   */\n      tag_162\n        /* \"#utility.yul\":3250:3255   */\n      dup2\n        /* \"#utility.yul\":3235:3256   */\n      tag_75\n      jump\t// in\n    tag_162:\n        /* \"#utility.yul\":3230:3233   */\n      dup3\n        /* \"#utility.yul\":3223:3257   */\n      mstore\n        /* \"#utility.yul\":3154:3263   */\n      pop\n      pop\n      jump\t// out\n        /* \"#utility.yul\":3269:3889   */\n    tag_18:\n        /* \"#utility.yul\":3454:3458   */\n      0x00\n        /* \"#utility.yul\":3492:3495   */\n      0x80\n        /* \"#utility.yul\":3481:3490   */\n      dup3\n        /* \"#utility.yul\":3477:3496   */\n      add\n        /* \"#utility.yul\":3469:3496   */\n      swap1\n      pop\n        /* \"#utility.yul\":3542:3551   */\n      dup2\n        /* \"#utility.yul\":3536:3540   */\n      dup2\n        /* \"#utility.yul\":3532:3552   */\n      sub\n        /* \"#utility.yul\":3528:3529   */\n      0x00\n        /* \"#utility.yul\":3517:3526   */\n      dup4\n        /* \"#utility.yul\":3513:3530   */\n      add\n        /* \"#utility.yul\":3506:3553   */\n      mstore\n        /* \"#utility.yul\":3570:3648   */\n      tag_164\n        /* \"#utility.yul\":3643:3647   */\n      dup2\n        /* \"#utility.yul\":3634:3640   */\n      dup8\n        /* \"#utility.yul\":3570:3648   */\n      tag_82\n      jump\t// in\n    tag_164:\n        /* \"#utility.yul\":3562:3648   */\n      swap1\n      pop\n        /* \"#utility.yul\":3658:3730   */\n      tag_165\n        /* \"#utility.yul\":3726:3728   */\n      0x20\n        /* \"#utility.yul\":3715:3724   */\n      dup4\n        /* \"#utility.yul\":3711:3729   */\n      add\n        /* \"#utility.yul\":3702:3708   */\n      dup7\n        /* \"#utility.yul\":3658:3730   */\n      tag_83\n      jump\t// in\n    tag_165:\n        /* \"#utility.yul\":3740:3806   */\n      tag_166\n        /* \"#utility.yul\":3802:3804   */\n      0x40\n        /* \"#utility.yul\":3791:3800   */\n      dup4\n        /* \"#utility.yul\":3787:3805   */\n      add\n        /* \"#utility.yul\":3778:3784   */\n      dup6\n        /* \"#utility.yul\":3740:3806   */\n      tag_84\n      jump\t// in\n    tag_166:\n        /* \"#utility.yul\":3816:3882   */\n      tag_167\n        /* \"#utility.yul\":3878:3880   */\n      0x60\n        /* \"#utility.yul\":3867:3876   */\n      dup4\n        /* \"#utility.yul\":3863:3881   */\n      add\n        /* \"#utility.yul\":3854:3860   */\n      dup5\n        /* \"#utility.yul\":3816:3882   */\n      tag_84\n      jump\t// in\n    tag_167:\n        /* \"#utility.yul\":3269:3889   */\n      swap6\n      swap5\n      pop\n      pop\n      pop\n      pop\n      pop\n      jump\t// out\n        /* \"#utility.yul\":3895:4105   */\n    tag_23:\n        /* \"#utility.yul\":3982:3986   */\n      0x00\n        /* \"#utility.yul\":4020:4022   */\n      0x20\n        /* \"#utility.yul\":4009:4018   */\n      dup3\n        /* \"#utility.yul\":4005:4023   */\n      add\n        /* \"#utility.yul\":3997:4023   */\n      swap1\n      pop\n        /* \"#utility.yul\":4033:4098   */\n      tag_169\n        /* \"#utility.yul\":4095:4096   */\n      0x00\n        /* \"#utility.yul\":4084:4093   */\n      dup4\n        /* \"#utility.yul\":4080:4097   */\n      add\n        /* \"#utility.yul\":4071:4077   */\n      dup5\n        /* \"#utility.yul\":4033:4098   */\n      tag_84\n      jump\t// in\n    tag_169:\n        /* \"#utility.yul\":3895:4105   */\n      swap3\n      swap2\n      pop\n      pop\n      jump\t// out\n        /* \"#utility.yul\":4111:4270   */\n    tag_85:\n        /* \"#utility.yul\":4185:4196   */\n      0x00\n        /* \"#utility.yul\":4219:4225   */\n      dup3\n        /* \"#utility.yul\":4214:4217   */\n      dup3\n        /* \"#utility.yul\":4207:4226   */\n      mstore\n        /* \"#utility.yul\":4259:4263   */\n      0x20\n        /* \"#utility.yul\":4254:4257   */\n      dup3\n        /* \"#utility.yul\":4250:4264   */\n      add\n        /* \"#utility.yul\":4235:4264   */\n      swap1\n      pop\n        /* \"#utility.yul\":4111:4270   */\n      swap3\n      swap2\n      pop\n      pop\n      jump\t// out\n        /* \"#utility.yul\":4276:4633   */\n    tag_86:\n        /* \"#utility.yul\":4354:4357   */\n      0x00\n        /* \"#utility.yul\":4382:4421   */\n      tag_172\n        /* \"#utility.yul\":4415:4420   */\n      dup3\n        /* \"#utility.yul\":4382:4421   */\n      tag_78\n      jump\t// in\n    tag_172:\n        /* \"#utility.yul\":4437:4498   */\n      tag_173\n        /* \"#utility.yul\":4491:4497   */\n      dup2\n        /* \"#utility.yul\":4486:4489   */\n      dup6\n        /* \"#utility.yul\":4437:4498   */\n      tag_85\n      jump\t// in\n    tag_173:\n        /* \"#utility.yul\":4430:4498   */\n      swap4\n      pop\n        /* \"#utility.yul\":4507:4572   */\n      tag_174\n        /* \"#utility.yul\":4565:4571   */\n      dup2\n        /* \"#utility.yul\":4560:4563   */\n      dup6\n        /* \"#utility.yul\":4553:4557   */\n      0x20\n        /* \"#utility.yul\":4546:4551   */\n      dup7\n        /* \"#utility.yul\":4542:4558   */\n      add\n        /* \"#utility.yul\":4507:4572   */\n      tag_80\n      jump\t// in\n    tag_174:\n        /* \"#utility.yul\":4597:4626   */\n      tag_175\n        /* \"#utility.yul\":4619:4625   */\n      dup2\n        /* \"#utility.yul\":4597:4626   */\n      tag_81\n      jump\t// in\n    tag_175:\n        /* \"#utility.yul\":4592:4595   */\n      dup5\n        /* \"#utility.yul\":4588:4627   */\n      add\n        /* \"#utility.yul\":4581:4627   */\n      swap2\n      pop\n        /* \"#utility.yul\":4358:4633   */\n      pop\n        /* \"#utility.yul\":4276:4633   */\n      swap3\n      swap2\n      pop\n      pop\n      jump\t// out\n        /* \"#utility.yul\":4639:4747   */\n    tag_87:\n        /* \"#utility.yul\":4716:4740   */\n      tag_177\n        /* \"#utility.yul\":4734:4739   */\n      dup2\n        /* \"#utility.yul\":4716:4740   */\n      tag_72\n      jump\t// in\n    tag_177:\n        /* \"#utility.yul\":4711:4714   */\n      dup3\n        /* \"#utility.yul\":4704:4741   */\n      mstore\n        /* \"#utility.yul\":4639:4747   */\n      pop\n      pop\n      jump\t// out\n        /* \"#utility.yul\":4753:4852   */\n    tag_88:\n        /* \"#utility.yul\":4824:4845   */\n      tag_179\n        /* \"#utility.yul\":4839:4844   */\n      dup2\n        /* \"#utility.yul\":4824:4845   */\n      tag_75\n      jump\t// in\n    tag_179:\n        /* \"#utility.yul\":4819:4822   */\n      dup3\n        /* \"#utility.yul\":4812:4846   */\n      mstore\n        /* \"#utility.yul\":4753:4852   */\n      pop\n      pop\n      jump\t// out\n        /* \"#utility.yul\":4934:5893   */\n    tag_89:\n        /* \"#utility.yul\":5047:5050   */\n      0x00\n        /* \"#utility.yul\":5083:5087   */\n      0x80\n        /* \"#utility.yul\":5078:5081   */\n      dup4\n        /* \"#utility.yul\":5074:5088   */\n      add\n        /* \"#utility.yul\":5170:5174   */\n      0x00\n        /* \"#utility.yul\":5163:5168   */\n      dup4\n        /* \"#utility.yul\":5159:5175   */\n      add\n        /* \"#utility.yul\":5153:5176   */\n      mload\n        /* \"#utility.yul\":5223:5226   */\n      dup5\n        /* \"#utility.yul\":5217:5221   */\n      dup3\n        /* \"#utility.yul\":5213:5227   */\n      sub\n        /* \"#utility.yul\":5206:5210   */\n      0x00\n        /* \"#utility.yul\":5201:5204   */\n      dup7\n        /* \"#utility.yul\":5197:5211   */\n      add\n        /* \"#utility.yul\":5190:5228   */\n      mstore\n        /* \"#utility.yul\":5249:5322   */\n      tag_181\n        /* \"#utility.yul\":5317:5321   */\n      dup3\n        /* \"#utility.yul\":5303:5315   */\n      dup3\n        /* \"#utility.yul\":5249:5322   */\n      tag_86\n      jump\t// in\n    tag_181:\n        /* \"#utility.yul\":5241:5322   */\n      swap2\n      pop\n        /* \"#utility.yul\":5098:5333   */\n      pop\n        /* \"#utility.yul\":5424:5428   */\n      0x20\n        /* \"#utility.yul\":5417:5422   */\n      dup4\n        /* \"#utility.yul\":5413:5429   */\n      add\n        /* \"#utility.yul\":5407:5430   */\n      mload\n        /* \"#utility.yul\":5443:5506   */\n      tag_182\n        /* \"#utility.yul\":5500:5504   */\n      0x20\n        /* \"#utility.yul\":5495:5498   */\n      dup7\n        /* \"#utility.yul\":5491:5505   */\n      add\n        /* \"#utility.yul\":5477:5489   */\n      dup3\n        /* \"#utility.yul\":5443:5506   */\n      tag_87\n      jump\t// in\n    tag_182:\n        /* \"#utility.yul\":5343:5516   */\n      pop\n        /* \"#utility.yul\":5606:5610   */\n      0x40\n        /* \"#utility.yul\":5599:5604   */\n      dup4\n        /* \"#utility.yul\":5595:5611   */\n      add\n        /* \"#utility.yul\":5589:5612   */\n      mload\n        /* \"#utility.yul\":5625:5682   */\n      tag_183\n        /* \"#utility.yul\":5676:5680   */\n      0x40\n        /* \"#utility.yul\":5671:5674   */\n      dup7\n        /* \"#utility.yul\":5667:5681   */\n      add\n        /* \"#utility.yul\":5653:5665   */\n      dup3\n        /* \"#utility.yul\":5625:5682   */\n      tag_88\n      jump\t// in\n    tag_183:\n        /* \"#utility.yul\":5526:5692   */\n      pop\n        /* \"#utility.yul\":5780:5784   */\n      0x60\n        /* \"#utility.yul\":5773:5778   */\n      dup4\n        /* \"#utility.yul\":5769:5785   */\n      add\n        /* \"#utility.yul\":5763:5786   */\n      mload\n        /* \"#utility.yul\":5799:5856   */\n      tag_184\n        /* \"#utility.yul\":5850:5854   */\n      0x60\n        /* \"#utility.yul\":5845:5848   */\n      dup7\n        /* \"#utility.yul\":5841:5855   */\n      add\n        /* \"#utility.yul\":5827:5839   */\n      dup3\n        /* \"#utility.yul\":5799:5856   */\n      tag_88\n      jump\t// in\n    tag_184:\n        /* \"#utility.yul\":5702:5866   */\n      pop\n        /* \"#utility.yul\":5883:5887   */\n      dup1\n        /* \"#utility.yul\":5876:5887   */\n      swap2\n      pop\n        /* \"#utility.yul\":5052:5893   */\n      pop\n        /* \"#utility.yul\":4934:5893   */\n      swap3\n      swap2\n      pop\n      pop\n      jump\t// out\n        /* \"#utility.yul\":5899:6260   */\n    tag_32:\n        /* \"#utility.yul\":6036:6040   */\n      0x00\n        /* \"#utility.yul\":6074:6076   */\n      0x20\n        /* \"#utility.yul\":6063:6072   */\n      dup3\n        /* \"#utility.yul\":6059:6077   */\n      add\n        /* \"#utility.yul\":6051:6077   */\n      swap1\n      pop\n        /* \"#utility.yul\":6123:6132   */\n      dup2\n        /* \"#utility.yul\":6117:6121   */\n      dup2\n        /* \"#utility.yul\":6113:6133   */\n      sub\n        /* \"#utility.yul\":6109:6110   */\n      0x00\n        /* \"#utility.yul\":6098:6107   */\n      dup4\n        /* \"#utility.yul\":6094:6111   */\n      add\n        /* \"#utility.yul\":6087:6134   */\n      mstore\n        /* \"#utility.yul\":6151:6253   */\n      tag_186\n        /* \"#utility.yul\":6248:6252   */\n      dup2\n        /* \"#utility.yul\":6239:6245   */\n      dup5\n        /* \"#utility.yul\":6151:6253   */\n      tag_89\n      jump\t// in\n    tag_186:\n        /* \"#utility.yul\":6143:6253   */\n      swap1\n      pop\n        /* \"#utility.yul\":5899:6260   */\n      swap3\n      swap2\n      pop\n      pop\n      jump\t// out\n        /* \"#utility.yul\":6266:6383   */\n    tag_90:\n        /* \"#utility.yul\":6375:6376   */\n      0x00\n        /* \"#utility.yul\":6372:6373   */\n      dup1\n        /* \"#utility.yul\":6365:6377   */\n      revert\n        /* \"#utility.yul\":6389:6506   */\n    tag_91:\n        /* \"#utility.yul\":6498:6499   */\n      0x00\n        /* \"#utility.yul\":6495:6496   */\n      dup1\n        /* \"#utility.yul\":6488:6500   */\n      revert\n        /* \"#utility.yul\":6512:6692   */\n    tag_92:\n        /* \"#utility.yul\":6560:6637   */\n      0x4e487b7100000000000000000000000000000000000000000000000000000000\n        /* \"#utility.yul\":6557:6558   */\n      0x00\n        /* \"#utility.yul\":6550:6638   */\n      mstore\n        /* \"#utility.yul\":6657:6661   */\n      0x41\n        /* \"#utility.yul\":6654:6655   */\n      0x04\n        /* \"#utility.yul\":6647:6662   */\n      mstore\n        /* \"#utility.yul\":6681:6685   */\n      0x24\n        /* \"#utility.yul\":6678:6679   */\n      0x00\n        /* \"#utility.yul\":6671:6686   */\n      revert\n        /* \"#utility.yul\":6698:6979   */\n    tag_93:\n        /* \"#utility.yul\":6781:6808   */\n      tag_191\n        /* \"#utility.yul\":6803:6807   */\n      dup3\n        /* \"#utility.yul\":6781:6808   */\n      tag_81\n      jump\t// in\n    tag_191:\n        /* \"#utility.yul\":6773:6779   */\n      dup2\n        /* \"#utility.yul\":6769:6809   */\n      add\n        /* \"#utility.yul\":6911:6917   */\n      dup2\n        /* \"#utility.yul\":6899:6909   */\n      dup2\n        /* \"#utility.yul\":6896:6918   */\n      lt\n        /* \"#utility.yul\":6875:6893   */\n      0xffffffffffffffff\n        /* \"#utility.yul\":6863:6873   */\n      dup3\n        /* \"#utility.yul\":6860:6894   */\n      gt\n        /* \"#utility.yul\":6857:6919   */\n      or\n        /* \"#utility.yul\":6854:6942   */\n      iszero\n      tag_192\n      jumpi\n        /* \"#utility.yul\":6922:6940   */\n      tag_193\n      tag_92\n      jump\t// in\n    tag_193:\n        /* \"#utility.yul\":6854:6942   */\n    tag_192:\n        /* \"#utility.yul\":6962:6972   */\n      dup1\n        /* \"#utility.yul\":6958:6960   */\n      0x40\n        /* \"#utility.yul\":6951:6973   */\n      mstore\n        /* \"#utility.yul\":6741:6979   */\n      pop\n        /* \"#utility.yul\":6698:6979   */\n      pop\n      pop\n      jump\t// out\n        /* \"#utility.yul\":6985:7114   */\n    tag_94:\n        /* \"#utility.yul\":7019:7025   */\n      0x00\n        /* \"#utility.yul\":7046:7066   */\n      tag_195\n      tag_68\n      jump\t// in\n    tag_195:\n        /* \"#utility.yul\":7036:7066   */\n      swap1\n      pop\n        /* \"#utility.yul\":7075:7108   */\n      tag_196\n        /* \"#utility.yul\":7103:7107   */\n      dup3\n        /* \"#utility.yul\":7095:7101   */\n      dup3\n        /* \"#utility.yul\":7075:7108   */\n      tag_93\n      jump\t// in\n    tag_196:\n        /* \"#utility.yul\":6985:7114   */\n      swap2\n      swap1\n      pop\n      jump\t// out\n        /* \"#utility.yul\":7120:7428   */\n    tag_95:\n        /* \"#utility.yul\":7182:7186   */\n      0x00\n        /* \"#utility.yul\":7272:7290   */\n      0xffffffffffffffff\n        /* \"#utility.yul\":7264:7270   */\n      dup3\n        /* \"#utility.yul\":7261:7291   */\n      gt\n        /* \"#utility.yul\":7258:7314   */\n      iszero\n      tag_198\n      jumpi\n        /* \"#utility.yul\":7294:7312   */\n      tag_199\n      tag_92\n      jump\t// in\n    tag_199:\n        /* \"#utility.yul\":7258:7314   */\n    tag_198:\n        /* \"#utility.yul\":7332:7361   */\n      tag_200\n        /* \"#utility.yul\":7354:7360   */\n      dup3\n        /* \"#utility.yul\":7332:7361   */\n      tag_81\n      jump\t// in\n    tag_200:\n        /* \"#utility.yul\":7324:7361   */\n      swap1\n      pop\n        /* \"#utility.yul\":7416:7420   */\n      0x20\n        /* \"#utility.yul\":7410:7414   */\n      dup2\n        /* \"#utility.yul\":7406:7421   */\n      add\n        /* \"#utility.yul\":7398:7421   */\n      swap1\n      pop\n        /* \"#utility.yul\":7120:7428   */\n      swap2\n      swap1\n      pop\n      jump\t// out\n        /* \"#utility.yul\":7434:7580   */\n    tag_96:\n        /* \"#utility.yul\":7531:7537   */\n      dup3\n        /* \"#utility.yul\":7526:7529   */\n      dup2\n        /* \"#utility.yul\":7521:7524   */\n      dup4\n        /* \"#utility.yul\":7508:7538   */\n      calldatacopy\n        /* \"#utility.yul\":7572:7573   */\n      0x00\n        /* \"#utility.yul\":7563:7569   */\n      dup4\n        /* \"#utility.yul\":7558:7561   */\n      dup4\n        /* \"#utility.yul\":7554:7570   */\n      add\n        /* \"#utility.yul\":7547:7574   */\n      mstore\n        /* \"#utility.yul\":7434:7580   */\n      pop\n      pop\n      pop\n      jump\t// out\n        /* \"#utility.yul\":7586:8011   */\n    tag_97:\n        /* \"#utility.yul\":7664:7669   */\n      0x00\n        /* \"#utility.yul\":7689:7755   */\n      tag_203\n        /* \"#utility.yul\":7705:7754   */\n      tag_204\n        /* \"#utility.yul\":7747:7753   */\n      dup5\n        /* \"#utility.yul\":7705:7754   */\n      tag_95\n      jump\t// in\n    tag_204:\n        /* \"#utility.yul\":7689:7755   */\n      tag_94\n      jump\t// in\n    tag_203:\n        /* \"#utility.yul\":7680:7755   */\n      swap1\n      pop\n        /* \"#utility.yul\":7778:7784   */\n      dup3\n        /* \"#utility.yul\":7771:7776   */\n      dup2\n        /* \"#utility.yul\":7764:7785   */\n      mstore\n        /* \"#utility.yul\":7816:7820   */\n      0x20\n        /* \"#utility.yul\":7809:7814   */\n      dup2\n        /* \"#utility.yul\":7805:7821   */\n      add\n        /* \"#utility.yul\":7854:7857   */\n      dup5\n        /* \"#utility.yul\":7845:7851   */\n      dup5\n        /* \"#utility.yul\":7840:7843   */\n      dup5\n        /* \"#utility.yul\":7836:7852   */\n      add\n        /* \"#utility.yul\":7833:7858   */\n      gt\n        /* \"#utility.yul\":7830:7942   */\n      iszero\n      tag_205\n      jumpi\n        /* \"#utility.yul\":7861:7940   */\n      tag_206\n      tag_91\n      jump\t// in\n    tag_206:\n        /* \"#utility.yul\":7830:7942   */\n    tag_205:\n        /* \"#utility.yul\":7951:8005   */\n      tag_207\n        /* \"#utility.yul\":7998:8004   */\n      dup5\n        /* \"#utility.yul\":7993:7996   */\n      dup3\n        /* \"#utility.yul\":7988:7991   */\n      dup6\n        /* \"#utility.yul\":7951:8005   */\n      tag_96\n      jump\t// in\n    tag_207:\n        /* \"#utility.yul\":7670:8011   */\n      pop\n        /* \"#utility.yul\":7586:8011   */\n      swap4\n      swap3\n      pop\n      pop\n      pop\n      jump\t// out\n        /* \"#utility.yul\":8031:8371   */\n    tag_98:\n        /* \"#utility.yul\":8087:8092   */\n      0x00\n        /* \"#utility.yul\":8136:8139   */\n      dup3\n        /* \"#utility.yul\":8129:8133   */\n      0x1f\n        /* \"#utility.yul\":8121:8127   */\n      dup4\n        /* \"#utility.yul\":8117:8134   */\n      add\n        /* \"#utility.yul\":8113:8140   */\n      slt\n        /* \"#utility.yul\":8103:8225   */\n      tag_209\n      jumpi\n        /* \"#utility.yul\":8144:8223   */\n      tag_210\n      tag_90\n      jump\t// in\n    tag_210:\n        /* \"#utility.yul\":8103:8225   */\n    tag_209:\n        /* \"#utility.yul\":8261:8267   */\n      dup2\n        /* \"#utility.yul\":8248:8268   */\n      calldataload\n        /* \"#utility.yul\":8286:8365   */\n      tag_211\n        /* \"#utility.yul\":8361:8364   */\n      dup5\n        /* \"#utility.yul\":8353:8359   */\n      dup3\n        /* \"#utility.yul\":8346:8350   */\n      0x20\n        /* \"#utility.yul\":8338:8344   */\n      dup7\n        /* \"#utility.yul\":8334:8351   */\n      add\n        /* \"#utility.yul\":8286:8365   */\n      tag_97\n      jump\t// in\n    tag_211:\n        /* \"#utility.yul\":8277:8365   */\n      swap2\n      pop\n        /* \"#utility.yul\":8093:8371   */\n      pop\n        /* \"#utility.yul\":8031:8371   */\n      swap3\n      swap2\n      pop\n      pop\n      jump\t// out\n        /* \"#utility.yul\":8377:8886   */\n    tag_35:\n        /* \"#utility.yul\":8446:8452   */\n      0x00\n        /* \"#utility.yul\":8495:8497   */\n      0x20\n        /* \"#utility.yul\":8483:8492   */\n      dup3\n        /* \"#utility.yul\":8474:8481   */\n      dup5\n        /* \"#utility.yul\":8470:8493   */\n      sub\n        /* \"#utility.yul\":8466:8498   */\n      slt\n        /* \"#utility.yul\":8463:8582   */\n      iszero\n      tag_213\n      jumpi\n        /* \"#utility.yul\":8501:8580   */\n      tag_214\n      tag_69\n      jump\t// in\n    tag_214:\n        /* \"#utility.yul\":8463:8582   */\n    tag_213:\n        /* \"#utility.yul\":8649:8650   */\n      0x00\n        /* \"#utility.yul\":8638:8647   */\n      dup3\n        /* \"#utility.yul\":8634:8651   */\n      add\n        /* \"#utility.yul\":8621:8652   */\n      calldataload\n        /* \"#utility.yul\":8679:8697   */\n      0xffffffffffffffff\n        /* \"#utility.yul\":8671:8677   */\n      dup2\n        /* \"#utility.yul\":8668:8698   */\n      gt\n        /* \"#utility.yul\":8665:8782   */\n      iszero\n      tag_215\n      jumpi\n        /* \"#utility.yul\":8701:8780   */\n      tag_216\n      tag_70\n      jump\t// in\n    tag_216:\n        /* \"#utility.yul\":8665:8782   */\n    tag_215:\n        /* \"#utility.yul\":8806:8869   */\n      tag_217\n        /* \"#utility.yul\":8861:8868   */\n      dup5\n        /* \"#utility.yul\":8852:8858   */\n      dup3\n        /* \"#utility.yul\":8841:8850   */\n      dup6\n        /* \"#utility.yul\":8837:8859   */\n      add\n        /* \"#utility.yul\":8806:8869   */\n      tag_98\n      jump\t// in\n    tag_217:\n        /* \"#utility.yul\":8796:8869   */\n      swap2\n      pop\n        /* \"#utility.yul\":8592:8879   */\n      pop\n        /* \"#utility.yul\":8377:8886   */\n      swap3\n      swap2\n      pop\n      pop\n      jump\t// out\n        /* \"#utility.yul\":8892:9063   */\n    tag_99:\n        /* \"#utility.yul\":9032:9055   */\n      0x56656e646f72206e6f7420726567697374657265640000000000000000000000\n        /* \"#utility.yul\":9028:9029   */\n      0x00\n        /* \"#utility.yul\":9020:9026   */\n      dup3\n        /* \"#utility.yul\":9016:9030   */\n      add\n        /* \"#utility.yul\":9009:9056   */\n      mstore\n        /* \"#utility.yul\":8892:9063   */\n      pop\n      jump\t// out\n        /* \"#utility.yul\":9069:9435   */\n    tag_100:\n        /* \"#utility.yul\":9211:9214   */\n      0x00\n        /* \"#utility.yul\":9232:9299   */\n      tag_220\n        /* \"#utility.yul\":9296:9298   */\n      0x15\n        /* \"#utility.yul\":9291:9294   */\n      dup4\n        /* \"#utility.yul\":9232:9299   */\n      tag_79\n      jump\t// in\n    tag_220:\n        /* \"#utility.yul\":9225:9299   */\n      swap2\n      pop\n        /* \"#utility.yul\":9308:9401   */\n      tag_221\n        /* \"#utility.yul\":9397:9400   */\n      dup3\n        /* \"#utility.yul\":9308:9401   */\n      tag_99\n      jump\t// in\n    tag_221:\n        /* \"#utility.yul\":9426:9428   */\n      0x20\n        /* \"#utility.yul\":9421:9424   */\n      dup3\n        /* \"#utility.yul\":9417:9429   */\n      add\n        /* \"#utility.yul\":9410:9429   */\n      swap1\n      pop\n        /* \"#utility.yul\":9069:9435   */\n      swap2\n      swap1\n      pop\n      jump\t// out\n        /* \"#utility.yul\":9441:9860   */\n    tag_40:\n        /* \"#utility.yul\":9607:9611   */\n      0x00\n        /* \"#utility.yul\":9645:9647   */\n      0x20\n        /* \"#utility.yul\":9634:9643   */\n      dup3\n        /* \"#utility.yul\":9630:9648   */\n      add\n        /* \"#utility.yul\":9622:9648   */\n      swap1\n      pop\n        /* \"#utility.yul\":9694:9703   */\n      dup2\n        /* \"#utility.yul\":9688:9692   */\n      dup2\n        /* \"#utility.yul\":9684:9704   */\n      sub\n        /* \"#utility.yul\":9680:9681   */\n      0x00\n        /* \"#utility.yul\":9669:9678   */\n      dup4\n        /* \"#utility.yul\":9665:9682   */\n      add\n        /* \"#utility.yul\":9658:9705   */\n      mstore\n        /* \"#utility.yul\":9722:9853   */\n      tag_223\n        /* \"#utility.yul\":9848:9852   */\n      dup2\n        /* \"#utility.yul\":9722:9853   */\n      tag_100\n      jump\t// in\n    tag_223:\n        /* \"#utility.yul\":9714:9853   */\n      swap1\n      pop\n        /* \"#utility.yul\":9441:9860   */\n      swap2\n      swap1\n      pop\n      jump\t// out\n        /* \"#utility.yul\":9866:10046   */\n    tag_101:\n        /* \"#utility.yul\":9914:9991   */\n      0x4e487b7100000000000000000000000000000000000000000000000000000000\n        /* \"#utility.yul\":9911:9912   */\n      0x00\n        /* \"#utility.yul\":9904:9992   */\n      mstore\n        /* \"#utility.yul\":10011:10015   */\n      0x22\n        /* \"#utility.yul\":10008:10009   */\n      0x04\n        /* \"#utility.yul\":10001:10016   */\n      mstore\n        /* \"#utility.yul\":10035:10039   */\n      0x24\n        /* \"#utility.yul\":10032:10033   */\n      0x00\n        /* \"#utility.yul\":10025:10040   */\n      revert\n        /* \"#utility.yul\":10052:10372   */\n    tag_43:\n        /* \"#utility.yul\":10096:10102   */\n      0x00\n        /* \"#utility.yul\":10133:10134   */\n      0x02\n        /* \"#utility.yul\":10127:10131   */\n      dup3\n        /* \"#utility.yul\":10123:10135   */\n      div\n        /* \"#utility.yul\":10113:10135   */\n      swap1\n      pop\n        /* \"#utility.yul\":10180:10181   */\n      0x01\n        /* \"#utility.yul\":10174:10178   */\n      dup3\n        /* \"#utility.yul\":10170:10182   */\n      and\n        /* \"#utility.yul\":10201:10219   */\n      dup1\n        /* \"#utility.yul\":10191:10272   */\n      tag_226\n      jumpi\n        /* \"#utility.yul\":10257:10261   */\n      0x7f\n        /* \"#utility.yul\":10249:10255   */\n      dup3\n        /* \"#utility.yul\":10245:10262   */\n      and\n        /* \"#utility.yul\":10235:10262   */\n      swap2\n      pop\n        /* \"#utility.yul\":10191:10272   */\n    tag_226:\n        /* \"#utility.yul\":10319:10321   */\n      0x20\n        /* \"#utility.yul\":10311:10317   */\n      dup3\n        /* \"#utility.yul\":10308:10322   */\n      lt\n        /* \"#utility.yul\":10288:10306   */\n      dup2\n        /* \"#utility.yul\":10285:10323   */\n      sub\n        /* \"#utility.yul\":10282:10366   */\n      tag_227\n      jumpi\n        /* \"#utility.yul\":10338:10356   */\n      tag_228\n      tag_101\n      jump\t// in\n    tag_228:\n        /* \"#utility.yul\":10282:10366   */\n    tag_227:\n        /* \"#utility.yul\":10103:10372   */\n      pop\n        /* \"#utility.yul\":10052:10372   */\n      swap2\n      swap1\n      pop\n      jump\t// out\n        /* \"#utility.yul\":10378:10553   */\n    tag_102:\n        /* \"#utility.yul\":10518:10545   */\n      0x56656e646f7220616c7265616479207265676973746572656400000000000000\n        /* \"#utility.yul\":10514:10515   */\n      0x00\n        /* \"#utility.yul\":10506:10512   */\n      dup3\n        /* \"#utility.yul\":10502:10516   */\n      add\n        /* \"#utility.yul\":10495:10546   */\n      mstore\n        /* \"#utility.yul\":10378:10553   */\n      pop\n      jump\t// out\n        /* \"#utility.yul\":10559:10925   */\n    tag_103:\n        /* \"#utility.yul\":10701:10704   */\n      0x00\n        /* \"#utility.yul\":10722:10789   */\n      tag_231\n        /* \"#utility.yul\":10786:10788   */\n      0x19\n        /* \"#utility.yul\":10781:10784   */\n      dup4\n        /* \"#utility.yul\":10722:10789   */\n      tag_79\n      jump\t// in\n    tag_231:\n        /* \"#utility.yul\":10715:10789   */\n      swap2\n      pop\n        /* \"#utility.yul\":10798:10891   */\n      tag_232\n        /* \"#utility.yul\":10887:10890   */\n      dup3\n        /* \"#utility.yul\":10798:10891   */\n      tag_102\n      jump\t// in\n    tag_232:\n        /* \"#utility.yul\":10916:10918   */\n      0x20\n        /* \"#utility.yul\":10911:10914   */\n      dup3\n        /* \"#utility.yul\":10907:10919   */\n      add\n        /* \"#utility.yul\":10900:10919   */\n      swap1\n      pop\n        /* \"#utility.yul\":10559:10925   */\n      swap2\n      swap1\n      pop\n      jump\t// out\n        /* \"#utility.yul\":10931:11350   */\n    tag_63:\n        /* \"#utility.yul\":11097:11101   */\n      0x00\n        /* \"#utility.yul\":11135:11137   */\n      0x20\n        /* \"#utility.yul\":11124:11133   */\n      dup3\n        /* \"#utility.yul\":11120:11138   */\n      add\n        /* \"#utility.yul\":11112:11138   */\n      swap1\n      pop\n        /* \"#utility.yul\":11184:11193   */\n      dup2\n        /* \"#utility.yul\":11178:11182   */\n      dup2\n        /* \"#utility.yul\":11174:11194   */\n      sub\n        /* \"#utility.yul\":11170:11171   */\n      0x00\n        /* \"#utility.yul\":11159:11168   */\n      dup4\n        /* \"#utility.yul\":11155:11172   */\n      add\n        /* \"#utility.yul\":11148:11195   */\n      mstore\n        /* \"#utility.yul\":11212:11343   */\n      tag_234\n        /* \"#utility.yul\":11338:11342   */\n      dup2\n        /* \"#utility.yul\":11212:11343   */\n      tag_103\n      jump\t// in\n    tag_234:\n        /* \"#utility.yul\":11204:11343   */\n      swap1\n      pop\n        /* \"#utility.yul\":10931:11350   */\n      swap2\n      swap1\n      pop\n      jump\t// out\n        /* \"#utility.yul\":11356:11497   */\n    tag_104:\n        /* \"#utility.yul\":11405:11409   */\n      0x00\n        /* \"#utility.yul\":11428:11431   */\n      dup2\n        /* \"#utility.yul\":11420:11431   */\n      swap1\n      pop\n        /* \"#utility.yul\":11451:11454   */\n      dup2\n        /* \"#utility.yul\":11448:11449   */\n      0x00\n        /* \"#utility.yul\":11441:11455   */\n      mstore\n        /* \"#utility.yul\":11485:11489   */\n      0x20\n        /* \"#utility.yul\":11482:11483   */\n      0x00\n        /* \"#utility.yul\":11472:11490   */\n      keccak256\n        /* \"#utility.yul\":11464:11490   */\n      swap1\n      pop\n        /* \"#utility.yul\":11356:11497   */\n      swap2\n      swap1\n      pop\n      jump\t// out\n        /* \"#utility.yul\":11503:11596   */\n    tag_105:\n        /* \"#utility.yul\":11540:11546   */\n      0x00\n        /* \"#utility.yul\":11587:11589   */\n      0x20\n        /* \"#utility.yul\":11582:11584   */\n      0x1f\n        /* \"#utility.yul\":11575:11580   */\n      dup4\n        /* \"#utility.yul\":11571:11585   */\n      add\n        /* \"#utility.yul\":11567:11590   */\n      div\n        /* \"#utility.yul\":11557:11590   */\n      swap1\n      pop\n        /* \"#utility.yul\":11503:11596   */\n      swap2\n      swap1\n      pop\n      jump\t// out\n        /* \"#utility.yul\":11602:11709   */\n    tag_106:\n        /* \"#utility.yul\":11646:11654   */\n      0x00\n        /* \"#utility.yul\":11696:11701   */\n      dup3\n        /* \"#utility.yul\":11690:11694   */\n      dup3\n        /* \"#utility.yul\":11686:11702   */\n      shl\n        /* \"#utility.yul\":11665:11702   */\n      swap1\n      pop\n        /* \"#utility.yul\":11602:11709   */\n      swap3\n      swap2\n      pop\n      pop\n      jump\t// out\n        /* \"#utility.yul\":11715:12108   */\n    tag_107:\n        /* \"#utility.yul\":11784:11790   */\n      0x00\n        /* \"#utility.yul\":11834:11835   */\n      0x08\n        /* \"#utility.yul\":11822:11832   */\n      dup4\n        /* \"#utility.yul\":11818:11836   */\n      mul\n        /* \"#utility.yul\":11857:11954   */\n      tag_239\n        /* \"#utility.yul\":11887:11953   */\n      0xffffffffffffffffffffffffffffffffffffffffffffffffffffffffffffffff\n        /* \"#utility.yul\":11876:11885   */\n      dup3\n        /* \"#utility.yul\":11857:11954   */\n      tag_106\n      jump\t// in\n    tag_239:\n        /* \"#utility.yul\":11975:12014   */\n      tag_240\n        /* \"#utility.yul\":12005:12013   */\n      dup7\n        /* \"#utility.yul\":11994:12003   */\n      dup4\n        /* \"#utility.yul\":11975:12014   */\n      tag_106\n      jump\t// in\n    tag_240:\n        /* \"#utility.yul\":11963:12014   */\n      swap6\n      pop\n        /* \"#utility.yul\":12047:12051   */\n      dup1\n        /* \"#utility.yul\":12043:12052   */\n      not\n        /* \"#utility.yul\":12036:12041   */\n      dup5\n        /* \"#utility.yul\":12032:12053   */\n      and\n        /* \"#utility.yul\":12023:12053   */\n      swap4\n      pop\n        /* \"#utility.yul\":12096:12100   */\n      dup1\n        /* \"#utility.yul\":12086:12094   */\n      dup7\n        /* \"#utility.yul\":12082:12101   */\n      and\n        /* \"#utility.yul\":12075:12080   */\n      dup5\n        /* \"#utility.yul\":12072:12102   */\n      or\n        /* \"#utility.yul\":12062:12102   */\n      swap3\n      pop\n        /* \"#utility.yul\":11791:12108   */\n      pop\n      pop\n        /* \"#utility.yul\":11715:12108   */\n      swap4\n      swap3\n      pop\n      pop\n      pop\n      jump\t// out\n        /* \"#utility.yul\":12114:12191   */\n    tag_108:\n        /* \"#utility.yul\":12151:12158   */\n      0x00\n        /* \"#utility.yul\":12180:12185   */\n      dup2\n        /* \"#utility.yul\":12169:12185   */\n      swap1\n      pop\n        /* \"#utility.yul\":12114:12191   */\n      swap2\n      swap1\n      pop\n      jump\t// out\n        /* \"#utility.yul\":12197:12257   */\n    tag_109:\n        /* \"#utility.yul\":12225:12228   */\n      0x00\n        /* \"#utility.yul\":12246:12251   */\n      dup2\n        /* \"#utility.yul\":12239:12251   */\n      swap1\n      pop\n        /* \"#utility.yul\":12197:12257   */\n      swap2\n      swap1\n      pop\n      jump\t// out\n        /* \"#utility.yul\":12263:12405   */\n    tag_110:\n        /* \"#utility.yul\":12313:12322   */\n      0x00\n        /* \"#utility.yul\":12346:12399   */\n      tag_244\n        /* \"#utility.yul\":12364:12398   */\n      tag_245\n        /* \"#utility.yul\":12373:12397   */\n      tag_246\n        /* \"#utility.yul\":12391:12396   */\n      dup5\n        /* \"#utility.yul\":12373:12397   */\n      tag_108\n      jump\t// in\n    tag_246:\n        /* \"#utility.yul\":12364:12398   */\n      tag_109\n      jump\t// in\n    tag_245:\n        /* \"#utility.yul\":12346:12399   */\n      tag_108\n      jump\t// in\n    tag_244:\n        /* \"#utility.yul\":12333:12399   */\n      swap1\n      pop\n        /* \"#utility.yul\":12263:12405   */\n      swap2\n      swap1\n      pop\n      jump\t// out\n        /* \"#utility.yul\":12411:12486   */\n    tag_111:\n        /* \"#utility.yul\":12454:12457   */\n      0x00\n        /* \"#utility.yul\":12475:12480   */\n      dup2\n        /* \"#utility.yul\":12468:12480   */\n      swap1\n      pop\n        /* \"#utility.yul\":12411:12486   */\n      swap2\n      swap1\n      pop\n      jump\t// out\n        /* \"#utility.yul\":12492:12761   */\n    tag_112:\n        /* \"#utility.yul\":12602:12641   */\n      tag_249\n        /* \"#utility.yul\":12633:12640   */\n      dup4\n        /* \"#utility.yul\":12602:12641   */\n      tag_110\n      jump\t// in\n    tag_249:\n        /* \"#utility.yul\":12663:12754   */\n      tag_250\n        /* \"#utility.yul\":12712:12753   */\n      tag_251\n        /* \"#utility.yul\":12736:12752   */\n      dup3\n        /* \"#utility.yul\":12712:12753   */\n      tag_111\n      jump\t// in\n    tag_251:\n        /* \"#utility.yul\":12704:12710   */\n      dup5\n        /* \"#utility.yul\":12697:12701   */\n      dup5\n        /* \"#utility.yul\":12691:12702   */\n      sload\n        /* \"#utility.yul\":12663:12754   */\n      tag_107\n      jump\t// in\n    tag_250:\n        /* \"#utility.yul\":12657:12661   */\n      dup3\n        /* \"#utility.yul\":12650:12755   */\n      sstore\n        /* \"#utility.yul\":12568:12761   */\n      pop\n        /* \"#utility.yul\":12492:12761   */\n      pop\n      pop\n      pop\n      jump\t// out\n        /* \"#utility.yul\":12767:12840   */\n    tag_113:\n        /* \"#utility.yul\":12812:12815   */\n      0x00\n        /* \"#utility.yul\":12767:12840   */\n      swap1\n      jump\t// out\n        /* \"#utility.yul\":12846:13035   */\n    tag_114:\n        /* \"#utility.yul\":12923:12955   */\n      tag_254\n      tag_113\n      jump\t// in\n    tag_254:\n        /* \"#utility.yul\":12964:13029   */\n      tag_255\n        /* \"#utility.yul\":13022:13028   */\n      dup2\n        /* \"#utility.yul\":13014:13020   */\n      dup5\n        /* \"#utility.yul\":13008:13012   */\n      dup5\n        /* \"#utility.yul\":12964:13029   */\n      tag_112\n      jump\t// in\n    tag_255:\n        /* \"#utility.yul\":12899:13035   */\n      pop\n        /* \"#utility.yul\":12846:13035   */\n      pop\n      pop\n      jump\t// out\n        /* \"#utility.yul\":13041:13227   */\n    tag_115:\n        /* \"#utility.yul\":13101:13221   */\n    tag_257:\n        /* \"#utility.yul\":13118:13121   */\n      dup2\n        /* \"#utility.yul\":13111:13116   */\n      dup2\n        /* \"#utility.yul\":13108:13122   */\n      lt\n        /* \"#utility.yul\":13101:13221   */\n      iszero\n      tag_259\n      jumpi\n        /* \"#utility.yul\":13172:13211   */\n      tag_260\n        /* \"#utility.yul\":13209:13210   */\n      0x00\n        /* \"#utility.yul\":13202:13207   */\n      dup3\n        /* \"#utility.yul\":13172:13211   */\n      tag_114\n      jump\t// in\n    tag_260:\n        /* \"#utility.yul\":13145:13146   */\n      0x01\n        /* \"#utility.yul\":13138:13143   */\n      dup2\n        /* \"#utility.yul\":13134:13147   */\n      add\n        /* \"#utility.yul\":13125:13147   */\n      swap1\n      pop\n        /* \"#utility.yul\":13101:13221   */\n      jump(tag_257)\n    tag_259:\n        /* \"#utility.yul\":13041:13227   */\n      pop\n      pop\n      jump\t// out\n        /* \"#utility.yul\":13233:13776   */\n    tag_116:\n        /* \"#utility.yul\":13334:13336   */\n      0x1f\n        /* \"#utility.yul\":13329:13332   */\n      dup3\n        /* \"#utility.yul\":13326:13337   */\n      gt\n        /* \"#utility.yul\":13323:13769   */\n      iszero\n      tag_262\n      jumpi\n        /* \"#utility.yul\":13368:13406   */\n      tag_263\n        /* \"#utility.yul\":13400:13405   */\n      dup2\n        /* \"#utility.yul\":13368:13406   */\n      tag_104\n      jump\t// in\n    tag_263:\n        /* \"#utility.yul\":13452:13481   */\n      tag_264\n        /* \"#utility.yul\":13470:13480   */\n      dup5\n        /* \"#utility.yul\":13452:13481   */\n      tag_105\n      jump\t// in\n    tag_264:\n        /* \"#utility.yul\":13442:13450   */\n      dup2\n        /* \"#utility.yul\":13438:13482   */\n      add\n        /* \"#utility.yul\":13635:13637   */\n      0x20\n        /* \"#utility.yul\":13623:13633   */\n      dup6\n        /* \"#utility.yul\":13620:13638   */\n      lt\n        /* \"#utility.yul\":13617:13666   */\n      iszero\n      tag_265\n      jumpi\n        /* \"#utility.yul\":13656:13664   */\n      dup2\n        /* \"#utility.yul\":13641:13664   */\n      swap1\n      pop\n        /* \"#utility.yul\":13617:13666   */\n    tag_265:\n        /* \"#utility.yul\":13679:13759   */\n      tag_266\n        /* \"#utility.yul\":13735:13757   */\n      tag_267\n        /* \"#utility.yul\":13753:13756   */\n      dup6\n        /* \"#utility.yul\":13735:13757   */\n      tag_105\n      jump\t// in\n    tag_267:\n        /* \"#utility.yul\":13725:13733   */\n      dup4\n        /* \"#utility.yul\":13721:13758   */\n      add\n        /* \"#utility.yul\":13708:13719   */\n      dup3\n        /* \"#utility.yul\":13679:13759   */\n      tag_115\n      jump\t// in\n    tag_266:\n        /* \"#utility.yul\":13338:13769   */\n      pop\n      pop\n        /* \"#utility.yul\":13323:13769   */\n    tag_262:\n        /* \"#utility.yul\":13233:13776   */\n      pop\n      pop\n      pop\n      jump\t// out\n        /* \"#utility.yul\":13782:13899   */\n    tag_117:\n        /* \"#utility.yul\":13836:13844   */\n      0x00\n        /* \"#utility.yul\":13886:13891   */\n      dup3\n        /* \"#utility.yul\":13880:13884   */\n      dup3\n        /* \"#utility.yul\":13876:13892   */\n      shr\n        /* \"#utility.yul\":13855:13892   */\n      swap1\n      pop\n        /* \"#utility.yul\":13782:13899   */\n      swap3\n      swap2\n      pop\n      pop\n      jump\t// out\n        /* \"#utility.yul\":13905:14074   */\n    tag_118:\n        /* \"#utility.yul\":13949:13955   */\n      0x00\n        /* \"#utility.yul\":13982:14033   */\n      tag_270\n        /* \"#utility.yul\":14030:14031   */\n      0x00\n        /* \"#utility.yul\":14026:14032   */\n      not\n        /* \"#utility.yul\":14018:14023   */\n      dup5\n        /* \"#utility.yul\":14015:14016   */\n      0x08\n        /* \"#utility.yul\":14011:14024   */\n      mul\n        /* \"#utility.yul\":13982:14033   */\n      tag_117\n      jump\t// in\n    tag_270:\n        /* \"#utility.yul\":13978:14034   */\n      not\n        /* \"#utility.yul\":14063:14067   */\n      dup1\n        /* \"#utility.yul\":14057:14061   */\n      dup4\n        /* \"#utility.yul\":14053:14068   */\n      and\n        /* \"#utility.yul\":14043:14068   */\n      swap2\n      pop\n        /* \"#utility.yul\":13956:14074   */\n      pop\n        /* \"#utility.yul\":13905:14074   */\n      swap3\n      swap2\n      pop\n      pop\n      jump\t// out\n        /* \"#utility.yul\":14079:14374   */\n    tag_119:\n        /* \"#utility.yul\":14155:14159   */\n      0x00\n        /* \"#utility.yul\":14301:14330   */\n      tag_272\n        /* \"#utility.yul\":14326:14329   */\n      dup4\n        /* \"#utility.yul\":14320:14324   */\n      dup4\n        /* \"#utility.yul\":14301:14330   */\n      tag_118\n      jump\t// in\n    tag_272:\n        /* \"#utility.yul\":14293:14330   */\n      swap2\n      pop\n        /* \"#utility.yul\":14363:14366   */\n      dup3\n        /* \"#utility.yul\":14360:14361   */\n      0x02\n        /* \"#utility.yul\":14356:14367   */\n      mul\n        /* \"#utility.yul\":14350:14354   */\n      dup3\n        /* \"#utility.yul\":14347:14368   */\n      or\n        /* \"#utility.yul\":14339:14368   */\n      swap1\n      pop\n        /* \"#utility.yul\":14079:14374   */\n      swap3\n      swap2\n      pop\n      pop\n      jump\t// out\n        /* \"#utility.yul\":14379:15774   */\n    tag_65:\n        /* \"#utility.yul\":14496:14533   */\n      tag_274\n        /* \"#utility.yul\":14529:14532   */\n      dup3\n        /* \"#utility.yul\":14496:14533   */\n      tag_78\n      jump\t// in\n    tag_274:\n        /* \"#utility.yul\":14598:14616   */\n      0xffffffffffffffff\n        /* \"#utility.yul\":14590:14596   */\n      dup2\n        /* \"#utility.yul\":14587:14617   */\n      gt\n        /* \"#utility.yul\":14584:14640   */\n      iszero\n      tag_275\n      jumpi\n        /* \"#utility.yul\":14620:14638   */\n      tag_276\n      tag_92\n      jump\t// in\n    tag_276:\n        /* \"#utility.yul\":14584:14640   */\n    tag_275:\n        /* \"#utility.yul\":14664:14702   */\n      tag_277\n        /* \"#utility.yul\":14696:14700   */\n      dup3\n        /* \"#utility.yul\":14690:14701   */\n      sload\n        /* \"#utility.yul\":14664:14702   */\n      tag_43\n      jump\t// in\n    tag_277:\n        /* \"#utility.yul\":14749:14816   */\n      tag_278\n        /* \"#utility.yul\":14809:14815   */\n      dup3\n        /* \"#utility.yul\":14801:14807   */\n      dup3\n        /* \"#utility.yul\":14795:14799   */\n      dup6\n        /* \"#utility.yul\":14749:14816   */\n      tag_116\n      jump\t// in\n    tag_278:\n        /* \"#utility.yul\":14843:14844   */\n      0x00\n        /* \"#utility.yul\":14867:14871   */\n      0x20\n        /* \"#utility.yul\":14854:14871   */\n      swap1\n      pop\n        /* \"#utility.yul\":14899:14901   */\n      0x1f\n        /* \"#utility.yul\":14891:14897   */\n      dup4\n        /* \"#utility.yul\":14888:14902   */\n      gt\n        /* \"#utility.yul\":14916:14917   */\n      0x01\n        /* \"#utility.yul\":14911:15529   */\n      dup2\n      eq\n      tag_280\n      jumpi\n        /* \"#utility.yul\":15573:15574   */\n      0x00\n        /* \"#utility.yul\":15590:15596   */\n      dup5\n        /* \"#utility.yul\":15587:15664   */\n      iszero\n      tag_281\n      jumpi\n        /* \"#utility.yul\":15639:15648   */\n      dup3\n        /* \"#utility.yul\":15634:15637   */\n      dup8\n        /* \"#utility.yul\":15630:15649   */\n      add\n        /* \"#utility.yul\":15624:15650   */\n      mload\n        /* \"#utility.yul\":15615:15650   */\n      swap1\n      pop\n        /* \"#utility.yul\":15587:15664   */\n    tag_281:\n        /* \"#utility.yul\":15690:15757   */\n      tag_282\n        /* \"#utility.yul\":15750:15756   */\n      dup6\n        /* \"#utility.yul\":15743:15748   */\n      dup3\n        /* \"#utility.yul\":15690:15757   */\n      tag_119\n      jump\t// in\n    tag_282:\n        /* \"#utility.yul\":15684:15688   */\n      dup7\n        /* \"#utility.yul\":15677:15758   */\n      sstore\n        /* \"#utility.yul\":15546:15768   */\n      pop\n        /* \"#utility.yul\":14881:15768   */\n      jump(tag_279)\n        /* \"#utility.yul\":14911:15529   */\n    tag_280:\n        /* \"#utility.yul\":14963:14967   */\n      0x1f\n        /* \"#utility.yul\":14959:14968   */\n      not\n        /* \"#utility.yul\":14951:14957   */\n      dup5\n        /* \"#utility.yul\":14947:14969   */\n      and\n        /* \"#utility.yul\":14997:15034   */\n      tag_283\n        /* \"#utility.yul\":15029:15033   */\n      dup7\n        /* \"#utility.yul\":14997:15034   */\n      tag_104\n      jump\t// in\n    tag_283:\n        /* \"#utility.yul\":15056:15057   */\n      0x00\n        /* \"#utility.yul\":15070:15278   */\n    tag_284:\n        /* \"#utility.yul\":15084:15091   */\n      dup3\n        /* \"#utility.yul\":15081:15082   */\n      dup2\n        /* \"#utility.yul\":15078:15092   */\n      lt\n        /* \"#utility.yul\":15070:15278   */\n      iszero\n      tag_286\n      jumpi\n        /* \"#utility.yul\":15163:15172   */\n      dup5\n        /* \"#utility.yul\":15158:15161   */\n      dup10\n        /* \"#utility.yul\":15154:15173   */\n      add\n        /* \"#utility.yul\":15148:15174   */\n      mload\n        /* \"#utility.yul\":15140:15146   */\n      dup3\n        /* \"#utility.yul\":15133:15175   */\n      sstore\n        /* \"#utility.yul\":15214:15215   */\n      0x01\n        /* \"#utility.yul\":15206:15212   */\n      dup3\n        /* \"#utility.yul\":15202:15216   */\n      add\n        /* \"#utility.yul\":15192:15216   */\n      swap2\n      pop\n        /* \"#utility.yul\":15261:15263   */\n      0x20\n        /* \"#utility.yul\":15250:15259   */\n      dup6\n        /* \"#utility.yul\":15246:15264   */\n      add\n        /* \"#utility.yul\":15233:15264   */\n      swap5\n      pop\n        /* \"#utility.yul\":15107:15111   */\n      0x20\n        /* \"#utility.yul\":15104:15105   */\n      dup2\n        /* \"#utility.yul\":15100:15112   */\n      add\n        /* \"#utility.yul\":15095:15112   */\n      swap1\n      pop\n        /* \"#utility.yul\":15070:15278   */\n      jump(tag_284)\n    tag_286:\n        /* \"#utility.yul\":15306:15312   */\n      dup7\n        /* \"#utility.yul\":15297:15304   */\n      dup4\n        /* \"#utility.yul\":15294:15313   */\n      lt\n        /* \"#utility.yul\":15291:15470   */\n      iszero\n      tag_287\n      jumpi\n        /* \"#utility.yul\":15364:15373   */\n      dup5\n        /* \"#utility.yul\":15359:15362   */\n      dup10\n        /* \"#utility.yul\":15355:15374   */\n      add\n        /* \"#utility.yul\":15349:15375   */\n      mload\n        /* \"#utility.yul\":15407:15455   */\n      tag_288\n        /* \"#utility.yul\":15449:15453   */\n      0x1f\n        /* \"#utility.yul\":15441:15447   */\n      dup10\n        /* \"#utility.yul\":15437:15454   */\n      and\n        /* \"#utility.yul\":15426:15435   */\n      dup3\n        /* \"#utility.yul\":15407:15455   */\n      tag_118\n      jump\t// in\n    tag_288:\n        /* \"#utility.yul\":15399:15405   */\n      dup4\n        /* \"#utility.yul\":15392:15456   */\n      sstore\n        /* \"#utility.yul\":15314:15470   */\n      pop\n        /* \"#utility.yul\":15291:15470   */\n    tag_287:\n        /* \"#utility.yul\":15516:15517   */\n      0x01\n        /* \"#utility.yul\":15512:15513   */\n      0x02\n        /* \"#utility.yul\":15504:15510   */\n      dup9\n        /* \"#utility.yul\":15500:15514   */\n      mul\n        /* \"#utility.yul\":15496:15518   */\n      add\n        /* \"#utility.yul\":15490:15494   */\n      dup9\n        /* \"#utility.yul\":15483:15519   */\n      sstore\n        /* \"#utility.yul\":14918:15529   */\n      pop\n      pop\n      pop\n        /* \"#utility.yul\":14881:15768   */\n    tag_279:\n      pop\n        /* \"#utility.yul\":14471:15774   */\n      pop\n      pop\n      pop\n        /* \"#utility.yul\":14379:15774   */\n      pop\n      pop\n      jump\t// out\n        /* \"#utility.yul\":15780:16093   */\n    tag_67:\n        /* \"#utility.yul\":15893:15897   */\n      0x00\n        /* \"#utility.yul\":15931:15933   */\n      0x20\n        /* \"#utility.yul\":15920:15929   */\n      dup3\n        /* \"#utility.yul\":15916:15934   */\n      add\n        /* \"#utility.yul\":15908:15934   */\n      swap1\n      pop\n        /* \"#utility.yul\":15980:15989   */\n      dup2\n        /* \"#utility.yul\":15974:15978   */\n      dup2\n        /* \"#utility.yul\":15970:15990   */\n      sub\n        /* \"#utility.yul\":15966:15967   */\n      0x00\n        /* \"#utility.yul\":15955:15964   */\n      dup4\n        /* \"#utility.yul\":15951:15968   */\n      add\n        /* \"#utility.yul\":15944:15991   */\n      mstore\n        /* \"#utility.yul\":16008:16086   */\n      tag_290\n        /* \"#utility.yul\":16081:16085   */\n      dup2\n        /* \"#utility.yul\":16072:16078   */\n      dup5\n        /* \"#utility.yul\":16008:16086   */\n      tag_82\n      jump\t// in\n    tag_290:\n        /* \"#utility.yul\":16000:16086   */\n      swap1\n      pop\n        /* \"#utility.yul\":15780:16093   */\n      swap3\n      swap2\n      pop\n      pop\n      jump\t// out\n\n    auxdata: 0xa2646970667358221220ed4cd54cff9b8a9609838f981ae10390395d3272b4348de7442d37ed31ff71d264736f6c63430008160033\n}\n",
				"bytecode": {
					"linkReferences": {},
					"object": "608060405234801561000f575f80fd5b506110fa8061001d5f395ff3fe608060405234801561000f575f80fd5b5060043610610060575f3560e01c80631fb1ae5a1461006457806327e30c361461008057806329116087146100b3578063317ac79b146100e3578063506ce06614610113578063e538109a14610143575b5f80fd5b61007e60048036038101906100799190610935565b61015f565b005b61009a60048036038101906100959190610973565b610294565b6040516100aa9493929190610a46565b60405180910390f35b6100cd60048036038101906100c89190610973565b61037e565b6040516100da9190610a90565b60405180910390f35b6100fd60048036038101906100f89190610973565b6103d3565b60405161010a9190610a90565b60405180910390f35b61012d60048036038101906101289190610973565b610428565b60405161013a9190610b6f565b60405180910390f35b61015d60048036038101906101589190610cbb565b610624565b005b5f808373ffffffffffffffffffffffffffffffffffffffff1673ffffffffffffffffffffffffffffffffffffffff1681526020019081526020015f2060010160149054906101000a900460ff166101eb576040517f08c379a00000000000000000000000000000000000000000000000000000000081526004016101e290610d4c565b60405180910390fd5b805f808473ffffffffffffffffffffffffffffffffffffffff1673ffffffffffffffffffffffffffffffffffffffff1681526020019081526020015f2060010160156101000a81548160ff0219169083151502179055508173ffffffffffffffffffffffffffffffffffffffff167fb69ae854f1647f491c551e39d9a4a2b0608f6d7bc4fa128ad73c80c0148bf9b4826040516102889190610a90565b60405180910390a25050565b5f602052805f5260405f205f91509050805f0180546102b290610d97565b80601f01602080910402602001604051908101604052809291908181526020018280546102de90610d97565b80156103295780601f1061030057610100808354040283529160200191610329565b820191905f5260205f20905b81548152906001019060200180831161030c57829003601f168201915b505050505090806001015f9054906101000a900473ffffffffffffffffffffffffffffffffffffffff16908060010160149054906101000a900460ff16908060010160159054906101000a900460ff16905084565b5f805f8373ffffffffffffffffffffffffffffffffffffffff1673ffffffffffffffffffffffffffffffffffffffff1681526020019081526020015f2060010160149054906101000a900460ff169050919050565b5f805f8373ffffffffffffffffffffffffffffffffffffffff1673ffffffffffffffffffffffffffffffffffffffff1681526020019081526020015f2060010160159054906101000a900460ff169050919050565b610430610856565b5f808373ffffffffffffffffffffffffffffffffffffffff1673ffffffffffffffffffffffffffffffffffffffff1681526020019081526020015f2060010160149054906101000a900460ff166104bc576040517f08c379a00000000000000000000000000000000000000000000000000000000081526004016104b390610d4c565b60405180910390fd5b5f808373ffffffffffffffffffffffffffffffffffffffff1673ffffffffffffffffffffffffffffffffffffffff1681526020019081526020015f206040518060800160405290815f8201805461051290610d97565b80601f016020809104026020016040519081016040528092919081815260200182805461053e90610d97565b80156105895780601f1061056057610100808354040283529160200191610589565b820191905f5260205f20905b81548152906001019060200180831161056c57829003601f168201915b50505050508152602001600182015f9054906101000a900473ffffffffffffffffffffffffffffffffffffffff1673ffffffffffffffffffffffffffffffffffffffff1673ffffffffffffffffffffffffffffffffffffffff1681526020016001820160149054906101000a900460ff161515151581526020016001820160159054906101000a900460ff1615151515815250509050919050565b5f73ffffffffffffffffffffffffffffffffffffffff165f803373ffffffffffffffffffffffffffffffffffffffff1673ffffffffffffffffffffffffffffffffffffffff1681526020019081526020015f206001015f9054906101000a900473ffffffffffffffffffffffffffffffffffffffff1673ffffffffffffffffffffffffffffffffffffffff16146106f0576040517f08c379a00000000000000000000000000000000000000000000000000000000081526004016106e790610e11565b60405180910390fd5b60405180608001604052808281526020013373ffffffffffffffffffffffffffffffffffffffff1681526020016001151581526020015f15158152505f803373ffffffffffffffffffffffffffffffffffffffff1673ffffffffffffffffffffffffffffffffffffffff1681526020019081526020015f205f820151815f01908161077b9190610fd5565b506020820151816001015f6101000a81548173ffffffffffffffffffffffffffffffffffffffff021916908373ffffffffffffffffffffffffffffffffffffffff16021790555060408201518160010160146101000a81548160ff02191690831515021790555060608201518160010160156101000a81548160ff0219169083151502179055509050503373ffffffffffffffffffffffffffffffffffffffff167f85b62d42045862192f9e1f971fcb74803cb7ce2635b0dd91716f738bafcb32c68260405161084b91906110a4565b60405180910390a250565b6040518060800160405280606081526020015f73ffffffffffffffffffffffffffffffffffffffff1681526020015f151581526020015f151581525090565b5f604051905090565b5f80fd5b5f80fd5b5f73ffffffffffffffffffffffffffffffffffffffff82169050919050565b5f6108cf826108a6565b9050919050565b6108df816108c5565b81146108e9575f80fd5b50565b5f813590506108fa816108d6565b92915050565b5f8115159050919050565b61091481610900565b811461091e575f80fd5b50565b5f8135905061092f8161090b565b92915050565b5f806040838503121561094b5761094a61089e565b5b5f610958858286016108ec565b925050602061096985828601610921565b9150509250929050565b5f602082840312156109885761098761089e565b5b5f610995848285016108ec565b91505092915050565b5f81519050919050565b5f82825260208201905092915050565b5f5b838110156109d55780820151818401526020810190506109ba565b5f8484015250505050565b5f601f19601f8301169050919050565b5f6109fa8261099e565b610a0481856109a8565b9350610a148185602086016109b8565b610a1d816109e0565b840191505092915050565b610a31816108c5565b82525050565b610a4081610900565b82525050565b5f6080820190508181035f830152610a5e81876109f0565b9050610a6d6020830186610a28565b610a7a6040830185610a37565b610a876060830184610a37565b95945050505050565b5f602082019050610aa35f830184610a37565b92915050565b5f82825260208201905092915050565b5f610ac38261099e565b610acd8185610aa9565b9350610add8185602086016109b8565b610ae6816109e0565b840191505092915050565b610afa816108c5565b82525050565b610b0981610900565b82525050565b5f608083015f8301518482035f860152610b298282610ab9565b9150506020830151610b3e6020860182610af1565b506040830151610b516040860182610b00565b506060830151610b646060860182610b00565b508091505092915050565b5f6020820190508181035f830152610b878184610b0f565b905092915050565b5f80fd5b5f80fd5b7f4e487b71000000000000000000000000000000000000000000000000000000005f52604160045260245ffd5b610bcd826109e0565b810181811067ffffffffffffffff82111715610bec57610beb610b97565b5b80604052505050565b5f610bfe610895565b9050610c0a8282610bc4565b919050565b5f67ffffffffffffffff821115610c2957610c28610b97565b5b610c32826109e0565b9050602081019050919050565b828183375f83830152505050565b5f610c5f610c5a84610c0f565b610bf5565b905082815260208101848484011115610c7b57610c7a610b93565b5b610c86848285610c3f565b509392505050565b5f82601f830112610ca257610ca1610b8f565b5b8135610cb2848260208601610c4d565b91505092915050565b5f60208284031215610cd057610ccf61089e565b5b5f82013567ffffffffffffffff811115610ced57610cec6108a2565b5b610cf984828501610c8e565b91505092915050565b7f56656e646f72206e6f74207265676973746572656400000000000000000000005f82015250565b5f610d366015836109a8565b9150610d4182610d02565b602082019050919050565b5f6020820190508181035f830152610d6381610d2a565b9050919050565b7f4e487b71000000000000000000000000000000000000000000000000000000005f52602260045260245ffd5b5f6002820490506001821680610dae57607f821691505b602082108103610dc157610dc0610d6a565b5b50919050565b7f56656e646f7220616c72656164792072656769737465726564000000000000005f82015250565b5f610dfb6019836109a8565b9150610e0682610dc7565b602082019050919050565b5f6020820190508181035f830152610e2881610def565b9050919050565b5f819050815f5260205f209050919050565b5f6020601f8301049050919050565b5f82821b905092915050565b5f60088302610e8b7fffffffffffffffffffffffffffffffffffffffffffffffffffffffffffffffff82610e50565b610e958683610e50565b95508019841693508086168417925050509392505050565b5f819050919050565b5f819050919050565b5f610ed9610ed4610ecf84610ead565b610eb6565b610ead565b9050919050565b5f819050919050565b610ef283610ebf565b610f06610efe82610ee0565b848454610e5c565b825550505050565b5f90565b610f1a610f0e565b610f25818484610ee9565b505050565b5b81811015610f4857610f3d5f82610f12565b600181019050610f2b565b5050565b601f821115610f8d57610f5e81610e2f565b610f6784610e41565b81016020851015610f76578190505b610f8a610f8285610e41565b830182610f2a565b50505b505050565b5f82821c905092915050565b5f610fad5f1984600802610f92565b1980831691505092915050565b5f610fc58383610f9e565b9150826002028217905092915050565b610fde8261099e565b67ffffffffffffffff811115610ff757610ff6610b97565b5b6110018254610d97565b61100c828285610f4c565b5f60209050601f83116001811461103d575f841561102b578287015190505b6110358582610fba565b86555061109c565b601f19841661104b86610e2f565b5f5b828110156110725784890151825560018201915060208501945060208101905061104d565b8683101561108f578489015161108b601f891682610f9e565b8355505b6001600288020188555050505b505050505050565b5f6020820190508181035f8301526110bc81846109f0565b90509291505056fea2646970667358221220ed4cd54cff9b8a9609838f981ae10390395d3272b4348de7442d37ed31ff71d264736f6c63430008160033",
					"opcodes": "PUSH1 0x80 PUSH1 0x40 MSTORE CALLVALUE DUP1 ISZERO PUSH2 0xF JUMPI PUSH0 DUP1 REVERT JUMPDEST POP PUSH2 0x10FA DUP1 PUSH2 0x1D PUSH0 CODECOPY PUSH0 RETURN INVALID PUSH1 0x80 PUSH1 0x40 MSTORE CALLVALUE DUP1 ISZERO PUSH2 0xF JUMPI PUSH0 DUP1 REVERT JUMPDEST POP PUSH1 0x4 CALLDATASIZE LT PUSH2 0x60 JUMPI PUSH0 CALLDATALOAD PUSH1 0xE0 SHR DUP1 PUSH4 0x1FB1AE5A EQ PUSH2 0x64 JUMPI DUP1 PUSH4 0x27E30C36 EQ PUSH2 0x80 JUMPI DUP1 PUSH4 0x29116087 EQ PUSH2 0xB3 JUMPI DUP1 PUSH4 0x317AC79B EQ PUSH2 0xE3 JUMPI DUP1 PUSH4 0x506CE066 EQ PUSH2 0x113 JUMPI DUP1 PUSH4 0xE538109A EQ PUSH2 0x143 JUMPI JUMPDEST PUSH0 DUP1 REVERT JUMPDEST PUSH2 0x7E PUSH1 0x4 DUP1 CALLDATASIZE SUB DUP2 ADD SWAP1 PUSH2 0x79 SWAP2 SWAP1 PUSH2 0x935 JUMP JUMPDEST PUSH2 0x15F JUMP JUMPDEST STOP JUMPDEST PUSH2 0x9A PUSH1 0x4 DUP1 CALLDATASIZE SUB DUP2 ADD SWAP1 PUSH2 0x95 SWAP2 SWAP1 PUSH2 0x973 JUMP JUMPDEST PUSH2 0x294 JUMP JUMPDEST PUSH1 0x40 MLOAD PUSH2 0xAA SWAP5 SWAP4 SWAP3 SWAP2 SWAP1 PUSH2 0xA46 JUMP JUMPDEST PUSH1 0x40 MLOAD DUP1 SWAP2 SUB SWAP1 RETURN JUMPDEST PUSH2 0xCD PUSH1 0x4 DUP1 CALLDATASIZE SUB DUP2 ADD SWAP1 PUSH2 0xC8 SWAP2 SWAP1 PUSH2 0x973 JUMP JUMPDEST PUSH2 0x37E JUMP JUMPDEST PUSH1 0x40 MLOAD PUSH2 0xDA SWAP2 SWAP1 PUSH2 0xA90 JUMP JUMPDEST PUSH1 0x40 MLOAD DUP1 SWAP2 SUB SWAP1 RETURN JUMPDEST PUSH2 0xFD PUSH1 0x4 DUP1 CALLDATASIZE SUB DUP2 ADD SWAP1 PUSH2 0xF8 SWAP2 SWAP1 PUSH2 0x973 JUMP JUMPDEST PUSH2 0x3D3 JUMP JUMPDEST PUSH1 0x40 MLOAD PUSH2 0x10A SWAP2 SWAP1 PUSH2 0xA90 JUMP JUMPDEST PUSH1 0x40 MLOAD DUP1 SWAP2 SUB SWAP1 RETURN JUMPDEST PUSH2 0x12D PUSH1 0x4 DUP1 CALLDATASIZE SUB DUP2 ADD SWAP1 PUSH2 0x128 SWAP2 SWAP1 PUSH2 0x973 JUMP JUMPDEST PUSH2 0x428 JUMP JUMPDEST PUSH1 0x40 MLOAD PUSH2 0x13A SWAP2 SWAP1 PUSH2 0xB6F JUMP JUMPDEST PUSH1 0x40 MLOAD DUP1 SWAP2 SUB SWAP1 RETURN JUMPDEST PUSH2 0x15D PUSH1 0x4 DUP1 CALLDATASIZE SUB DUP2 ADD SWAP1 PUSH2 0x158 SWAP2 SWAP1 PUSH2 0xCBB JUMP JUMPDEST PUSH2 0x624 JUMP JUMPDEST STOP JUMPDEST PUSH0 DUP1 DUP4 PUSH20 0xFFFFFFFFFFFFFFFFFFFFFFFFFFFFFFFFFFFFFFFF AND PUSH20 0xFFFFFFFFFFFFFFFFFFFFFFFFFFFFFFFFFFFFFFFF AND DUP2 MSTORE PUSH1 0x20 ADD SWAP1 DUP2 MSTORE PUSH1 0x20 ADD PUSH0 KECCAK256 PUSH1 0x1 ADD PUSH1 0x14 SWAP1 SLOAD SWAP1 PUSH2 0x100 EXP SWAP1 DIV PUSH1 0xFF AND PUSH2 0x1EB JUMPI PUSH1 0x40 MLOAD PUSH32 0x8C379A000000000000000000000000000000000000000000000000000000000 DUP2 MSTORE PUSH1 0x4 ADD PUSH2 0x1E2 SWAP1 PUSH2 0xD4C JUMP JUMPDEST PUSH1 0x40 MLOAD DUP1 SWAP2 SUB SWAP1 REVERT JUMPDEST DUP1 PUSH0 DUP1 DUP5 PUSH20 0xFFFFFFFFFFFFFFFFFFFFFFFFFFFFFFFFFFFFFFFF AND PUSH20 0xFFFFFFFFFFFFFFFFFFFFFFFFFFFFFFFFFFFFFFFF AND DUP2 MSTORE PUSH1 0x20 ADD SWAP1 DUP2 MSTORE PUSH1 0x20 ADD PUSH0 KECCAK256 PUSH1 0x1 ADD PUSH1 0x15 PUSH2 0x100 EXP DUP2 SLOAD DUP2 PUSH1 0xFF MUL NOT AND SWAP1 DUP4 ISZERO ISZERO MUL OR SWAP1 SSTORE POP DUP2 PUSH20 0xFFFFFFFFFFFFFFFFFFFFFFFFFFFFFFFFFFFFFFFF AND PUSH32 0xB69AE854F1647F491C551E39D9A4A2B0608F6D7BC4FA128AD73C80C0148BF9B4 DUP3 PUSH1 0x40 MLOAD PUSH2 0x288 SWAP2 SWAP1 PUSH2 0xA90 JUMP JUMPDEST PUSH1 0x40 MLOAD DUP1 SWAP2 SUB SWAP1 LOG2 POP POP JUMP JUMPDEST PUSH0 PUSH1 0x20 MSTORE DUP1 PUSH0 MSTORE PUSH1 0x40 PUSH0 KECCAK256 PUSH0 SWAP2 POP SWAP1 POP DUP1 PUSH0 ADD DUP1 SLOAD PUSH2 0x2B2 SWAP1 PUSH2 0xD97 JUMP JUMPDEST DUP1 PUSH1 0x1F ADD PUSH1 0x20 DUP1 SWAP2 DIV MUL PUSH1 0x20 ADD PUSH1 0x40 MLOAD SWAP1 DUP2 ADD PUSH1 0x40 MSTORE DUP1 SWAP3 SWAP2 SWAP1 DUP2 DUP2 MSTORE PUSH1 0x20 ADD DUP3 DUP1 SLOAD PUSH2 0x2DE SWAP1 PUSH2 0xD97 JUMP JUMPDEST DUP1 ISZERO PUSH2 0x329 JUMPI DUP1 PUSH1 0x1F LT PUSH2 0x300 JUMPI PUSH2 0x100 DUP1 DUP4 SLOAD DIV MUL DUP4 MSTORE SWAP2 PUSH1 0x20 ADD SWAP2 PUSH2 0x329 JUMP JUMPDEST DUP3 ADD SWAP2 SWAP1 PUSH0 MSTORE PUSH1 0x20 PUSH0 KECCAK256 SWAP1 JUMPDEST DUP2 SLOAD DUP2 MSTORE SWAP1 PUSH1 0x1 ADD SWAP1 PUSH1 0x20 ADD DUP1 DUP4 GT PUSH2 0x30C JUMPI DUP3 SWAP1 SUB PUSH1 0x1F AND DUP3 ADD SWAP2 JUMPDEST POP POP POP POP POP SWAP1 DUP1 PUSH1 0x1 ADD PUSH0 SWAP1 SLOAD SWAP1 PUSH2 0x100 EXP SWAP1 DIV PUSH20 0xFFFFFFFFFFFFFFFFFFFFFFFFFFFFFFFFFFFFFFFF AND SWAP1 DUP1 PUSH1 0x1 ADD PUSH1 0x14 SWAP1 SLOAD SWAP1 PUSH2 0x100 EXP SWAP1 DIV PUSH1 0xFF AND SWAP1 DUP1 PUSH1 0x1 ADD PUSH1 0x15 SWAP1 SLOAD SWAP1 PUSH2 0x100 EXP SWAP1 DIV PUSH1 0xFF AND SWAP1 POP DUP5 JUMP JUMPDEST PUSH0 DUP1 PUSH0 DUP4 PUSH20 0xFFFFFFFFFFFFFFFFFFFFFFFFFFFFFFFFFFFFFFFF AND PUSH20 0xFFFFFFFFFFFFFFFFFFFFFFFFFFFFFFFFFFFFFFFF AND DUP2 MSTORE PUSH1 0x20 ADD SWAP1 DUP2 MSTORE PUSH1 0x20 ADD PUSH0 KECCAK256 PUSH1 0x1 ADD PUSH1 0x14 SWAP1 SLOAD SWAP1 PUSH2 0x100 EXP SWAP1 DIV PUSH1 0xFF AND SWAP1 POP SWAP2 SWAP1 POP JUMP JUMPDEST PUSH0 DUP1 PUSH0 DUP4 PUSH20 0xFFFFFFFFFFFFFFFFFFFFFFFFFFFFFFFFFFFFFFFF AND PUSH20 0xFFFFFFFFFFFFFFFFFFFFFFFFFFFFFFFFFFFFFFFF AND DUP2 MSTORE PUSH1 0x20 ADD SWAP1 DUP2 MSTORE PUSH1 0x20 ADD PUSH0 KECCAK256 PUSH1 0x1 ADD PUSH1 0x15 SWAP1 SLOAD SWAP1 PUSH2 0x100 EXP SWAP1 DIV PUSH1 0xFF AND SWAP1 POP SWAP2 SWAP1 POP JUMP JUMPDEST PUSH2 0x430 PUSH2 0x856 JUMP JUMPDEST PUSH0 DUP1 DUP4 PUSH20 0xFFFFFFFFFFFFFFFFFFFFFFFFFFFFFFFFFFFFFFFF AND PUSH20 0xFFFFFFFFFFFFFFFFFFFFFFFFFFFFFFFFFFFFFFFF AND DUP2 MSTORE PUSH1 0x20 ADD SWAP1 DUP2 MSTORE PUSH1 0x20 ADD PUSH0 KECCAK256 PUSH1 0x1 ADD PUSH1 0x14 SWAP1 SLOAD SWAP1 PUSH2 0x100 EXP SWAP1 DIV PUSH1 0xFF AND PUSH2 0x4BC JUMPI PUSH1 0x40 MLOAD PUSH32 0x8C379A000000000000000000000000000000000000000000000000000000000 DUP2 MSTORE PUSH1 0x4 ADD PUSH2 0x4B3 SWAP1 PUSH2 0xD4C JUMP JUMPDEST PUSH1 0x40 MLOAD DUP1 SWAP2 SUB SWAP1 REVERT JUMPDEST PUSH0 DUP1 DUP4 PUSH20 0xFFFFFFFFFFFFFFFFFFFFFFFFFFFFFFFFFFFFFFFF AND PUSH20 0xFFFFFFFFFFFFFFFFFFFFFFFFFFFFFFFFFFFFFFFF AND DUP2 MSTORE PUSH1 0x20 ADD SWAP1 DUP2 MSTORE PUSH1 0x20 ADD PUSH0 KECCAK256 PUSH1 0x40 MLOAD DUP1 PUSH1 0x80 ADD PUSH1 0x40 MSTORE SWAP1 DUP2 PUSH0 DUP3 ADD DUP1 SLOAD PUSH2 0x512 SWAP1 PUSH2 0xD97 JUMP JUMPDEST DUP1 PUSH1 0x1F ADD PUSH1 0x20 DUP1 SWAP2 DIV MUL PUSH1 0x20 ADD PUSH1 0x40 MLOAD SWAP1 DUP2 ADD PUSH1 0x40 MSTORE DUP1 SWAP3 SWAP2 SWAP1 DUP2 DUP2 MSTORE PUSH1 0x20 ADD DUP3 DUP1 SLOAD PUSH2 0x53E SWAP1 PUSH2 0xD97 JUMP JUMPDEST DUP1 ISZERO PUSH2 0x589 JUMPI DUP1 PUSH1 0x1F LT PUSH2 0x560 JUMPI PUSH2 0x100 DUP1 DUP4 SLOAD DIV MUL DUP4 MSTORE SWAP2 PUSH1 0x20 ADD SWAP2 PUSH2 0x589 JUMP JUMPDEST DUP3 ADD SWAP2 SWAP1 PUSH0 MSTORE PUSH1 0x20 PUSH0 KECCAK256 SWAP1 JUMPDEST DUP2 SLOAD DUP2 MSTORE SWAP1 PUSH1 0x1 ADD SWAP1 PUSH1 0x20 ADD DUP1 DUP4 GT PUSH2 0x56C JUMPI DUP3 SWAP1 SUB PUSH1 0x1F AND DUP3 ADD SWAP2 JUMPDEST POP POP POP POP POP DUP2 MSTORE PUSH1 0x20 ADD PUSH1 0x1 DUP3 ADD PUSH0 SWAP1 SLOAD SWAP1 PUSH2 0x100 EXP SWAP1 DIV PUSH20 0xFFFFFFFFFFFFFFFFFFFFFFFFFFFFFFFFFFFFFFFF AND PUSH20 0xFFFFFFFFFFFFFFFFFFFFFFFFFFFFFFFFFFFFFFFF AND PUSH20 0xFFFFFFFFFFFFFFFFFFFFFFFFFFFFFFFFFFFFFFFF AND DUP2 MSTORE PUSH1 0x20 ADD PUSH1 0x1 DUP3 ADD PUSH1 0x14 SWAP1 SLOAD SWAP1 PUSH2 0x100 EXP SWAP1 DIV PUSH1 0xFF AND ISZERO ISZERO ISZERO ISZERO DUP2 MSTORE PUSH1 0x20 ADD PUSH1 0x1 DUP3 ADD PUSH1 0x15 SWAP1 SLOAD SWAP1 PUSH2 0x100 EXP SWAP1 DIV PUSH1 0xFF AND ISZERO ISZERO ISZERO ISZERO DUP2 MSTORE POP POP SWAP1 POP SWAP2 SWAP1 POP JUMP JUMPDEST PUSH0 PUSH20 0xFFFFFFFFFFFFFFFFFFFFFFFFFFFFFFFFFFFFFFFF AND PUSH0 DUP1 CALLER PUSH20 0xFFFFFFFFFFFFFFFFFFFFFFFFFFFFFFFFFFFFFFFF AND PUSH20 0xFFFFFFFFFFFFFFFFFFFFFFFFFFFFFFFFFFFFFFFF AND DUP2 MSTORE PUSH1 0x20 ADD SWAP1 DUP2 MSTORE PUSH1 0x20 ADD PUSH0 KECCAK256 PUSH1 0x1 ADD PUSH0 SWAP1 SLOAD SWAP1 PUSH2 0x100 EXP SWAP1 DIV PUSH20 0xFFFFFFFFFFFFFFFFFFFFFFFFFFFFFFFFFFFFFFFF AND PUSH20 0xFFFFFFFFFFFFFFFFFFFFFFFFFFFFFFFFFFFFFFFF AND EQ PUSH2 0x6F0 JUMPI PUSH1 0x40 MLOAD PUSH32 0x8C379A000000000000000000000000000000000000000000000000000000000 DUP2 MSTORE PUSH1 0x4 ADD PUSH2 0x6E7 SWAP1 PUSH2 0xE11 JUMP JUMPDEST PUSH1 0x40 MLOAD DUP1 SWAP2 SUB SWAP1 REVERT JUMPDEST PUSH1 0x40 MLOAD DUP1 PUSH1 0x80 ADD PUSH1 0x40 MSTORE DUP1 DUP3 DUP2 MSTORE PUSH1 0x20 ADD CALLER PUSH20 0xFFFFFFFFFFFFFFFFFFFFFFFFFFFFFFFFFFFFFFFF AND DUP2 MSTORE PUSH1 0x20 ADD PUSH1 0x1 ISZERO ISZERO DUP2 MSTORE PUSH1 0x20 ADD PUSH0 ISZERO ISZERO DUP2 MSTORE POP PUSH0 DUP1 CALLER PUSH20 0xFFFFFFFFFFFFFFFFFFFFFFFFFFFFFFFFFFFFFFFF AND PUSH20 0xFFFFFFFFFFFFFFFFFFFFFFFFFFFFFFFFFFFFFFFF AND DUP2 MSTORE PUSH1 0x20 ADD SWAP1 DUP2 MSTORE PUSH1 0x20 ADD PUSH0 KECCAK256 PUSH0 DUP3 ADD MLOAD DUP2 PUSH0 ADD SWAP1 DUP2 PUSH2 0x77B SWAP2 SWAP1 PUSH2 0xFD5 JUMP JUMPDEST POP PUSH1 0x20 DUP3 ADD MLOAD DUP2 PUSH1 0x1 ADD PUSH0 PUSH2 0x100 EXP DUP2 SLOAD DUP2 PUSH20 0xFFFFFFFFFFFFFFFFFFFFFFFFFFFFFFFFFFFFFFFF MUL NOT AND SWAP1 DUP4 PUSH20 0xFFFFFFFFFFFFFFFFFFFFFFFFFFFFFFFFFFFFFFFF AND MUL OR SWAP1 SSTORE POP PUSH1 0x40 DUP3 ADD MLOAD DUP2 PUSH1 0x1 ADD PUSH1 0x14 PUSH2 0x100 EXP DUP2 SLOAD DUP2 PUSH1 0xFF MUL NOT AND SWAP1 DUP4 ISZERO ISZERO MUL OR SWAP1 SSTORE POP PUSH1 0x60 DUP3 ADD MLOAD DUP2 PUSH1 0x1 ADD PUSH1 0x15 PUSH2 0x100 EXP DUP2 SLOAD DUP2 PUSH1 0xFF MUL NOT AND SWAP1 DUP4 ISZERO ISZERO MUL OR SWAP1 SSTORE POP SWAP1 POP POP CALLER PUSH20 0xFFFFFFFFFFFFFFFFFFFFFFFFFFFFFFFFFFFFFFFF AND PUSH32 0x85B62D42045862192F9E1F971FCB74803CB7CE2635B0DD91716F738BAFCB32C6 DUP3 PUSH1 0x40 MLOAD PUSH2 0x84B SWAP2 SWAP1 PUSH2 0x10A4 JUMP JUMPDEST PUSH1 0x40 MLOAD DUP1 SWAP2 SUB SWAP1 LOG2 POP JUMP JUMPDEST PUSH1 0x40 MLOAD DUP1 PUSH1 0x80 ADD PUSH1 0x40 MSTORE DUP1 PUSH1 0x60 DUP2 MSTORE PUSH1 0x20 ADD PUSH0 PUSH20 0xFFFFFFFFFFFFFFFFFFFFFFFFFFFFFFFFFFFFFFFF AND DUP2 MSTORE PUSH1 0x20 ADD PUSH0 ISZERO ISZERO DUP2 MSTORE PUSH1 0x20 ADD PUSH0 ISZERO ISZERO DUP2 MSTORE POP SWAP1 JUMP JUMPDEST PUSH0 PUSH1 0x40 MLOAD SWAP1 POP SWAP1 JUMP JUMPDEST PUSH0 DUP1 REVERT JUMPDEST PUSH0 DUP1 REVERT JUMPDEST PUSH0 PUSH20 0xFFFFFFFFFFFFFFFFFFFFFFFFFFFFFFFFFFFFFFFF DUP3 AND SWAP1 POP SWAP2 SWAP1 POP JUMP JUMPDEST PUSH0 PUSH2 0x8CF DUP3 PUSH2 0x8A6 JUMP JUMPDEST SWAP1 POP SWAP2 SWAP1 POP JUMP JUMPDEST PUSH2 0x8DF DUP2 PUSH2 0x8C5 JUMP JUMPDEST DUP2 EQ PUSH2 0x8E9 JUMPI PUSH0 DUP1 REVERT JUMPDEST POP JUMP JUMPDEST PUSH0 DUP2 CALLDATALOAD SWAP1 POP PUSH2 0x8FA DUP2 PUSH2 0x8D6 JUMP JUMPDEST SWAP3 SWAP2 POP POP JUMP JUMPDEST PUSH0 DUP2 ISZERO ISZERO SWAP1 POP SWAP2 SWAP1 POP JUMP JUMPDEST PUSH2 0x914 DUP2 PUSH2 0x900 JUMP JUMPDEST DUP2 EQ PUSH2 0x91E JUMPI PUSH0 DUP1 REVERT JUMPDEST POP JUMP JUMPDEST PUSH0 DUP2 CALLDATALOAD SWAP1 POP PUSH2 0x92F DUP2 PUSH2 0x90B JUMP JUMPDEST SWAP3 SWAP2 POP POP JUMP JUMPDEST PUSH0 DUP1 PUSH1 0x40 DUP4 DUP6 SUB SLT ISZERO PUSH2 0x94B JUMPI PUSH2 0x94A PUSH2 0x89E JUMP JUMPDEST JUMPDEST PUSH0 PUSH2 0x958 DUP6 DUP3 DUP7 ADD PUSH2 0x8EC JUMP JUMPDEST SWAP3 POP POP PUSH1 0x20 PUSH2 0x969 DUP6 DUP3 DUP7 ADD PUSH2 0x921 JUMP JUMPDEST SWAP2 POP POP SWAP3 POP SWAP3 SWAP1 POP JUMP JUMPDEST PUSH0 PUSH1 0x20 DUP3 DUP5 SUB SLT ISZERO PUSH2 0x988 JUMPI PUSH2 0x987 PUSH2 0x89E JUMP JUMPDEST JUMPDEST PUSH0 PUSH2 0x995 DUP5 DUP3 DUP6 ADD PUSH2 0x8EC JUMP JUMPDEST SWAP2 POP POP SWAP3 SWAP2 POP POP JUMP JUMPDEST PUSH0 DUP2 MLOAD SWAP1 POP SWAP2 SWAP1 POP JUMP JUMPDEST PUSH0 DUP3 DUP3 MSTORE PUSH1 0x20 DUP3 ADD SWAP1 POP SWAP3 SWAP2 POP POP JUMP JUMPDEST PUSH0 JUMPDEST DUP4 DUP2 LT ISZERO PUSH2 0x9D5 JUMPI DUP1 DUP3 ADD MLOAD DUP2 DUP5 ADD MSTORE PUSH1 0x20 DUP2 ADD SWAP1 POP PUSH2 0x9BA JUMP JUMPDEST PUSH0 DUP5 DUP5 ADD MSTORE POP POP POP POP JUMP JUMPDEST PUSH0 PUSH1 0x1F NOT PUSH1 0x1F DUP4 ADD AND SWAP1 POP SWAP2 SWAP1 POP JUMP JUMPDEST PUSH0 PUSH2 0x9FA DUP3 PUSH2 0x99E JUMP JUMPDEST PUSH2 0xA04 DUP2 DUP6 PUSH2 0x9A8 JUMP JUMPDEST SWAP4 POP PUSH2 0xA14 DUP2 DUP6 PUSH1 0x20 DUP7 ADD PUSH2 0x9B8 JUMP JUMPDEST PUSH2 0xA1D DUP2 PUSH2 0x9E0 JUMP JUMPDEST DUP5 ADD SWAP2 POP POP SWAP3 SWAP2 POP POP JUMP JUMPDEST PUSH2 0xA31 DUP2 PUSH2 0x8C5 JUMP JUMPDEST DUP3 MSTORE POP POP JUMP JUMPDEST PUSH2 0xA40 DUP2 PUSH2 0x900 JUMP JUMPDEST DUP3 MSTORE POP POP JUMP JUMPDEST PUSH0 PUSH1 0x80 DUP3 ADD SWAP1 POP DUP2 DUP2 SUB PUSH0 DUP4 ADD MSTORE PUSH2 0xA5E DUP2 DUP8 PUSH2 0x9F0 JUMP JUMPDEST SWAP1 POP PUSH2 0xA6D PUSH1 0x20 DUP4 ADD DUP7 PUSH2 0xA28 JUMP JUMPDEST PUSH2 0xA7A PUSH1 0x40 DUP4 ADD DUP6 PUSH2 0xA37 JUMP JUMPDEST PUSH2 0xA87 PUSH1 0x60 DUP4 ADD DUP5 PUSH2 0xA37 JUMP JUMPDEST SWAP6 SWAP5 POP POP POP POP POP JUMP JUMPDEST PUSH0 PUSH1 0x20 DUP3 ADD SWAP1 POP PUSH2 0xAA3 PUSH0 DUP4 ADD DUP5 PUSH2 0xA37 JUMP JUMPDEST SWAP3 SWAP2 POP POP JUMP JUMPDEST PUSH0 DUP3 DUP3 MSTORE PUSH1 0x20 DUP3 ADD SWAP1 POP SWAP3 SWAP2 POP POP JUMP JUMPDEST PUSH0 PUSH2 0xAC3 DUP3 PUSH2 0x99E JUMP JUMPDEST PUSH2 0xACD DUP2 DUP6 PUSH2 0xAA9 JUMP JUMPDEST SWAP4 POP PUSH2 0xADD DUP2 DUP6 PUSH1 0x20 DUP7 ADD PUSH2 0x9B8 JUMP JUMPDEST PUSH2 0xAE6 DUP2 PUSH2 0x9E0 JUMP JUMPDEST DUP5 ADD SWAP2 POP POP SWAP3 SWAP2 POP POP JUMP JUMPDEST PUSH2 0xAFA DUP2 PUSH2 0x8C5 JUMP JUMPDEST DUP3 MSTORE POP POP JUMP JUMPDEST PUSH2 0xB09 DUP2 PUSH2 0x900 JUMP JUMPDEST DUP3 MSTORE POP POP JUMP JUMPDEST PUSH0 PUSH1 0x80 DUP4 ADD PUSH0 DUP4 ADD MLOAD DUP5 DUP3 SUB PUSH0 DUP7 ADD MSTORE PUSH2 0xB29 DUP3 DUP3 PUSH2 0xAB9 JUMP JUMPDEST SWAP2 POP POP PUSH1 0x20 DUP4 ADD MLOAD PUSH2 0xB3E PUSH1 0x20 DUP7 ADD DUP3 PUSH2 0xAF1 JUMP JUMPDEST POP PUSH1 0x40 DUP4 ADD MLOAD PUSH2 0xB51 PUSH1 0x40 DUP7 ADD DUP3 PUSH2 0xB00 JUMP JUMPDEST POP PUSH1 0x60 DUP4 ADD MLOAD PUSH2 0xB64 PUSH1 0x60 DUP7 ADD DUP3 PUSH2 0xB00 JUMP JUMPDEST POP DUP1 SWAP2 POP POP SWAP3 SWAP2 POP POP JUMP JUMPDEST PUSH0 PUSH1 0x20 DUP3 ADD SWAP1 POP DUP2 DUP2 SUB PUSH0 DUP4 ADD MSTORE PUSH2 0xB87 DUP2 DUP5 PUSH2 0xB0F JUMP JUMPDEST SWAP1 POP SWAP3 SWAP2 POP POP JUMP JUMPDEST PUSH0 DUP1 REVERT JUMPDEST PUSH0 DUP1 REVERT JUMPDEST PUSH32 0x4E487B7100000000000000000000000000000000000000000000000000000000 PUSH0 MSTORE PUSH1 0x41 PUSH1 0x4 MSTORE PUSH1 0x24 PUSH0 REVERT JUMPDEST PUSH2 0xBCD DUP3 PUSH2 0x9E0 JUMP JUMPDEST DUP2 ADD DUP2 DUP2 LT PUSH8 0xFFFFFFFFFFFFFFFF DUP3 GT OR ISZERO PUSH2 0xBEC JUMPI PUSH2 0xBEB PUSH2 0xB97 JUMP JUMPDEST JUMPDEST DUP1 PUSH1 0x40 MSTORE POP POP POP JUMP JUMPDEST PUSH0 PUSH2 0xBFE PUSH2 0x895 JUMP JUMPDEST SWAP1 POP PUSH2 0xC0A DUP3 DUP3 PUSH2 0xBC4 JUMP JUMPDEST SWAP2 SWAP1 POP JUMP JUMPDEST PUSH0 PUSH8 0xFFFFFFFFFFFFFFFF DUP3 GT ISZERO PUSH2 0xC29 JUMPI PUSH2 0xC28 PUSH2 0xB97 JUMP JUMPDEST JUMPDEST PUSH2 0xC32 DUP3 PUSH2 0x9E0 JUMP JUMPDEST SWAP1 POP PUSH1 0x20 DUP2 ADD SWAP1 POP SWAP2 SWAP1 POP JUMP JUMPDEST DUP3 DUP2 DUP4 CALLDATACOPY PUSH0 DUP4 DUP4 ADD MSTORE POP POP POP JUMP JUMPDEST PUSH0 PUSH2 0xC5F PUSH2 0xC5A DUP5 PUSH2 0xC0F JUMP JUMPDEST PUSH2 0xBF5 JUMP JUMPDEST SWAP1 POP DUP3 DUP2 MSTORE PUSH1 0x20 DUP2 ADD DUP5 DUP5 DUP5 ADD GT ISZERO PUSH2 0xC7B JUMPI PUSH2 0xC7A PUSH2 0xB93 JUMP JUMPDEST JUMPDEST PUSH2 0xC86 DUP5 DUP3 DUP6 PUSH2 0xC3F JUMP JUMPDEST POP SWAP4 SWAP3 POP POP POP JUMP JUMPDEST PUSH0 DUP3 PUSH1 0x1F DUP4 ADD SLT PUSH2 0xCA2 JUMPI PUSH2 0xCA1 PUSH2 0xB8F JUMP JUMPDEST JUMPDEST DUP2 CALLDATALOAD PUSH2 0xCB2 DUP5 DUP3 PUSH1 0x20 DUP7 ADD PUSH2 0xC4D JUMP JUMPDEST SWAP2 POP POP SWAP3 SWAP2 POP POP JUMP JUMPDEST PUSH0 PUSH1 0x20 DUP3 DUP5 SUB SLT ISZERO PUSH2 0xCD0 JUMPI PUSH2 0xCCF PUSH2 0x89E JUMP JUMPDEST JUMPDEST PUSH0 DUP3 ADD CALLDATALOAD PUSH8 0xFFFFFFFFFFFFFFFF DUP2 GT ISZERO PUSH2 0xCED JUMPI PUSH2 0xCEC PUSH2 0x8A2 JUMP JUMPDEST JUMPDEST PUSH2 0xCF9 DUP5 DUP3 DUP6 ADD PUSH2 0xC8E JUMP JUMPDEST SWAP2 POP POP SWAP3 SWAP2 POP POP JUMP JUMPDEST PUSH32 0x56656E646F72206E6F7420726567697374657265640000000000000000000000 PUSH0 DUP3 ADD MSTORE POP JUMP JUMPDEST PUSH0 PUSH2 0xD36 PUSH1 0x15 DUP4 PUSH2 0x9A8 JUMP JUMPDEST SWAP2 POP PUSH2 0xD41 DUP3 PUSH2 0xD02 JUMP JUMPDEST PUSH1 0x20 DUP3 ADD SWAP1 POP SWAP2 SWAP1 POP JUMP JUMPDEST PUSH0 PUSH1 0x20 DUP3 ADD SWAP1 POP DUP2 DUP2 SUB PUSH0 DUP4 ADD MSTORE PUSH2 0xD63 DUP2 PUSH2 0xD2A JUMP JUMPDEST SWAP1 POP SWAP2 SWAP1 POP JUMP JUMPDEST PUSH32 0x4E487B7100000000000000000000000000000000000000000000000000000000 PUSH0 MSTORE PUSH1 0x22 PUSH1 0x4 MSTORE PUSH1 0x24 PUSH0 REVERT JUMPDEST PUSH0 PUSH1 0x2 DUP3 DIV SWAP1 POP PUSH1 0x1 DUP3 AND DUP1 PUSH2 0xDAE JUMPI PUSH1 0x7F DUP3 AND SWAP2 POP JUMPDEST PUSH1 0x20 DUP3 LT DUP2 SUB PUSH2 0xDC1 JUMPI PUSH2 0xDC0 PUSH2 0xD6A JUMP JUMPDEST JUMPDEST POP SWAP2 SWAP1 POP JUMP JUMPDEST PUSH32 0x56656E646F7220616C7265616479207265676973746572656400000000000000 PUSH0 DUP3 ADD MSTORE POP JUMP JUMPDEST PUSH0 PUSH2 0xDFB PUSH1 0x19 DUP4 PUSH2 0x9A8 JUMP JUMPDEST SWAP2 POP PUSH2 0xE06 DUP3 PUSH2 0xDC7 JUMP JUMPDEST PUSH1 0x20 DUP3 ADD SWAP1 POP SWAP2 SWAP1 POP JUMP JUMPDEST PUSH0 PUSH1 0x20 DUP3 ADD SWAP1 POP DUP2 DUP2 SUB PUSH0 DUP4 ADD MSTORE PUSH2 0xE28 DUP2 PUSH2 0xDEF JUMP JUMPDEST SWAP1 POP SWAP2 SWAP1 POP JUMP JUMPDEST PUSH0 DUP2 SWAP1 POP DUP2 PUSH0 MSTORE PUSH1 0x20 PUSH0 KECCAK256 SWAP1 POP SWAP2 SWAP1 POP JUMP JUMPDEST PUSH0 PUSH1 0x20 PUSH1 0x1F DUP4 ADD DIV SWAP1 POP SWAP2 SWAP1 POP JUMP JUMPDEST PUSH0 DUP3 DUP3 SHL SWAP1 POP SWAP3 SWAP2 POP POP JUMP JUMPDEST PUSH0 PUSH1 0x8 DUP4 MUL PUSH2 0xE8B PUSH32 0xFFFFFFFFFFFFFFFFFFFFFFFFFFFFFFFFFFFFFFFFFFFFFFFFFFFFFFFFFFFFFFFF DUP3 PUSH2 0xE50 JUMP JUMPDEST PUSH2 0xE95 DUP7 DUP4 PUSH2 0xE50 JUMP JUMPDEST SWAP6 POP DUP1 NOT DUP5 AND SWAP4 POP DUP1 DUP7 AND DUP5 OR SWAP3 POP POP POP SWAP4 SWAP3 POP POP POP JUMP JUMPDEST PUSH0 DUP2 SWAP1 POP SWAP2 SWAP1 POP JUMP JUMPDEST PUSH0 DUP2 SWAP1 POP SWAP2 SWAP1 POP JUMP JUMPDEST PUSH0 PUSH2 0xED9 PUSH2 0xED4 PUSH2 0xECF DUP5 PUSH2 0xEAD JUMP JUMPDEST PUSH2 0xEB6 JUMP JUMPDEST PUSH2 0xEAD JUMP JUMPDEST SWAP1 POP SWAP2 SWAP1 POP JUMP JUMPDEST PUSH0 DUP2 SWAP1 POP SWAP2 SWAP1 POP JUMP JUMPDEST PUSH2 0xEF2 DUP4 PUSH2 0xEBF JUMP JUMPDEST PUSH2 0xF06 PUSH2 0xEFE DUP3 PUSH2 0xEE0 JUMP JUMPDEST DUP5 DUP5 SLOAD PUSH2 0xE5C JUMP JUMPDEST DUP3 SSTORE POP POP POP POP JUMP JUMPDEST PUSH0 SWAP1 JUMP JUMPDEST PUSH2 0xF1A PUSH2 0xF0E JUMP JUMPDEST PUSH2 0xF25 DUP2 DUP5 DUP5 PUSH2 0xEE9 JUMP JUMPDEST POP POP POP JUMP JUMPDEST JUMPDEST DUP2 DUP2 LT ISZERO PUSH2 0xF48 JUMPI PUSH2 0xF3D PUSH0 DUP3 PUSH2 0xF12 JUMP JUMPDEST PUSH1 0x1 DUP2 ADD SWAP1 POP PUSH2 0xF2B JUMP JUMPDEST POP POP JUMP JUMPDEST PUSH1 0x1F DUP3 GT ISZERO PUSH2 0xF8D JUMPI PUSH2 0xF5E DUP2 PUSH2 0xE2F JUMP JUMPDEST PUSH2 0xF67 DUP5 PUSH2 0xE41 JUMP JUMPDEST DUP2 ADD PUSH1 0x20 DUP6 LT ISZERO PUSH2 0xF76 JUMPI DUP2 SWAP1 POP JUMPDEST PUSH2 0xF8A PUSH2 0xF82 DUP6 PUSH2 0xE41 JUMP JUMPDEST DUP4 ADD DUP3 PUSH2 0xF2A JUMP JUMPDEST POP POP JUMPDEST POP POP POP JUMP JUMPDEST PUSH0 DUP3 DUP3 SHR SWAP1 POP SWAP3 SWAP2 POP POP JUMP JUMPDEST PUSH0 PUSH2 0xFAD PUSH0 NOT DUP5 PUSH1 0x8 MUL PUSH2 0xF92 JUMP JUMPDEST NOT DUP1 DUP4 AND SWAP2 POP POP SWAP3 SWAP2 POP POP JUMP JUMPDEST PUSH0 PUSH2 0xFC5 DUP4 DUP4 PUSH2 0xF9E JUMP JUMPDEST SWAP2 POP DUP3 PUSH1 0x2 MUL DUP3 OR SWAP1 POP SWAP3 SWAP2 POP POP JUMP JUMPDEST PUSH2 0xFDE DUP3 PUSH2 0x99E JUMP JUMPDEST PUSH8 0xFFFFFFFFFFFFFFFF DUP2 GT ISZERO PUSH2 0xFF7 JUMPI PUSH2 0xFF6 PUSH2 0xB97 JUMP JUMPDEST JUMPDEST PUSH2 0x1001 DUP3 SLOAD PUSH2 0xD97 JUMP JUMPDEST PUSH2 0x100C DUP3 DUP3 DUP6 PUSH2 0xF4C JUMP JUMPDEST PUSH0 PUSH1 0x20 SWAP1 POP PUSH1 0x1F DUP4 GT PUSH1 0x1 DUP2 EQ PUSH2 0x103D JUMPI PUSH0 DUP5 ISZERO PUSH2 0x102B JUMPI DUP3 DUP8 ADD MLOAD SWAP1 POP JUMPDEST PUSH2 0x1035 DUP6 DUP3 PUSH2 0xFBA JUMP JUMPDEST DUP7 SSTORE POP PUSH2 0x109C JUMP JUMPDEST PUSH1 0x1F NOT DUP5 AND PUSH2 0x104B DUP7 PUSH2 0xE2F JUMP JUMPDEST PUSH0 JUMPDEST DUP3 DUP2 LT ISZERO PUSH2 0x1072 JUMPI DUP5 DUP10 ADD MLOAD DUP3 SSTORE PUSH1 0x1 DUP3 ADD SWAP2 POP PUSH1 0x20 DUP6 ADD SWAP5 POP PUSH1 0x20 DUP2 ADD SWAP1 POP PUSH2 0x104D JUMP JUMPDEST DUP7 DUP4 LT ISZERO PUSH2 0x108F JUMPI DUP5 DUP10 ADD MLOAD PUSH2 0x108B PUSH1 0x1F DUP10 AND DUP3 PUSH2 0xF9E JUMP JUMPDEST DUP4 SSTORE POP JUMPDEST PUSH1 0x1 PUSH1 0x2 DUP9 MUL ADD DUP9 SSTORE POP POP POP JUMPDEST POP POP POP POP POP POP JUMP JUMPDEST PUSH0 PUSH1 0x20 DUP3 ADD SWAP1 POP DUP2 DUP2 SUB PUSH0 DUP4 ADD MSTORE PUSH2 0x10BC DUP2 DUP5 PUSH2 0x9F0 JUMP JUMPDEST SWAP1 POP SWAP3 SWAP2 POP POP JUMP INVALID LOG2 PUSH5 0x6970667358 0x22 SLT KECCAK256 0xED 0x4C 0xD5 0x4C SELFDESTRUCT SWAP12 DUP11 SWAP7 MULMOD DUP4 DUP16 SWAP9 BYTE 0xE1 SUB SWAP1 CODECOPY 0x5D ORIGIN PUSH19 0xB4348DE7442D37ED31FF71D264736F6C634300 ADDMOD AND STOP CALLER "
				},
				"gasEstimates": {
					"creation": {
						"codeDepositCost": "869200",
						"executionCost": "901",
						"totalCost": "870101"
					},
					"external": {
						"changeVendorEligibility(address,bool)": "infinite",
						"getVendorDetails(address)": "infinite",
						"isVendorEligible(address)": "2971",
						"isVendorRegistered(address)": "2949",
						"registerVendor(string)": "infinite",
						"vendors(address)": "infinite"
					}
				},
				"methodIdentifiers": {
					"changeVendorEligibility(address,bool)": "1fb1ae5a",
					"getVendorDetails(address)": "506ce066",
					"isVendorEligible(address)": "317ac79b",
					"isVendorRegistered(address)": "29116087",
					"registerVendor(string)": "e538109a",
					"vendors(address)": "27e30c36"
				}
			},
			"storageLayout": {
				"storage": [
					{
						"astId": 15,
						"contract": "contracts/1_Storage.sol:VendorRegistration",
						"label": "vendors",
						"offset": 0,
						"slot": "0",
						"type": "t_mapping(t_address,t_struct(Vendor)10_storage)"
					}
				],
				"types": {
					"t_address": {
						"encoding": "inplace",
						"label": "address",
						"numberOfBytes": "20"
					},
					"t_bool": {
						"encoding": "inplace",
						"label": "bool",
						"numberOfBytes": "1"
					},
					"t_mapping(t_address,t_struct(Vendor)10_storage)": {
						"encoding": "mapping",
						"key": "t_address",
						"label": "mapping(address => struct VendorRegistration.Vendor)",
						"numberOfBytes": "32",
						"value": "t_struct(Vendor)10_storage"
					},
					"t_string_storage": {
						"encoding": "bytes",
						"label": "string",
						"numberOfBytes": "32"
					},
					"t_struct(Vendor)10_storage": {
						"encoding": "inplace",
						"label": "struct VendorRegistration.Vendor",
						"members": [
							{
								"astId": 3,
								"contract": "contracts/1_Storage.sol:VendorRegistration",
								"label": "name",
								"offset": 0,
								"slot": "0",
								"type": "t_string_storage"
							},
							{
								"astId": 5,
								"contract": "contracts/1_Storage.sol:VendorRegistration",
								"label": "vendorAddress",
								"offset": 0,
								"slot": "1",
								"type": "t_address"
							},
							{
								"astId": 7,
								"contract": "contracts/1_Storage.sol:VendorRegistration",
								"label": "isRegistered",
								"offset": 20,
								"slot": "1",
								"type": "t_bool"
							},
							{
								"astId": 9,
								"contract": "contracts/1_Storage.sol:VendorRegistration",
								"label": "isEligible",
								"offset": 21,
								"slot": "1",
								"type": "t_bool"
							}
						],
						"numberOfBytes": "64"
					}
				}
			},
			"userdoc": {
				"kind": "user",
				"methods": {},
				"version": 1
			}
		}
	}
}