{
	"data": {
		"bytecode": {
			"linkReferences": {},
			"object": "608060405234801562000010575f80fd5b5060405162001746380380620017468339818101604052810190620000369190620000e1565b805f806101000a81548173ffffffffffffffffffffffffffffffffffffffff021916908373ffffffffffffffffffffffffffffffffffffffff1602179055505062000111565b5f80fd5b5f73ffffffffffffffffffffffffffffffffffffffff82169050919050565b5f620000ab8262000080565b9050919050565b620000bd816200009f565b8114620000c8575f80fd5b50565b5f81519050620000db81620000b2565b92915050565b5f60208284031215620000f957620000f86200007c565b5b5f6200010884828501620000cb565b91505092915050565b611627806200011f5f395ff3fe608060405234801561000f575f80fd5b5060043610610055575f3560e01c806312038f9514610059578063332f79731461008d5780633a01135e146100bd5780636442f738146100d9578063ecca790e1461010d575b5f80fd5b610073600480360381019061006e9190610b02565b61013d565b604051610084959493929190610c02565b60405180910390f35b6100a760048036038101906100a29190610c5a565b61023a565b6040516100b49190610e28565b60405180910390f35b6100d760048036038101906100d29190610f74565b6103e5565b005b6100f360048036038101906100ee9190610fce565b6107e8565b604051610104959493929190610c02565b60405180910390f35b6101276004803603810190610122919061100c565b6108e5565b6040516101349190610e28565b60405180910390f35b6002602052815f5260405f208181548110610156575f80fd5b905f5260205f2090600502015f9150915050805f015490806001015f9054906101000a900473ffffffffffffffffffffffffffffffffffffffff16908060020180546101a190611064565b80601f01602080910402602001604051908101604052809291908181526020018280546101cd90611064565b80156102185780601f106101ef57610100808354040283529160200191610218565b820191905f5260205f20905b8154815290600101906020018083116101fb57829003601f168201915b505050505090806003015490806004015f9054906101000a900460ff16905085565b606060025f8373ffffffffffffffffffffffffffffffffffffffff1673ffffffffffffffffffffffffffffffffffffffff1681526020019081526020015f20805480602002602001604051908101604052809291908181526020015f905b828210156103da578382905f5260205f2090600502016040518060a00160405290815f8201548152602001600182015f9054906101000a900473ffffffffffffffffffffffffffffffffffffffff1673ffffffffffffffffffffffffffffffffffffffff1673ffffffffffffffffffffffffffffffffffffffff16815260200160028201805461032790611064565b80601f016020809104026020016040519081016040528092919081815260200182805461035390611064565b801561039e5780601f106103755761010080835404028352916020019161039e565b820191905f5260205f20905b81548152906001019060200180831161038157829003601f168201915b5050505050815260200160038201548152602001600482015f9054906101000a900460ff16151515158152505081526020019060010190610298565b505050509050919050565b5f8054906101000a900473ffffffffffffffffffffffffffffffffffffffff1673ffffffffffffffffffffffffffffffffffffffff16632f72af34836040518263ffffffff1660e01b815260040161043d9190611094565b5f60405180830381865afa158015610457573d5f803e3d5ffd5b505050506040513d5f823e3d601f19601f8201168201806040525081019061047f9190611222565b608001516104c2576040517f08c379a00000000000000000000000000000000000000000000000000000000081526004016104b9906112d9565b60405180910390fd5b5f8054906101000a900473ffffffffffffffffffffffffffffffffffffffff1673ffffffffffffffffffffffffffffffffffffffff16632f72af34836040518263ffffffff1660e01b815260040161051a9190611094565b5f60405180830381865afa158015610534573d5f803e3d5ffd5b505050506040513d5f823e3d601f19601f8201168201806040525081019061055c9190611222565b606001514211156105a2576040517f08c379a000000000000000000000000000000000000000000000000000000000815260040161059990611367565b60405180910390fd5b5f6040518060a001604052808481526020013373ffffffffffffffffffffffffffffffffffffffff16815260200183815260200142815260200160011515815250905060015f8481526020019081526020015f2081908060018154018082558091505060019003905f5260205f2090600502015f909190919091505f820151815f01556020820151816001015f6101000a81548173ffffffffffffffffffffffffffffffffffffffff021916908373ffffffffffffffffffffffffffffffffffffffff16021790555060408201518160020190816106809190611522565b50606082015181600301556080820151816004015f6101000a81548160ff021916908315150217905550505060025f3373ffffffffffffffffffffffffffffffffffffffff1673ffffffffffffffffffffffffffffffffffffffff1681526020019081526020015f2081908060018154018082558091505060019003905f5260205f2090600502015f909190919091505f820151815f01556020820151816001015f6101000a81548173ffffffffffffffffffffffffffffffffffffffff021916908373ffffffffffffffffffffffffffffffffffffffff16021790555060408201518160020190816107739190611522565b50606082015181600301556080820151816004015f6101000a81548160ff02191690831515021790555050503373ffffffffffffffffffffffffffffffffffffffff16837f14f32a2464bd02d81cc866ab8a4ab09360c685fc8156837dcdf398208674d12b60405160405180910390a3505050565b6001602052815f5260405f208181548110610801575f80fd5b905f5260205f2090600502015f9150915050805f015490806001015f9054906101000a900473ffffffffffffffffffffffffffffffffffffffff169080600201805461084c90611064565b80601f016020809104026020016040519081016040528092919081815260200182805461087890611064565b80156108c35780601f1061089a576101008083540402835291602001916108c3565b820191905f5260205f20905b8154815290600101906020018083116108a657829003601f168201915b505050505090806003015490806004015f9054906101000a900460ff16905085565b606060015f8381526020019081526020015f20805480602002602001604051908101604052809291908181526020015f905b82821015610a59578382905f5260205f2090600502016040518060a00160405290815f8201548152602001600182015f9054906101000a900473ffffffffffffffffffffffffffffffffffffffff1673ffffffffffffffffffffffffffffffffffffffff1673ffffffffffffffffffffffffffffffffffffffff1681526020016002820180546109a690611064565b80601f01602080910402602001604051908101604052809291908181526020018280546109d290611064565b8015610a1d5780601f106109f457610100808354040283529160200191610a1d565b820191905f5260205f20905b815481529060010190602001808311610a0057829003601f168201915b5050505050815260200160038201548152602001600482015f9054906101000a900460ff16151515158152505081526020019060010190610917565b505050509050919050565b5f604051905090565b5f80fd5b5f80fd5b5f73ffffffffffffffffffffffffffffffffffffffff82169050919050565b5f610a9e82610a75565b9050919050565b610aae81610a94565b8114610ab8575f80fd5b50565b5f81359050610ac981610aa5565b92915050565b5f819050919050565b610ae181610acf565b8114610aeb575f80fd5b50565b5f81359050610afc81610ad8565b92915050565b5f8060408385031215610b1857610b17610a6d565b5b5f610b2585828601610abb565b9250506020610b3685828601610aee565b9150509250929050565b610b4981610acf565b82525050565b610b5881610a94565b82525050565b5f81519050919050565b5f82825260208201905092915050565b5f5b83811015610b95578082015181840152602081019050610b7a565b5f8484015250505050565b5f601f19601f8301169050919050565b5f610bba82610b5e565b610bc48185610b68565b9350610bd4818560208601610b78565b610bdd81610ba0565b840191505092915050565b5f8115159050919050565b610bfc81610be8565b82525050565b5f60a082019050610c155f830188610b40565b610c226020830187610b4f565b8181036040830152610c348186610bb0565b9050610c436060830185610b40565b610c506080830184610bf3565b9695505050505050565b5f60208284031215610c6f57610c6e610a6d565b5b5f610c7c84828501610abb565b91505092915050565b5f81519050919050565b5f82825260208201905092915050565b5f819050602082019050919050565b610cb781610acf565b82525050565b610cc681610a94565b82525050565b5f82825260208201905092915050565b5f610ce682610b5e565b610cf08185610ccc565b9350610d00818560208601610b78565b610d0981610ba0565b840191505092915050565b610d1d81610be8565b82525050565b5f60a083015f830151610d385f860182610cae565b506020830151610d4b6020860182610cbd565b5060408301518482036040860152610d638282610cdc565b9150506060830151610d786060860182610cae565b506080830151610d8b6080860182610d14565b508091505092915050565b5f610da18383610d23565b905092915050565b5f602082019050919050565b5f610dbf82610c85565b610dc98185610c8f565b935083602082028501610ddb85610c9f565b805f5b85811015610e165784840389528151610df78582610d96565b9450610e0283610da9565b925060208a01995050600181019050610dde565b50829750879550505050505092915050565b5f6020820190508181035f830152610e408184610db5565b905092915050565b5f80fd5b5f80fd5b7f4e487b71000000000000000000000000000000000000000000000000000000005f52604160045260245ffd5b610e8682610ba0565b810181811067ffffffffffffffff82111715610ea557610ea4610e50565b5b80604052505050565b5f610eb7610a64565b9050610ec38282610e7d565b919050565b5f67ffffffffffffffff821115610ee257610ee1610e50565b5b610eeb82610ba0565b9050602081019050919050565b828183375f83830152505050565b5f610f18610f1384610ec8565b610eae565b905082815260208101848484011115610f3457610f33610e4c565b5b610f3f848285610ef8565b509392505050565b5f82601f830112610f5b57610f5a610e48565b5b8135610f6b848260208601610f06565b91505092915050565b5f8060408385031215610f8a57610f89610a6d565b5b5f610f9785828601610aee565b925050602083013567ffffffffffffffff811115610fb857610fb7610a71565b5b610fc485828601610f47565b9150509250929050565b5f8060408385031215610fe457610fe3610a6d565b5b5f610ff185828601610aee565b925050602061100285828601610aee565b9150509250929050565b5f6020828403121561102157611020610a6d565b5b5f61102e84828501610aee565b91505092915050565b7f4e487b71000000000000000000000000000000000000000000000000000000005f52602260045260245ffd5b5f600282049050600182168061107b57607f821691505b60208210810361108e5761108d611037565b5b50919050565b5f6020820190506110a75f830184610b40565b92915050565b5f80fd5b5f80fd5b5f815190506110c381610ad8565b92915050565b5f6110db6110d684610ec8565b610eae565b9050828152602081018484840111156110f7576110f6610e4c565b5b611102848285610b78565b509392505050565b5f82601f83011261111e5761111d610e48565b5b815161112e8482602086016110c9565b91505092915050565b61114081610be8565b811461114a575f80fd5b50565b5f8151905061115b81611137565b92915050565b5f60a08284031215611176576111756110ad565b5b61118060a0610eae565b90505f61118f848285016110b5565b5f83015250602082015167ffffffffffffffff8111156111b2576111b16110b1565b5b6111be8482850161110a565b602083015250604082015167ffffffffffffffff8111156111e2576111e16110b1565b5b6111ee8482850161110a565b6040830152506060611202848285016110b5565b60608301525060806112168482850161114d565b60808301525092915050565b5f6020828403121561123757611236610a6d565b5b5f82015167ffffffffffffffff81111561125457611253610a71565b5b61126084828501611161565b91505092915050565b7f524650206973206e6f7420616374697665206f7220646f6573206e6f742065785f8201527f6973740000000000000000000000000000000000000000000000000000000000602082015250565b5f6112c3602383610b68565b91506112ce82611269565b604082019050919050565b5f6020820190508181035f8301526112f0816112b7565b9050919050565b7f54686520646561646c696e6520666f72207468697320524650206861732070615f8201527f7373656400000000000000000000000000000000000000000000000000000000602082015250565b5f611351602483610b68565b915061135c826112f7565b604082019050919050565b5f6020820190508181035f83015261137e81611345565b9050919050565b5f819050815f5260205f209050919050565b5f6020601f8301049050919050565b5f82821b905092915050565b5f600883026113e17fffffffffffffffffffffffffffffffffffffffffffffffffffffffffffffffff826113a6565b6113eb86836113a6565b95508019841693508086168417925050509392505050565b5f819050919050565b5f61142661142161141c84610acf565b611403565b610acf565b9050919050565b5f819050919050565b61143f8361140c565b61145361144b8261142d565b8484546113b2565b825550505050565b5f90565b61146761145b565b611472818484611436565b505050565b5b818110156114955761148a5f8261145f565b600181019050611478565b5050565b601f8211156114da576114ab81611385565b6114b484611397565b810160208510156114c3578190505b6114d76114cf85611397565b830182611477565b50505b505050565b5f82821c905092915050565b5f6114fa5f19846008026114df565b1980831691505092915050565b5f61151283836114eb565b9150826002028217905092915050565b61152b82610b5e565b67ffffffffffffffff81111561154457611543610e50565b5b61154e8254611064565b611559828285611499565b5f60209050601f83116001811461158a575f8415611578578287015190505b6115828582611507565b8655506115e9565b601f19841661159886611385565b5f5b828110156115bf5784890151825560018201915060208501945060208101905061159a565b868310156115dc57848901516115d8601f8916826114eb565b8355505b6001600288020188555050505b50505050505056fea2646970667358221220db54f974deb67e6414a598a5be5c77590b7c27ba91d33553fa3f475e6b38543864736f6c63430008160033",
			"opcodes": "PUSH1 0x80 PUSH1 0x40 MSTORE CALLVALUE DUP1 ISZERO PUSH3 0x10 JUMPI PUSH0 DUP1 REVERT JUMPDEST POP PUSH1 0x40 MLOAD PUSH3 0x1746 CODESIZE SUB DUP1 PUSH3 0x1746 DUP4 CODECOPY DUP2 DUP2 ADD PUSH1 0x40 MSTORE DUP2 ADD SWAP1 PUSH3 0x36 SWAP2 SWAP1 PUSH3 0xE1 JUMP JUMPDEST DUP1 PUSH0 DUP1 PUSH2 0x100 EXP DUP2 SLOAD DUP2 PUSH20 0xFFFFFFFFFFFFFFFFFFFFFFFFFFFFFFFFFFFFFFFF MUL NOT AND SWAP1 DUP4 PUSH20 0xFFFFFFFFFFFFFFFFFFFFFFFFFFFFFFFFFFFFFFFF AND MUL OR SWAP1 SSTORE POP POP PUSH3 0x111 JUMP JUMPDEST PUSH0 DUP1 REVERT JUMPDEST PUSH0 PUSH20 0xFFFFFFFFFFFFFFFFFFFFFFFFFFFFFFFFFFFFFFFF DUP3 AND SWAP1 POP SWAP2 SWAP1 POP JUMP JUMPDEST PUSH0 PUSH3 0xAB DUP3 PUSH3 0x80 JUMP JUMPDEST SWAP1 POP SWAP2 SWAP1 POP JUMP JUMPDEST PUSH3 0xBD DUP2 PUSH3 0x9F JUMP JUMPDEST DUP2 EQ PUSH3 0xC8 JUMPI PUSH0 DUP1 REVERT JUMPDEST POP JUMP JUMPDEST PUSH0 DUP2 MLOAD SWAP1 POP PUSH3 0xDB DUP2 PUSH3 0xB2 JUMP JUMPDEST SWAP3 SWAP2 POP POP JUMP JUMPDEST PUSH0 PUSH1 0x20 DUP3 DUP5 SUB SLT ISZERO PUSH3 0xF9 JUMPI PUSH3 0xF8 PUSH3 0x7C JUMP JUMPDEST JUMPDEST PUSH0 PUSH3 0x108 DUP5 DUP3 DUP6 ADD PUSH3 0xCB JUMP JUMPDEST SWAP2 POP POP SWAP3 SWAP2 POP POP JUMP JUMPDEST PUSH2 0x1627 DUP1 PUSH3 0x11F PUSH0 CODECOPY PUSH0 RETURN INVALID PUSH1 0x80 PUSH1 0x40 MSTORE CALLVALUE DUP1 ISZERO PUSH2 0xF JUMPI PUSH0 DUP1 REVERT JUMPDEST POP PUSH1 0x4 CALLDATASIZE LT PUSH2 0x55 JUMPI PUSH0 CALLDATALOAD PUSH1 0xE0 SHR DUP1 PUSH4 0x12038F95 EQ PUSH2 0x59 JUMPI DUP1 PUSH4 0x332F7973 EQ PUSH2 0x8D JUMPI DUP1 PUSH4 0x3A01135E EQ PUSH2 0xBD JUMPI DUP1 PUSH4 0x6442F738 EQ PUSH2 0xD9 JUMPI DUP1 PUSH4 0xECCA790E EQ PUSH2 0x10D JUMPI JUMPDEST PUSH0 DUP1 REVERT JUMPDEST PUSH2 0x73 PUSH1 0x4 DUP1 CALLDATASIZE SUB DUP2 ADD SWAP1 PUSH2 0x6E SWAP2 SWAP1 PUSH2 0xB02 JUMP JUMPDEST PUSH2 0x13D JUMP JUMPDEST PUSH1 0x40 MLOAD PUSH2 0x84 SWAP6 SWAP5 SWAP4 SWAP3 SWAP2 SWAP1 PUSH2 0xC02 JUMP JUMPDEST PUSH1 0x40 MLOAD DUP1 SWAP2 SUB SWAP1 RETURN JUMPDEST PUSH2 0xA7 PUSH1 0x4 DUP1 CALLDATASIZE SUB DUP2 ADD SWAP1 PUSH2 0xA2 SWAP2 SWAP1 PUSH2 0xC5A JUMP JUMPDEST PUSH2 0x23A JUMP JUMPDEST PUSH1 0x40 MLOAD PUSH2 0xB4 SWAP2 SWAP1 PUSH2 0xE28 JUMP JUMPDEST PUSH1 0x40 MLOAD DUP1 SWAP2 SUB SWAP1 RETURN JUMPDEST PUSH2 0xD7 PUSH1 0x4 DUP1 CALLDATASIZE SUB DUP2 ADD SWAP1 PUSH2 0xD2 SWAP2 SWAP1 PUSH2 0xF74 JUMP JUMPDEST PUSH2 0x3E5 JUMP JUMPDEST STOP JUMPDEST PUSH2 0xF3 PUSH1 0x4 DUP1 CALLDATASIZE SUB DUP2 ADD SWAP1 PUSH2 0xEE SWAP2 SWAP1 PUSH2 0xFCE JUMP JUMPDEST PUSH2 0x7E8 JUMP JUMPDEST PUSH1 0x40 MLOAD PUSH2 0x104 SWAP6 SWAP5 SWAP4 SWAP3 SWAP2 SWAP1 PUSH2 0xC02 JUMP JUMPDEST PUSH1 0x40 MLOAD DUP1 SWAP2 SUB SWAP1 RETURN JUMPDEST PUSH2 0x127 PUSH1 0x4 DUP1 CALLDATASIZE SUB DUP2 ADD SWAP1 PUSH2 0x122 SWAP2 SWAP1 PUSH2 0x100C JUMP JUMPDEST PUSH2 0x8E5 JUMP JUMPDEST PUSH1 0x40 MLOAD PUSH2 0x134 SWAP2 SWAP1 PUSH2 0xE28 JUMP JUMPDEST PUSH1 0x40 MLOAD DUP1 SWAP2 SUB SWAP1 RETURN JUMPDEST PUSH1 0x2 PUSH1 0x20 MSTORE DUP2 PUSH0 MSTORE PUSH1 0x40 PUSH0 KECCAK256 DUP2 DUP2 SLOAD DUP2 LT PUSH2 0x156 JUMPI PUSH0 DUP1 REVERT JUMPDEST SWAP1 PUSH0 MSTORE PUSH1 0x20 PUSH0 KECCAK256 SWAP1 PUSH1 0x5 MUL ADD PUSH0 SWAP2 POP SWAP2 POP POP DUP1 PUSH0 ADD SLOAD SWAP1 DUP1 PUSH1 0x1 ADD PUSH0 SWAP1 SLOAD SWAP1 PUSH2 0x100 EXP SWAP1 DIV PUSH20 0xFFFFFFFFFFFFFFFFFFFFFFFFFFFFFFFFFFFFFFFF AND SWAP1 DUP1 PUSH1 0x2 ADD DUP1 SLOAD PUSH2 0x1A1 SWAP1 PUSH2 0x1064 JUMP JUMPDEST DUP1 PUSH1 0x1F ADD PUSH1 0x20 DUP1 SWAP2 DIV MUL PUSH1 0x20 ADD PUSH1 0x40 MLOAD SWAP1 DUP2 ADD PUSH1 0x40 MSTORE DUP1 SWAP3 SWAP2 SWAP1 DUP2 DUP2 MSTORE PUSH1 0x20 ADD DUP3 DUP1 SLOAD PUSH2 0x1CD SWAP1 PUSH2 0x1064 JUMP JUMPDEST DUP1 ISZERO PUSH2 0x218 JUMPI DUP1 PUSH1 0x1F LT PUSH2 0x1EF JUMPI PUSH2 0x100 DUP1 DUP4 SLOAD DIV MUL DUP4 MSTORE SWAP2 PUSH1 0x20 ADD SWAP2 PUSH2 0x218 JUMP JUMPDEST DUP3 ADD SWAP2 SWAP1 PUSH0 MSTORE PUSH1 0x20 PUSH0 KECCAK256 SWAP1 JUMPDEST DUP2 SLOAD DUP2 MSTORE SWAP1 PUSH1 0x1 ADD SWAP1 PUSH1 0x20 ADD DUP1 DUP4 GT PUSH2 0x1FB JUMPI DUP3 SWAP1 SUB PUSH1 0x1F AND DUP3 ADD SWAP2 JUMPDEST POP POP POP POP POP SWAP1 DUP1 PUSH1 0x3 ADD SLOAD SWAP1 DUP1 PUSH1 0x4 ADD PUSH0 SWAP1 SLOAD SWAP1 PUSH2 0x100 EXP SWAP1 DIV PUSH1 0xFF AND SWAP1 POP DUP6 JUMP JUMPDEST PUSH1 0x60 PUSH1 0x2 PUSH0 DUP4 PUSH20 0xFFFFFFFFFFFFFFFFFFFFFFFFFFFFFFFFFFFFFFFF AND PUSH20 0xFFFFFFFFFFFFFFFFFFFFFFFFFFFFFFFFFFFFFFFF AND DUP2 MSTORE PUSH1 0x20 ADD SWAP1 DUP2 MSTORE PUSH1 0x20 ADD PUSH0 KECCAK256 DUP1 SLOAD DUP1 PUSH1 0x20 MUL PUSH1 0x20 ADD PUSH1 0x40 MLOAD SWAP1 DUP2 ADD PUSH1 0x40 MSTORE DUP1 SWAP3 SWAP2 SWAP1 DUP2 DUP2 MSTORE PUSH1 0x20 ADD PUSH0 SWAP1 JUMPDEST DUP3 DUP3 LT ISZERO PUSH2 0x3DA JUMPI DUP4 DUP3 SWAP1 PUSH0 MSTORE PUSH1 0x20 PUSH0 KECCAK256 SWAP1 PUSH1 0x5 MUL ADD PUSH1 0x40 MLOAD DUP1 PUSH1 0xA0 ADD PUSH1 0x40 MSTORE SWAP1 DUP2 PUSH0 DUP3 ADD SLOAD DUP2 MSTORE PUSH1 0x20 ADD PUSH1 0x1 DUP3 ADD PUSH0 SWAP1 SLOAD SWAP1 PUSH2 0x100 EXP SWAP1 DIV PUSH20 0xFFFFFFFFFFFFFFFFFFFFFFFFFFFFFFFFFFFFFFFF AND PUSH20 0xFFFFFFFFFFFFFFFFFFFFFFFFFFFFFFFFFFFFFFFF AND PUSH20 0xFFFFFFFFFFFFFFFFFFFFFFFFFFFFFFFFFFFFFFFF AND DUP2 MSTORE PUSH1 0x20 ADD PUSH1 0x2 DUP3 ADD DUP1 SLOAD PUSH2 0x327 SWAP1 PUSH2 0x1064 JUMP JUMPDEST DUP1 PUSH1 0x1F ADD PUSH1 0x20 DUP1 SWAP2 DIV MUL PUSH1 0x20 ADD PUSH1 0x40 MLOAD SWAP1 DUP2 ADD PUSH1 0x40 MSTORE DUP1 SWAP3 SWAP2 SWAP1 DUP2 DUP2 MSTORE PUSH1 0x20 ADD DUP3 DUP1 SLOAD PUSH2 0x353 SWAP1 PUSH2 0x1064 JUMP JUMPDEST DUP1 ISZERO PUSH2 0x39E JUMPI DUP1 PUSH1 0x1F LT PUSH2 0x375 JUMPI PUSH2 0x100 DUP1 DUP4 SLOAD DIV MUL DUP4 MSTORE SWAP2 PUSH1 0x20 ADD SWAP2 PUSH2 0x39E JUMP JUMPDEST DUP3 ADD SWAP2 SWAP1 PUSH0 MSTORE PUSH1 0x20 PUSH0 KECCAK256 SWAP1 JUMPDEST DUP2 SLOAD DUP2 MSTORE SWAP1 PUSH1 0x1 ADD SWAP1 PUSH1 0x20 ADD DUP1 DUP4 GT PUSH2 0x381 JUMPI DUP3 SWAP1 SUB PUSH1 0x1F AND DUP3 ADD SWAP2 JUMPDEST POP POP POP POP POP DUP2 MSTORE PUSH1 0x20 ADD PUSH1 0x3 DUP3 ADD SLOAD DUP2 MSTORE PUSH1 0x20 ADD PUSH1 0x4 DUP3 ADD PUSH0 SWAP1 SLOAD SWAP1 PUSH2 0x100 EXP SWAP1 DIV PUSH1 0xFF AND ISZERO ISZERO ISZERO ISZERO DUP2 MSTORE POP POP DUP2 MSTORE PUSH1 0x20 ADD SWAP1 PUSH1 0x1 ADD SWAP1 PUSH2 0x298 JUMP JUMPDEST POP POP POP POP SWAP1 POP SWAP2 SWAP1 POP JUMP JUMPDEST PUSH0 DUP1 SLOAD SWAP1 PUSH2 0x100 EXP SWAP1 DIV PUSH20 0xFFFFFFFFFFFFFFFFFFFFFFFFFFFFFFFFFFFFFFFF AND PUSH20 0xFFFFFFFFFFFFFFFFFFFFFFFFFFFFFFFFFFFFFFFF AND PUSH4 0x2F72AF34 DUP4 PUSH1 0x40 MLOAD DUP3 PUSH4 0xFFFFFFFF AND PUSH1 0xE0 SHL DUP2 MSTORE PUSH1 0x4 ADD PUSH2 0x43D SWAP2 SWAP1 PUSH2 0x1094 JUMP JUMPDEST PUSH0 PUSH1 0x40 MLOAD DUP1 DUP4 SUB DUP2 DUP7 GAS STATICCALL ISZERO DUP1 ISZERO PUSH2 0x457 JUMPI RETURNDATASIZE PUSH0 DUP1 RETURNDATACOPY RETURNDATASIZE PUSH0 REVERT JUMPDEST POP POP POP POP PUSH1 0x40 MLOAD RETURNDATASIZE PUSH0 DUP3 RETURNDATACOPY RETURNDATASIZE PUSH1 0x1F NOT PUSH1 0x1F DUP3 ADD AND DUP3 ADD DUP1 PUSH1 0x40 MSTORE POP DUP2 ADD SWAP1 PUSH2 0x47F SWAP2 SWAP1 PUSH2 0x1222 JUMP JUMPDEST PUSH1 0x80 ADD MLOAD PUSH2 0x4C2 JUMPI PUSH1 0x40 MLOAD PUSH32 0x8C379A000000000000000000000000000000000000000000000000000000000 DUP2 MSTORE PUSH1 0x4 ADD PUSH2 0x4B9 SWAP1 PUSH2 0x12D9 JUMP JUMPDEST PUSH1 0x40 MLOAD DUP1 SWAP2 SUB SWAP1 REVERT JUMPDEST PUSH0 DUP1 SLOAD SWAP1 PUSH2 0x100 EXP SWAP1 DIV PUSH20 0xFFFFFFFFFFFFFFFFFFFFFFFFFFFFFFFFFFFFFFFF AND PUSH20 0xFFFFFFFFFFFFFFFFFFFFFFFFFFFFFFFFFFFFFFFF AND PUSH4 0x2F72AF34 DUP4 PUSH1 0x40 MLOAD DUP3 PUSH4 0xFFFFFFFF AND PUSH1 0xE0 SHL DUP2 MSTORE PUSH1 0x4 ADD PUSH2 0x51A SWAP2 SWAP1 PUSH2 0x1094 JUMP JUMPDEST PUSH0 PUSH1 0x40 MLOAD DUP1 DUP4 SUB DUP2 DUP7 GAS STATICCALL ISZERO DUP1 ISZERO PUSH2 0x534 JUMPI RETURNDATASIZE PUSH0 DUP1 RETURNDATACOPY RETURNDATASIZE PUSH0 REVERT JUMPDEST POP POP POP POP PUSH1 0x40 MLOAD RETURNDATASIZE PUSH0 DUP3 RETURNDATACOPY RETURNDATASIZE PUSH1 0x1F NOT PUSH1 0x1F DUP3 ADD AND DUP3 ADD DUP1 PUSH1 0x40 MSTORE POP DUP2 ADD SWAP1 PUSH2 0x55C SWAP2 SWAP1 PUSH2 0x1222 JUMP JUMPDEST PUSH1 0x60 ADD MLOAD TIMESTAMP GT ISZERO PUSH2 0x5A2 JUMPI PUSH1 0x40 MLOAD PUSH32 0x8C379A000000000000000000000000000000000000000000000000000000000 DUP2 MSTORE PUSH1 0x4 ADD PUSH2 0x599 SWAP1 PUSH2 0x1367 JUMP JUMPDEST PUSH1 0x40 MLOAD DUP1 SWAP2 SUB SWAP1 REVERT JUMPDEST PUSH0 PUSH1 0x40 MLOAD DUP1 PUSH1 0xA0 ADD PUSH1 0x40 MSTORE DUP1 DUP5 DUP2 MSTORE PUSH1 0x20 ADD CALLER PUSH20 0xFFFFFFFFFFFFFFFFFFFFFFFFFFFFFFFFFFFFFFFF AND DUP2 MSTORE PUSH1 0x20 ADD DUP4 DUP2 MSTORE PUSH1 0x20 ADD TIMESTAMP DUP2 MSTORE PUSH1 0x20 ADD PUSH1 0x1 ISZERO ISZERO DUP2 MSTORE POP SWAP1 POP PUSH1 0x1 PUSH0 DUP5 DUP2 MSTORE PUSH1 0x20 ADD SWAP1 DUP2 MSTORE PUSH1 0x20 ADD PUSH0 KECCAK256 DUP2 SWAP1 DUP1 PUSH1 0x1 DUP2 SLOAD ADD DUP1 DUP3 SSTORE DUP1 SWAP2 POP POP PUSH1 0x1 SWAP1 SUB SWAP1 PUSH0 MSTORE PUSH1 0x20 PUSH0 KECCAK256 SWAP1 PUSH1 0x5 MUL ADD PUSH0 SWAP1 SWAP2 SWAP1 SWAP2 SWAP1 SWAP2 POP PUSH0 DUP3 ADD MLOAD DUP2 PUSH0 ADD SSTORE PUSH1 0x20 DUP3 ADD MLOAD DUP2 PUSH1 0x1 ADD PUSH0 PUSH2 0x100 EXP DUP2 SLOAD DUP2 PUSH20 0xFFFFFFFFFFFFFFFFFFFFFFFFFFFFFFFFFFFFFFFF MUL NOT AND SWAP1 DUP4 PUSH20 0xFFFFFFFFFFFFFFFFFFFFFFFFFFFFFFFFFFFFFFFF AND MUL OR SWAP1 SSTORE POP PUSH1 0x40 DUP3 ADD MLOAD DUP2 PUSH1 0x2 ADD SWAP1 DUP2 PUSH2 0x680 SWAP2 SWAP1 PUSH2 0x1522 JUMP JUMPDEST POP PUSH1 0x60 DUP3 ADD MLOAD DUP2 PUSH1 0x3 ADD SSTORE PUSH1 0x80 DUP3 ADD MLOAD DUP2 PUSH1 0x4 ADD PUSH0 PUSH2 0x100 EXP DUP2 SLOAD DUP2 PUSH1 0xFF MUL NOT AND SWAP1 DUP4 ISZERO ISZERO MUL OR SWAP1 SSTORE POP POP POP PUSH1 0x2 PUSH0 CALLER PUSH20 0xFFFFFFFFFFFFFFFFFFFFFFFFFFFFFFFFFFFFFFFF AND PUSH20 0xFFFFFFFFFFFFFFFFFFFFFFFFFFFFFFFFFFFFFFFF AND DUP2 MSTORE PUSH1 0x20 ADD SWAP1 DUP2 MSTORE PUSH1 0x20 ADD PUSH0 KECCAK256 DUP2 SWAP1 DUP1 PUSH1 0x1 DUP2 SLOAD ADD DUP1 DUP3 SSTORE DUP1 SWAP2 POP POP PUSH1 0x1 SWAP1 SUB SWAP1 PUSH0 MSTORE PUSH1 0x20 PUSH0 KECCAK256 SWAP1 PUSH1 0x5 MUL ADD PUSH0 SWAP1 SWAP2 SWAP1 SWAP2 SWAP1 SWAP2 POP PUSH0 DUP3 ADD MLOAD DUP2 PUSH0 ADD SSTORE PUSH1 0x20 DUP3 ADD MLOAD DUP2 PUSH1 0x1 ADD PUSH0 PUSH2 0x100 EXP DUP2 SLOAD DUP2 PUSH20 0xFFFFFFFFFFFFFFFFFFFFFFFFFFFFFFFFFFFFFFFF MUL NOT AND SWAP1 DUP4 PUSH20 0xFFFFFFFFFFFFFFFFFFFFFFFFFFFFFFFFFFFFFFFF AND MUL OR SWAP1 SSTORE POP PUSH1 0x40 DUP3 ADD MLOAD DUP2 PUSH1 0x2 ADD SWAP1 DUP2 PUSH2 0x773 SWAP2 SWAP1 PUSH2 0x1522 JUMP JUMPDEST POP PUSH1 0x60 DUP3 ADD MLOAD DUP2 PUSH1 0x3 ADD SSTORE PUSH1 0x80 DUP3 ADD MLOAD DUP2 PUSH1 0x4 ADD PUSH0 PUSH2 0x100 EXP DUP2 SLOAD DUP2 PUSH1 0xFF MUL NOT AND SWAP1 DUP4 ISZERO ISZERO MUL OR SWAP1 SSTORE POP POP POP CALLER PUSH20 0xFFFFFFFFFFFFFFFFFFFFFFFFFFFFFFFFFFFFFFFF AND DUP4 PUSH32 0x14F32A2464BD02D81CC866AB8A4AB09360C685FC8156837DCDF398208674D12B PUSH1 0x40 MLOAD PUSH1 0x40 MLOAD DUP1 SWAP2 SUB SWAP1 LOG3 POP POP POP JUMP JUMPDEST PUSH1 0x1 PUSH1 0x20 MSTORE DUP2 PUSH0 MSTORE PUSH1 0x40 PUSH0 KECCAK256 DUP2 DUP2 SLOAD DUP2 LT PUSH2 0x801 JUMPI PUSH0 DUP1 REVERT JUMPDEST SWAP1 PUSH0 MSTORE PUSH1 0x20 PUSH0 KECCAK256 SWAP1 PUSH1 0x5 MUL ADD PUSH0 SWAP2 POP SWAP2 POP POP DUP1 PUSH0 ADD SLOAD SWAP1 DUP1 PUSH1 0x1 ADD PUSH0 SWAP1 SLOAD SWAP1 PUSH2 0x100 EXP SWAP1 DIV PUSH20 0xFFFFFFFFFFFFFFFFFFFFFFFFFFFFFFFFFFFFFFFF AND SWAP1 DUP1 PUSH1 0x2 ADD DUP1 SLOAD PUSH2 0x84C SWAP1 PUSH2 0x1064 JUMP JUMPDEST DUP1 PUSH1 0x1F ADD PUSH1 0x20 DUP1 SWAP2 DIV MUL PUSH1 0x20 ADD PUSH1 0x40 MLOAD SWAP1 DUP2 ADD PUSH1 0x40 MSTORE DUP1 SWAP3 SWAP2 SWAP1 DUP2 DUP2 MSTORE PUSH1 0x20 ADD DUP3 DUP1 SLOAD PUSH2 0x878 SWAP1 PUSH2 0x1064 JUMP JUMPDEST DUP1 ISZERO PUSH2 0x8C3 JUMPI DUP1 PUSH1 0x1F LT PUSH2 0x89A JUMPI PUSH2 0x100 DUP1 DUP4 SLOAD DIV MUL DUP4 MSTORE SWAP2 PUSH1 0x20 ADD SWAP2 PUSH2 0x8C3 JUMP JUMPDEST DUP3 ADD SWAP2 SWAP1 PUSH0 MSTORE PUSH1 0x20 PUSH0 KECCAK256 SWAP1 JUMPDEST DUP2 SLOAD DUP2 MSTORE SWAP1 PUSH1 0x1 ADD SWAP1 PUSH1 0x20 ADD DUP1 DUP4 GT PUSH2 0x8A6 JUMPI DUP3 SWAP1 SUB PUSH1 0x1F AND DUP3 ADD SWAP2 JUMPDEST POP POP POP POP POP SWAP1 DUP1 PUSH1 0x3 ADD SLOAD SWAP1 DUP1 PUSH1 0x4 ADD PUSH0 SWAP1 SLOAD SWAP1 PUSH2 0x100 EXP SWAP1 DIV PUSH1 0xFF AND SWAP1 POP DUP6 JUMP JUMPDEST PUSH1 0x60 PUSH1 0x1 PUSH0 DUP4 DUP2 MSTORE PUSH1 0x20 ADD SWAP1 DUP2 MSTORE PUSH1 0x20 ADD PUSH0 KECCAK256 DUP1 SLOAD DUP1 PUSH1 0x20 MUL PUSH1 0x20 ADD PUSH1 0x40 MLOAD SWAP1 DUP2 ADD PUSH1 0x40 MSTORE DUP1 SWAP3 SWAP2 SWAP1 DUP2 DUP2 MSTORE PUSH1 0x20 ADD PUSH0 SWAP1 JUMPDEST DUP3 DUP3 LT ISZERO PUSH2 0xA59 JUMPI DUP4 DUP3 SWAP1 PUSH0 MSTORE PUSH1 0x20 PUSH0 KECCAK256 SWAP1 PUSH1 0x5 MUL ADD PUSH1 0x40 MLOAD DUP1 PUSH1 0xA0 ADD PUSH1 0x40 MSTORE SWAP1 DUP2 PUSH0 DUP3 ADD SLOAD DUP2 MSTORE PUSH1 0x20 ADD PUSH1 0x1 DUP3 ADD PUSH0 SWAP1 SLOAD SWAP1 PUSH2 0x100 EXP SWAP1 DIV PUSH20 0xFFFFFFFFFFFFFFFFFFFFFFFFFFFFFFFFFFFFFFFF AND PUSH20 0xFFFFFFFFFFFFFFFFFFFFFFFFFFFFFFFFFFFFFFFF AND PUSH20 0xFFFFFFFFFFFFFFFFFFFFFFFFFFFFFFFFFFFFFFFF AND DUP2 MSTORE PUSH1 0x20 ADD PUSH1 0x2 DUP3 ADD DUP1 SLOAD PUSH2 0x9A6 SWAP1 PUSH2 0x1064 JUMP JUMPDEST DUP1 PUSH1 0x1F ADD PUSH1 0x20 DUP1 SWAP2 DIV MUL PUSH1 0x20 ADD PUSH1 0x40 MLOAD SWAP1 DUP2 ADD PUSH1 0x40 MSTORE DUP1 SWAP3 SWAP2 SWAP1 DUP2 DUP2 MSTORE PUSH1 0x20 ADD DUP3 DUP1 SLOAD PUSH2 0x9D2 SWAP1 PUSH2 0x1064 JUMP JUMPDEST DUP1 ISZERO PUSH2 0xA1D JUMPI DUP1 PUSH1 0x1F LT PUSH2 0x9F4 JUMPI PUSH2 0x100 DUP1 DUP4 SLOAD DIV MUL DUP4 MSTORE SWAP2 PUSH1 0x20 ADD SWAP2 PUSH2 0xA1D JUMP JUMPDEST DUP3 ADD SWAP2 SWAP1 PUSH0 MSTORE PUSH1 0x20 PUSH0 KECCAK256 SWAP1 JUMPDEST DUP2 SLOAD DUP2 MSTORE SWAP1 PUSH1 0x1 ADD SWAP1 PUSH1 0x20 ADD DUP1 DUP4 GT PUSH2 0xA00 JUMPI DUP3 SWAP1 SUB PUSH1 0x1F AND DUP3 ADD SWAP2 JUMPDEST POP POP POP POP POP DUP2 MSTORE PUSH1 0x20 ADD PUSH1 0x3 DUP3 ADD SLOAD DUP2 MSTORE PUSH1 0x20 ADD PUSH1 0x4 DUP3 ADD PUSH0 SWAP1 SLOAD SWAP1 PUSH2 0x100 EXP SWAP1 DIV PUSH1 0xFF AND ISZERO ISZERO ISZERO ISZERO DUP2 MSTORE POP POP DUP2 MSTORE PUSH1 0x20 ADD SWAP1 PUSH1 0x1 ADD SWAP1 PUSH2 0x917 JUMP JUMPDEST POP POP POP POP SWAP1 POP SWAP2 SWAP1 POP JUMP JUMPDEST PUSH0 PUSH1 0x40 MLOAD SWAP1 POP SWAP1 JUMP JUMPDEST PUSH0 DUP1 REVERT JUMPDEST PUSH0 DUP1 REVERT JUMPDEST PUSH0 PUSH20 0xFFFFFFFFFFFFFFFFFFFFFFFFFFFFFFFFFFFFFFFF DUP3 AND SWAP1 POP SWAP2 SWAP1 POP JUMP JUMPDEST PUSH0 PUSH2 0xA9E DUP3 PUSH2 0xA75 JUMP JUMPDEST SWAP1 POP SWAP2 SWAP1 POP JUMP JUMPDEST PUSH2 0xAAE DUP2 PUSH2 0xA94 JUMP JUMPDEST DUP2 EQ PUSH2 0xAB8 JUMPI PUSH0 DUP1 REVERT JUMPDEST POP JUMP JUMPDEST PUSH0 DUP2 CALLDATALOAD SWAP1 POP PUSH2 0xAC9 DUP2 PUSH2 0xAA5 JUMP JUMPDEST SWAP3 SWAP2 POP POP JUMP JUMPDEST PUSH0 DUP2 SWAP1 POP SWAP2 SWAP1 POP JUMP JUMPDEST PUSH2 0xAE1 DUP2 PUSH2 0xACF JUMP JUMPDEST DUP2 EQ PUSH2 0xAEB JUMPI PUSH0 DUP1 REVERT JUMPDEST POP JUMP JUMPDEST PUSH0 DUP2 CALLDATALOAD SWAP1 POP PUSH2 0xAFC DUP2 PUSH2 0xAD8 JUMP JUMPDEST SWAP3 SWAP2 POP POP JUMP JUMPDEST PUSH0 DUP1 PUSH1 0x40 DUP4 DUP6 SUB SLT ISZERO PUSH2 0xB18 JUMPI PUSH2 0xB17 PUSH2 0xA6D JUMP JUMPDEST JUMPDEST PUSH0 PUSH2 0xB25 DUP6 DUP3 DUP7 ADD PUSH2 0xABB JUMP JUMPDEST SWAP3 POP POP PUSH1 0x20 PUSH2 0xB36 DUP6 DUP3 DUP7 ADD PUSH2 0xAEE JUMP JUMPDEST SWAP2 POP POP SWAP3 POP SWAP3 SWAP1 POP JUMP JUMPDEST PUSH2 0xB49 DUP2 PUSH2 0xACF JUMP JUMPDEST DUP3 MSTORE POP POP JUMP JUMPDEST PUSH2 0xB58 DUP2 PUSH2 0xA94 JUMP JUMPDEST DUP3 MSTORE POP POP JUMP JUMPDEST PUSH0 DUP2 MLOAD SWAP1 POP SWAP2 SWAP1 POP JUMP JUMPDEST PUSH0 DUP3 DUP3 MSTORE PUSH1 0x20 DUP3 ADD SWAP1 POP SWAP3 SWAP2 POP POP JUMP JUMPDEST PUSH0 JUMPDEST DUP4 DUP2 LT ISZERO PUSH2 0xB95 JUMPI DUP1 DUP3 ADD MLOAD DUP2 DUP5 ADD MSTORE PUSH1 0x20 DUP2 ADD SWAP1 POP PUSH2 0xB7A JUMP JUMPDEST PUSH0 DUP5 DUP5 ADD MSTORE POP POP POP POP JUMP JUMPDEST PUSH0 PUSH1 0x1F NOT PUSH1 0x1F DUP4 ADD AND SWAP1 POP SWAP2 SWAP1 POP JUMP JUMPDEST PUSH0 PUSH2 0xBBA DUP3 PUSH2 0xB5E JUMP JUMPDEST PUSH2 0xBC4 DUP2 DUP6 PUSH2 0xB68 JUMP JUMPDEST SWAP4 POP PUSH2 0xBD4 DUP2 DUP6 PUSH1 0x20 DUP7 ADD PUSH2 0xB78 JUMP JUMPDEST PUSH2 0xBDD DUP2 PUSH2 0xBA0 JUMP JUMPDEST DUP5 ADD SWAP2 POP POP SWAP3 SWAP2 POP POP JUMP JUMPDEST PUSH0 DUP2 ISZERO ISZERO SWAP1 POP SWAP2 SWAP1 POP JUMP JUMPDEST PUSH2 0xBFC DUP2 PUSH2 0xBE8 JUMP JUMPDEST DUP3 MSTORE POP POP JUMP JUMPDEST PUSH0 PUSH1 0xA0 DUP3 ADD SWAP1 POP PUSH2 0xC15 PUSH0 DUP4 ADD DUP9 PUSH2 0xB40 JUMP JUMPDEST PUSH2 0xC22 PUSH1 0x20 DUP4 ADD DUP8 PUSH2 0xB4F JUMP JUMPDEST DUP2 DUP2 SUB PUSH1 0x40 DUP4 ADD MSTORE PUSH2 0xC34 DUP2 DUP7 PUSH2 0xBB0 JUMP JUMPDEST SWAP1 POP PUSH2 0xC43 PUSH1 0x60 DUP4 ADD DUP6 PUSH2 0xB40 JUMP JUMPDEST PUSH2 0xC50 PUSH1 0x80 DUP4 ADD DUP5 PUSH2 0xBF3 JUMP JUMPDEST SWAP7 SWAP6 POP POP POP POP POP POP JUMP JUMPDEST PUSH0 PUSH1 0x20 DUP3 DUP5 SUB SLT ISZERO PUSH2 0xC6F JUMPI PUSH2 0xC6E PUSH2 0xA6D JUMP JUMPDEST JUMPDEST PUSH0 PUSH2 0xC7C DUP5 DUP3 DUP6 ADD PUSH2 0xABB JUMP JUMPDEST SWAP2 POP POP SWAP3 SWAP2 POP POP JUMP JUMPDEST PUSH0 DUP2 MLOAD SWAP1 POP SWAP2 SWAP1 POP JUMP JUMPDEST PUSH0 DUP3 DUP3 MSTORE PUSH1 0x20 DUP3 ADD SWAP1 POP SWAP3 SWAP2 POP POP JUMP JUMPDEST PUSH0 DUP2 SWAP1 POP PUSH1 0x20 DUP3 ADD SWAP1 POP SWAP2 SWAP1 POP JUMP JUMPDEST PUSH2 0xCB7 DUP2 PUSH2 0xACF JUMP JUMPDEST DUP3 MSTORE POP POP JUMP JUMPDEST PUSH2 0xCC6 DUP2 PUSH2 0xA94 JUMP JUMPDEST DUP3 MSTORE POP POP JUMP JUMPDEST PUSH0 DUP3 DUP3 MSTORE PUSH1 0x20 DUP3 ADD SWAP1 POP SWAP3 SWAP2 POP POP JUMP JUMPDEST PUSH0 PUSH2 0xCE6 DUP3 PUSH2 0xB5E JUMP JUMPDEST PUSH2 0xCF0 DUP2 DUP6 PUSH2 0xCCC JUMP JUMPDEST SWAP4 POP PUSH2 0xD00 DUP2 DUP6 PUSH1 0x20 DUP7 ADD PUSH2 0xB78 JUMP JUMPDEST PUSH2 0xD09 DUP2 PUSH2 0xBA0 JUMP JUMPDEST DUP5 ADD SWAP2 POP POP SWAP3 SWAP2 POP POP JUMP JUMPDEST PUSH2 0xD1D DUP2 PUSH2 0xBE8 JUMP JUMPDEST DUP3 MSTORE POP POP JUMP JUMPDEST PUSH0 PUSH1 0xA0 DUP4 ADD PUSH0 DUP4 ADD MLOAD PUSH2 0xD38 PUSH0 DUP7 ADD DUP3 PUSH2 0xCAE JUMP JUMPDEST POP PUSH1 0x20 DUP4 ADD MLOAD PUSH2 0xD4B PUSH1 0x20 DUP7 ADD DUP3 PUSH2 0xCBD JUMP JUMPDEST POP PUSH1 0x40 DUP4 ADD MLOAD DUP5 DUP3 SUB PUSH1 0x40 DUP7 ADD MSTORE PUSH2 0xD63 DUP3 DUP3 PUSH2 0xCDC JUMP JUMPDEST SWAP2 POP POP PUSH1 0x60 DUP4 ADD MLOAD PUSH2 0xD78 PUSH1 0x60 DUP7 ADD DUP3 PUSH2 0xCAE JUMP JUMPDEST POP PUSH1 0x80 DUP4 ADD MLOAD PUSH2 0xD8B PUSH1 0x80 DUP7 ADD DUP3 PUSH2 0xD14 JUMP JUMPDEST POP DUP1 SWAP2 POP POP SWAP3 SWAP2 POP POP JUMP JUMPDEST PUSH0 PUSH2 0xDA1 DUP4 DUP4 PUSH2 0xD23 JUMP JUMPDEST SWAP1 POP SWAP3 SWAP2 POP POP JUMP JUMPDEST PUSH0 PUSH1 0x20 DUP3 ADD SWAP1 POP SWAP2 SWAP1 POP JUMP JUMPDEST PUSH0 PUSH2 0xDBF DUP3 PUSH2 0xC85 JUMP JUMPDEST PUSH2 0xDC9 DUP2 DUP6 PUSH2 0xC8F JUMP JUMPDEST SWAP4 POP DUP4 PUSH1 0x20 DUP3 MUL DUP6 ADD PUSH2 0xDDB DUP6 PUSH2 0xC9F JUMP JUMPDEST DUP1 PUSH0 JUMPDEST DUP6 DUP2 LT ISZERO PUSH2 0xE16 JUMPI DUP5 DUP5 SUB DUP10 MSTORE DUP2 MLOAD PUSH2 0xDF7 DUP6 DUP3 PUSH2 0xD96 JUMP JUMPDEST SWAP5 POP PUSH2 0xE02 DUP4 PUSH2 0xDA9 JUMP JUMPDEST SWAP3 POP PUSH1 0x20 DUP11 ADD SWAP10 POP POP PUSH1 0x1 DUP2 ADD SWAP1 POP PUSH2 0xDDE JUMP JUMPDEST POP DUP3 SWAP8 POP DUP8 SWAP6 POP POP POP POP POP POP SWAP3 SWAP2 POP POP JUMP JUMPDEST PUSH0 PUSH1 0x20 DUP3 ADD SWAP1 POP DUP2 DUP2 SUB PUSH0 DUP4 ADD MSTORE PUSH2 0xE40 DUP2 DUP5 PUSH2 0xDB5 JUMP JUMPDEST SWAP1 POP SWAP3 SWAP2 POP POP JUMP JUMPDEST PUSH0 DUP1 REVERT JUMPDEST PUSH0 DUP1 REVERT JUMPDEST PUSH32 0x4E487B7100000000000000000000000000000000000000000000000000000000 PUSH0 MSTORE PUSH1 0x41 PUSH1 0x4 MSTORE PUSH1 0x24 PUSH0 REVERT JUMPDEST PUSH2 0xE86 DUP3 PUSH2 0xBA0 JUMP JUMPDEST DUP2 ADD DUP2 DUP2 LT PUSH8 0xFFFFFFFFFFFFFFFF DUP3 GT OR ISZERO PUSH2 0xEA5 JUMPI PUSH2 0xEA4 PUSH2 0xE50 JUMP JUMPDEST JUMPDEST DUP1 PUSH1 0x40 MSTORE POP POP POP JUMP JUMPDEST PUSH0 PUSH2 0xEB7 PUSH2 0xA64 JUMP JUMPDEST SWAP1 POP PUSH2 0xEC3 DUP3 DUP3 PUSH2 0xE7D JUMP JUMPDEST SWAP2 SWAP1 POP JUMP JUMPDEST PUSH0 PUSH8 0xFFFFFFFFFFFFFFFF DUP3 GT ISZERO PUSH2 0xEE2 JUMPI PUSH2 0xEE1 PUSH2 0xE50 JUMP JUMPDEST JUMPDEST PUSH2 0xEEB DUP3 PUSH2 0xBA0 JUMP JUMPDEST SWAP1 POP PUSH1 0x20 DUP2 ADD SWAP1 POP SWAP2 SWAP1 POP JUMP JUMPDEST DUP3 DUP2 DUP4 CALLDATACOPY PUSH0 DUP4 DUP4 ADD MSTORE POP POP POP JUMP JUMPDEST PUSH0 PUSH2 0xF18 PUSH2 0xF13 DUP5 PUSH2 0xEC8 JUMP JUMPDEST PUSH2 0xEAE JUMP JUMPDEST SWAP1 POP DUP3 DUP2 MSTORE PUSH1 0x20 DUP2 ADD DUP5 DUP5 DUP5 ADD GT ISZERO PUSH2 0xF34 JUMPI PUSH2 0xF33 PUSH2 0xE4C JUMP JUMPDEST JUMPDEST PUSH2 0xF3F DUP5 DUP3 DUP6 PUSH2 0xEF8 JUMP JUMPDEST POP SWAP4 SWAP3 POP POP POP JUMP JUMPDEST PUSH0 DUP3 PUSH1 0x1F DUP4 ADD SLT PUSH2 0xF5B JUMPI PUSH2 0xF5A PUSH2 0xE48 JUMP JUMPDEST JUMPDEST DUP2 CALLDATALOAD PUSH2 0xF6B DUP5 DUP3 PUSH1 0x20 DUP7 ADD PUSH2 0xF06 JUMP JUMPDEST SWAP2 POP POP SWAP3 SWAP2 POP POP JUMP JUMPDEST PUSH0 DUP1 PUSH1 0x40 DUP4 DUP6 SUB SLT ISZERO PUSH2 0xF8A JUMPI PUSH2 0xF89 PUSH2 0xA6D JUMP JUMPDEST JUMPDEST PUSH0 PUSH2 0xF97 DUP6 DUP3 DUP7 ADD PUSH2 0xAEE JUMP JUMPDEST SWAP3 POP POP PUSH1 0x20 DUP4 ADD CALLDATALOAD PUSH8 0xFFFFFFFFFFFFFFFF DUP2 GT ISZERO PUSH2 0xFB8 JUMPI PUSH2 0xFB7 PUSH2 0xA71 JUMP JUMPDEST JUMPDEST PUSH2 0xFC4 DUP6 DUP3 DUP7 ADD PUSH2 0xF47 JUMP JUMPDEST SWAP2 POP POP SWAP3 POP SWAP3 SWAP1 POP JUMP JUMPDEST PUSH0 DUP1 PUSH1 0x40 DUP4 DUP6 SUB SLT ISZERO PUSH2 0xFE4 JUMPI PUSH2 0xFE3 PUSH2 0xA6D JUMP JUMPDEST JUMPDEST PUSH0 PUSH2 0xFF1 DUP6 DUP3 DUP7 ADD PUSH2 0xAEE JUMP JUMPDEST SWAP3 POP POP PUSH1 0x20 PUSH2 0x1002 DUP6 DUP3 DUP7 ADD PUSH2 0xAEE JUMP JUMPDEST SWAP2 POP POP SWAP3 POP SWAP3 SWAP1 POP JUMP JUMPDEST PUSH0 PUSH1 0x20 DUP3 DUP5 SUB SLT ISZERO PUSH2 0x1021 JUMPI PUSH2 0x1020 PUSH2 0xA6D JUMP JUMPDEST JUMPDEST PUSH0 PUSH2 0x102E DUP5 DUP3 DUP6 ADD PUSH2 0xAEE JUMP JUMPDEST SWAP2 POP POP SWAP3 SWAP2 POP POP JUMP JUMPDEST PUSH32 0x4E487B7100000000000000000000000000000000000000000000000000000000 PUSH0 MSTORE PUSH1 0x22 PUSH1 0x4 MSTORE PUSH1 0x24 PUSH0 REVERT JUMPDEST PUSH0 PUSH1 0x2 DUP3 DIV SWAP1 POP PUSH1 0x1 DUP3 AND DUP1 PUSH2 0x107B JUMPI PUSH1 0x7F DUP3 AND SWAP2 POP JUMPDEST PUSH1 0x20 DUP3 LT DUP2 SUB PUSH2 0x108E JUMPI PUSH2 0x108D PUSH2 0x1037 JUMP JUMPDEST JUMPDEST POP SWAP2 SWAP1 POP JUMP JUMPDEST PUSH0 PUSH1 0x20 DUP3 ADD SWAP1 POP PUSH2 0x10A7 PUSH0 DUP4 ADD DUP5 PUSH2 0xB40 JUMP JUMPDEST SWAP3 SWAP2 POP POP JUMP JUMPDEST PUSH0 DUP1 REVERT JUMPDEST PUSH0 DUP1 REVERT JUMPDEST PUSH0 DUP2 MLOAD SWAP1 POP PUSH2 0x10C3 DUP2 PUSH2 0xAD8 JUMP JUMPDEST SWAP3 SWAP2 POP POP JUMP JUMPDEST PUSH0 PUSH2 0x10DB PUSH2 0x10D6 DUP5 PUSH2 0xEC8 JUMP JUMPDEST PUSH2 0xEAE JUMP JUMPDEST SWAP1 POP DUP3 DUP2 MSTORE PUSH1 0x20 DUP2 ADD DUP5 DUP5 DUP5 ADD GT ISZERO PUSH2 0x10F7 JUMPI PUSH2 0x10F6 PUSH2 0xE4C JUMP JUMPDEST JUMPDEST PUSH2 0x1102 DUP5 DUP3 DUP6 PUSH2 0xB78 JUMP JUMPDEST POP SWAP4 SWAP3 POP POP POP JUMP JUMPDEST PUSH0 DUP3 PUSH1 0x1F DUP4 ADD SLT PUSH2 0x111E JUMPI PUSH2 0x111D PUSH2 0xE48 JUMP JUMPDEST JUMPDEST DUP2 MLOAD PUSH2 0x112E DUP5 DUP3 PUSH1 0x20 DUP7 ADD PUSH2 0x10C9 JUMP JUMPDEST SWAP2 POP POP SWAP3 SWAP2 POP POP JUMP JUMPDEST PUSH2 0x1140 DUP2 PUSH2 0xBE8 JUMP JUMPDEST DUP2 EQ PUSH2 0x114A JUMPI PUSH0 DUP1 REVERT JUMPDEST POP JUMP JUMPDEST PUSH0 DUP2 MLOAD SWAP1 POP PUSH2 0x115B DUP2 PUSH2 0x1137 JUMP JUMPDEST SWAP3 SWAP2 POP POP JUMP JUMPDEST PUSH0 PUSH1 0xA0 DUP3 DUP5 SUB SLT ISZERO PUSH2 0x1176 JUMPI PUSH2 0x1175 PUSH2 0x10AD JUMP JUMPDEST JUMPDEST PUSH2 0x1180 PUSH1 0xA0 PUSH2 0xEAE JUMP JUMPDEST SWAP1 POP PUSH0 PUSH2 0x118F DUP5 DUP3 DUP6 ADD PUSH2 0x10B5 JUMP JUMPDEST PUSH0 DUP4 ADD MSTORE POP PUSH1 0x20 DUP3 ADD MLOAD PUSH8 0xFFFFFFFFFFFFFFFF DUP2 GT ISZERO PUSH2 0x11B2 JUMPI PUSH2 0x11B1 PUSH2 0x10B1 JUMP JUMPDEST JUMPDEST PUSH2 0x11BE DUP5 DUP3 DUP6 ADD PUSH2 0x110A JUMP JUMPDEST PUSH1 0x20 DUP4 ADD MSTORE POP PUSH1 0x40 DUP3 ADD MLOAD PUSH8 0xFFFFFFFFFFFFFFFF DUP2 GT ISZERO PUSH2 0x11E2 JUMPI PUSH2 0x11E1 PUSH2 0x10B1 JUMP JUMPDEST JUMPDEST PUSH2 0x11EE DUP5 DUP3 DUP6 ADD PUSH2 0x110A JUMP JUMPDEST PUSH1 0x40 DUP4 ADD MSTORE POP PUSH1 0x60 PUSH2 0x1202 DUP5 DUP3 DUP6 ADD PUSH2 0x10B5 JUMP JUMPDEST PUSH1 0x60 DUP4 ADD MSTORE POP PUSH1 0x80 PUSH2 0x1216 DUP5 DUP3 DUP6 ADD PUSH2 0x114D JUMP JUMPDEST PUSH1 0x80 DUP4 ADD MSTORE POP SWAP3 SWAP2 POP POP JUMP JUMPDEST PUSH0 PUSH1 0x20 DUP3 DUP5 SUB SLT ISZERO PUSH2 0x1237 JUMPI PUSH2 0x1236 PUSH2 0xA6D JUMP JUMPDEST JUMPDEST PUSH0 DUP3 ADD MLOAD PUSH8 0xFFFFFFFFFFFFFFFF DUP2 GT ISZERO PUSH2 0x1254 JUMPI PUSH2 0x1253 PUSH2 0xA71 JUMP JUMPDEST JUMPDEST PUSH2 0x1260 DUP5 DUP3 DUP6 ADD PUSH2 0x1161 JUMP JUMPDEST SWAP2 POP POP SWAP3 SWAP2 POP POP JUMP JUMPDEST PUSH32 0x524650206973206E6F7420616374697665206F7220646F6573206E6F74206578 PUSH0 DUP3 ADD MSTORE PUSH32 0x6973740000000000000000000000000000000000000000000000000000000000 PUSH1 0x20 DUP3 ADD MSTORE POP JUMP JUMPDEST PUSH0 PUSH2 0x12C3 PUSH1 0x23 DUP4 PUSH2 0xB68 JUMP JUMPDEST SWAP2 POP PUSH2 0x12CE DUP3 PUSH2 0x1269 JUMP JUMPDEST PUSH1 0x40 DUP3 ADD SWAP1 POP SWAP2 SWAP1 POP JUMP JUMPDEST PUSH0 PUSH1 0x20 DUP3 ADD SWAP1 POP DUP2 DUP2 SUB PUSH0 DUP4 ADD MSTORE PUSH2 0x12F0 DUP2 PUSH2 0x12B7 JUMP JUMPDEST SWAP1 POP SWAP2 SWAP1 POP JUMP JUMPDEST PUSH32 0x54686520646561646C696E6520666F7220746869732052465020686173207061 PUSH0 DUP3 ADD MSTORE PUSH32 0x7373656400000000000000000000000000000000000000000000000000000000 PUSH1 0x20 DUP3 ADD MSTORE POP JUMP JUMPDEST PUSH0 PUSH2 0x1351 PUSH1 0x24 DUP4 PUSH2 0xB68 JUMP JUMPDEST SWAP2 POP PUSH2 0x135C DUP3 PUSH2 0x12F7 JUMP JUMPDEST PUSH1 0x40 DUP3 ADD SWAP1 POP SWAP2 SWAP1 POP JUMP JUMPDEST PUSH0 PUSH1 0x20 DUP3 ADD SWAP1 POP DUP2 DUP2 SUB PUSH0 DUP4 ADD MSTORE PUSH2 0x137E DUP2 PUSH2 0x1345 JUMP JUMPDEST SWAP1 POP SWAP2 SWAP1 POP JUMP JUMPDEST PUSH0 DUP2 SWAP1 POP DUP2 PUSH0 MSTORE PUSH1 0x20 PUSH0 KECCAK256 SWAP1 POP SWAP2 SWAP1 POP JUMP JUMPDEST PUSH0 PUSH1 0x20 PUSH1 0x1F DUP4 ADD DIV SWAP1 POP SWAP2 SWAP1 POP JUMP JUMPDEST PUSH0 DUP3 DUP3 SHL SWAP1 POP SWAP3 SWAP2 POP POP JUMP JUMPDEST PUSH0 PUSH1 0x8 DUP4 MUL PUSH2 0x13E1 PUSH32 0xFFFFFFFFFFFFFFFFFFFFFFFFFFFFFFFFFFFFFFFFFFFFFFFFFFFFFFFFFFFFFFFF DUP3 PUSH2 0x13A6 JUMP JUMPDEST PUSH2 0x13EB DUP7 DUP4 PUSH2 0x13A6 JUMP JUMPDEST SWAP6 POP DUP1 NOT DUP5 AND SWAP4 POP DUP1 DUP7 AND DUP5 OR SWAP3 POP POP POP SWAP4 SWAP3 POP POP POP JUMP JUMPDEST PUSH0 DUP2 SWAP1 POP SWAP2 SWAP1 POP JUMP JUMPDEST PUSH0 PUSH2 0x1426 PUSH2 0x1421 PUSH2 0x141C DUP5 PUSH2 0xACF JUMP JUMPDEST PUSH2 0x1403 JUMP JUMPDEST PUSH2 0xACF JUMP JUMPDEST SWAP1 POP SWAP2 SWAP1 POP JUMP JUMPDEST PUSH0 DUP2 SWAP1 POP SWAP2 SWAP1 POP JUMP JUMPDEST PUSH2 0x143F DUP4 PUSH2 0x140C JUMP JUMPDEST PUSH2 0x1453 PUSH2 0x144B DUP3 PUSH2 0x142D JUMP JUMPDEST DUP5 DUP5 SLOAD PUSH2 0x13B2 JUMP JUMPDEST DUP3 SSTORE POP POP POP POP JUMP JUMPDEST PUSH0 SWAP1 JUMP JUMPDEST PUSH2 0x1467 PUSH2 0x145B JUMP JUMPDEST PUSH2 0x1472 DUP2 DUP5 DUP5 PUSH2 0x1436 JUMP JUMPDEST POP POP POP JUMP JUMPDEST JUMPDEST DUP2 DUP2 LT ISZERO PUSH2 0x1495 JUMPI PUSH2 0x148A PUSH0 DUP3 PUSH2 0x145F JUMP JUMPDEST PUSH1 0x1 DUP2 ADD SWAP1 POP PUSH2 0x1478 JUMP JUMPDEST POP POP JUMP JUMPDEST PUSH1 0x1F DUP3 GT ISZERO PUSH2 0x14DA JUMPI PUSH2 0x14AB DUP2 PUSH2 0x1385 JUMP JUMPDEST PUSH2 0x14B4 DUP5 PUSH2 0x1397 JUMP JUMPDEST DUP2 ADD PUSH1 0x20 DUP6 LT ISZERO PUSH2 0x14C3 JUMPI DUP2 SWAP1 POP JUMPDEST PUSH2 0x14D7 PUSH2 0x14CF DUP6 PUSH2 0x1397 JUMP JUMPDEST DUP4 ADD DUP3 PUSH2 0x1477 JUMP JUMPDEST POP POP JUMPDEST POP POP POP JUMP JUMPDEST PUSH0 DUP3 DUP3 SHR SWAP1 POP SWAP3 SWAP2 POP POP JUMP JUMPDEST PUSH0 PUSH2 0x14FA PUSH0 NOT DUP5 PUSH1 0x8 MUL PUSH2 0x14DF JUMP JUMPDEST NOT DUP1 DUP4 AND SWAP2 POP POP SWAP3 SWAP2 POP POP JUMP JUMPDEST PUSH0 PUSH2 0x1512 DUP4 DUP4 PUSH2 0x14EB JUMP JUMPDEST SWAP2 POP DUP3 PUSH1 0x2 MUL DUP3 OR SWAP1 POP SWAP3 SWAP2 POP POP JUMP JUMPDEST PUSH2 0x152B DUP3 PUSH2 0xB5E JUMP JUMPDEST PUSH8 0xFFFFFFFFFFFFFFFF DUP2 GT ISZERO PUSH2 0x1544 JUMPI PUSH2 0x1543 PUSH2 0xE50 JUMP JUMPDEST JUMPDEST PUSH2 0x154E DUP3 SLOAD PUSH2 0x1064 JUMP JUMPDEST PUSH2 0x1559 DUP3 DUP3 DUP6 PUSH2 0x1499 JUMP JUMPDEST PUSH0 PUSH1 0x20 SWAP1 POP PUSH1 0x1F DUP4 GT PUSH1 0x1 DUP2 EQ PUSH2 0x158A JUMPI PUSH0 DUP5 ISZERO PUSH2 0x1578 JUMPI DUP3 DUP8 ADD MLOAD SWAP1 POP JUMPDEST PUSH2 0x1582 DUP6 DUP3 PUSH2 0x1507 JUMP JUMPDEST DUP7 SSTORE POP PUSH2 0x15E9 JUMP JUMPDEST PUSH1 0x1F NOT DUP5 AND PUSH2 0x1598 DUP7 PUSH2 0x1385 JUMP JUMPDEST PUSH0 JUMPDEST DUP3 DUP2 LT ISZERO PUSH2 0x15BF JUMPI DUP5 DUP10 ADD MLOAD DUP3 SSTORE PUSH1 0x1 DUP3 ADD SWAP2 POP PUSH1 0x20 DUP6 ADD SWAP5 POP PUSH1 0x20 DUP2 ADD SWAP1 POP PUSH2 0x159A JUMP JUMPDEST DUP7 DUP4 LT ISZERO PUSH2 0x15DC JUMPI DUP5 DUP10 ADD MLOAD PUSH2 0x15D8 PUSH1 0x1F DUP10 AND DUP3 PUSH2 0x14EB JUMP JUMPDEST DUP4 SSTORE POP JUMPDEST PUSH1 0x1 PUSH1 0x2 DUP9 MUL ADD DUP9 SSTORE POP POP POP JUMPDEST POP POP POP POP POP POP JUMP INVALID LOG2 PUSH5 0x6970667358 0x22 SLT KECCAK256 0xDB SLOAD 0xF9 PUSH21 0xDEB67E6414A598A5BE5C77590B7C27BA91D33553FA EXTCODEHASH SELFBALANCE 0x5E PUSH12 0x38543864736F6C6343000816 STOP CALLER "
		},
		"gasEstimates": {
			"creation": {
				"codeDepositCost": "1134200",
				"executionCost": "infinite",
				"totalCost": "infinite"
			},
			"external": {
				"bidsByRFP(uint256,uint256)": "infinite",
				"bidsByVendor(address,uint256)": "infinite",
				"getBidsByVendor(address)": "infinite",
				"getBidsForRFP(uint256)": "infinite",
				"submitBid(uint256,string)": "infinite"
			}
		},
		"methodIdentifiers": {
			"bidsByRFP(uint256,uint256)": "6442f738",
			"bidsByVendor(address,uint256)": "12038f95",
			"getBidsByVendor(address)": "332f7973",
			"getBidsForRFP(uint256)": "ecca790e",
			"submitBid(uint256,string)": "3a01135e"
		}
	},
	"abi": [
		{
			"inputs": [
				{
					"internalType": "address",
					"name": "_rfpContractAddress",
					"type": "address"
				}
			],
			"stateMutability": "nonpayable",
			"type": "constructor"
		},
		{
			"anonymous": false,
			"inputs": [
				{
					"indexed": true,
					"internalType": "uint256",
					"name": "rfpId",
					"type": "uint256"
				},
				{
					"indexed": true,
					"internalType": "address",
					"name": "vendor",
					"type": "address"
				}
			],
			"name": "BidSubmitted",
			"type": "event"
		},
		{
			"inputs": [
				{
					"internalType": "uint256",
					"name": "",
					"type": "uint256"
				},
				{
					"internalType": "uint256",
					"name": "",
					"type": "uint256"
				}
			],
			"name": "bidsByRFP",
			"outputs": [
				{
					"internalType": "uint256",
					"name": "rfpId",
					"type": "uint256"
				},
				{
					"internalType": "address",
					"name": "vendor",
					"type": "address"
				},
				{
					"internalType": "string",
					"name": "bidDetails",
					"type": "string"
				},
				{
					"internalType": "uint256",
					"name": "timestamp",
					"type": "uint256"
				},
				{
					"internalType": "bool",
					"name": "isSubmitted",
					"type": "bool"
				}
			],
			"stateMutability": "view",
			"type": "function"
		},
		{
			"inputs": [
				{
					"internalType": "address",
					"name": "",
					"type": "address"
				},
				{
					"internalType": "uint256",
					"name": "",
					"type": "uint256"
				}
			],
			"name": "bidsByVendor",
			"outputs": [
				{
					"internalType": "uint256",
					"name": "rfpId",
					"type": "uint256"
				},
				{
					"internalType": "address",
					"name": "vendor",
					"type": "address"
				},
				{
					"internalType": "string",
					"name": "bidDetails",
					"type": "string"
				},
				{
					"internalType": "uint256",
					"name": "timestamp",
					"type": "uint256"
				},
				{
					"internalType": "bool",
					"name": "isSubmitted",
					"type": "bool"
				}
			],
			"stateMutability": "view",
			"type": "function"
		},
		{
			"inputs": [
				{
					"internalType": "address",
					"name": "_vendor",
					"type": "address"
				}
			],
			"name": "getBidsByVendor",
			"outputs": [
				{
					"components": [
						{
							"internalType": "uint256",
							"name": "rfpId",
							"type": "uint256"
						},
						{
							"internalType": "address",
							"name": "vendor",
							"type": "address"
						},
						{
							"internalType": "string",
							"name": "bidDetails",
							"type": "string"
						},
						{
							"internalType": "uint256",
							"name": "timestamp",
							"type": "uint256"
						},
						{
							"internalType": "bool",
							"name": "isSubmitted",
							"type": "bool"
						}
					],
					"internalType": "struct BidSubmission.Bid[]",
					"name": "",
					"type": "tuple[]"
				}
			],
			"stateMutability": "view",
			"type": "function"
		},
		{
			"inputs": [
				{
					"internalType": "uint256",
					"name": "_rfpId",
					"type": "uint256"
				}
			],
			"name": "getBidsForRFP",
			"outputs": [
				{
					"components": [
						{
							"internalType": "uint256",
							"name": "rfpId",
							"type": "uint256"
						},
						{
							"internalType": "address",
							"name": "vendor",
							"type": "address"
						},
						{
							"internalType": "string",
							"name": "bidDetails",
							"type": "string"
						},
						{
							"internalType": "uint256",
							"name": "timestamp",
							"type": "uint256"
						},
						{
							"internalType": "bool",
							"name": "isSubmitted",
							"type": "bool"
						}
					],
					"internalType": "struct BidSubmission.Bid[]",
					"name": "",
					"type": "tuple[]"
				}
			],
			"stateMutability": "view",
			"type": "function"
		},
		{
			"inputs": [
				{
					"internalType": "uint256",
					"name": "_rfpId",
					"type": "uint256"
				},
				{
					"internalType": "string",
					"name": "_bidDetails",
					"type": "string"
				}
			],
			"name": "submitBid",
			"outputs": [],
			"stateMutability": "nonpayable",
			"type": "function"
		}
	]
}