{
	"data": {
		"bytecode": {
			"linkReferences": {},
			"object": "608060405234801562000010575f80fd5b50604051620012ff380380620012ff833981810160405281019062000036919062000268565b855f806101000a81548173ffffffffffffffffffffffffffffffffffffffff021916908373ffffffffffffffffffffffffffffffffffffffff1602179055508460015f6101000a81548173ffffffffffffffffffffffffffffffffffffffff021916908373ffffffffffffffffffffffffffffffffffffffff1602179055508360025f6101000a81548173ffffffffffffffffffffffffffffffffffffffff021916908373ffffffffffffffffffffffffffffffffffffffff1602179055508260035f6101000a81548173ffffffffffffffffffffffffffffffffffffffff021916908373ffffffffffffffffffffffffffffffffffffffff1602179055508160045f6101000a81548173ffffffffffffffffffffffffffffffffffffffff021916908373ffffffffffffffffffffffffffffffffffffffff1602179055508060055f6101000a81548173ffffffffffffffffffffffffffffffffffffffff021916908373ffffffffffffffffffffffffffffffffffffffff16021790555050505050505062000300565b5f80fd5b5f73ffffffffffffffffffffffffffffffffffffffff82169050919050565b5f620001f082620001c5565b9050919050565b6200020281620001e4565b81146200020d575f80fd5b50565b5f815190506200022081620001f7565b92915050565b5f6200023282620001c5565b9050919050565b620002448162000226565b81146200024f575f80fd5b50565b5f81519050620002628162000239565b92915050565b5f805f805f8060c08789031215620002855762000284620001c1565b5b5f6200029489828a0162000210565b9650506020620002a789828a0162000210565b9550506040620002ba89828a0162000210565b9450506060620002cd89828a0162000210565b9350506080620002e089828a0162000210565b92505060a0620002f389828a0162000252565b9150509295509295509295565b610ff1806200030e5f395ff3fe608060405234801561000f575f80fd5b50600436106100e8575f3560e01c806372b818271161008a578063bef1824911610064578063bef1824914610210578063cef463041461022c578063d3d2778f1461024a578063ddaf092914610266576100e8565b806372b81827146101b8578063a3e8cc4e146101d6578063a51b81a9146101f2576100e8565b80633cf93364116100c65780633cf933641461013057806346e7246a1461014e5780634d6d6a9c1461016a5780636396b2a21461019a576100e8565b8063113ae7f8146100ec5780631aa8bb62146100f65780633c847b5e14610114575b5f80fd5b6100f4610282565b005b6100fe610284565b60405161010b9190610791565b60405180910390f35b61012e60048036038101906101299190610829565b6102a9565b005b610138610336565b6040516101459190610887565b60405180910390f35b610168600480360381019061016391906108a0565b61035b565b005b610184600480360381019061017f91906108f0565b6103eb565b60405161019191906109dd565b60405180910390f35b6101a2610493565b6040516101af9190610a16565b60405180910390f35b6101c06104b6565b6040516101cd9190610a60565b60405180910390f35b6101f060048036038101906101eb9190610bb5565b6104db565b005b6101fa610568565b6040516102079190610c2f565b60405180910390f35b61022a60048036038101906102259190610c48565b61058d565b005b61023461061d565b6040516102419190610cf0565b60405180910390f35b610264600480360381019061025f91906108f0565b610642565b005b610280600480360381019061027b91906108f0565b6106cc565b005b565b60035f9054906101000a900473ffffffffffffffffffffffffffffffffffffffff1681565b60045f9054906101000a900473ffffffffffffffffffffffffffffffffffffffff1673ffffffffffffffffffffffffffffffffffffffff16633c847b5e83836040518363ffffffff1660e01b8152600401610305929190610d27565b5f604051808303815f87803b15801561031c575f80fd5b505af115801561032e573d5f803e3d5ffd5b505050505050565b60015f9054906101000a900473ffffffffffffffffffffffffffffffffffffffff1681565b60055f9054906101000a900473ffffffffffffffffffffffffffffffffffffffff1673ffffffffffffffffffffffffffffffffffffffff16637a4085fa8484846040518463ffffffff1660e01b81526004016103b993929190610d4e565b5f604051808303815f87803b1580156103d0575f80fd5b505af11580156103e2573d5f803e3d5ffd5b50505050505050565b6103f36106cf565b60055f9054906101000a900473ffffffffffffffffffffffffffffffffffffffff1673ffffffffffffffffffffffffffffffffffffffff16634d6d6a9c836040518263ffffffff1660e01b815260040161044d9190610d83565b60c060405180830381865afa158015610468573d5f803e3d5ffd5b505050506040513d601f19601f8201168201806040525081019061048c9190610ea5565b9050919050565b5f8054906101000a900473ffffffffffffffffffffffffffffffffffffffff1681565b60055f9054906101000a900473ffffffffffffffffffffffffffffffffffffffff1681565b60025f9054906101000a900473ffffffffffffffffffffffffffffffffffffffff1673ffffffffffffffffffffffffffffffffffffffff16633a01135e83836040518363ffffffff1660e01b8152600401610537929190610f4a565b5f604051808303815f87803b15801561054e575f80fd5b505af1158015610560573d5f803e3d5ffd5b505050505050565b60045f9054906101000a900473ffffffffffffffffffffffffffffffffffffffff1681565b60015f9054906101000a900473ffffffffffffffffffffffffffffffffffffffff1673ffffffffffffffffffffffffffffffffffffffff1663672018878484846040518463ffffffff1660e01b81526004016105eb93929190610f78565b5f604051808303815f87803b158015610602575f80fd5b505af1158015610614573d5f803e3d5ffd5b50505050505050565b60025f9054906101000a900473ffffffffffffffffffffffffffffffffffffffff1681565b60035f9054906101000a900473ffffffffffffffffffffffffffffffffffffffff1673ffffffffffffffffffffffffffffffffffffffff16633dfa2fea826040518263ffffffff1660e01b815260040161069c9190610d83565b5f604051808303815f87803b1580156106b3575f80fd5b505af11580156106c5573d5f803e3d5ffd5b5050505050565b50565b6040518060c001604052805f81526020015f73ffffffffffffffffffffffffffffffffffffffff1681526020015f151581526020015f81526020015f81526020015f81525090565b5f73ffffffffffffffffffffffffffffffffffffffff82169050919050565b5f819050919050565b5f61075961075461074f84610717565b610736565b610717565b9050919050565b5f61076a8261073f565b9050919050565b5f61077b82610760565b9050919050565b61078b81610771565b82525050565b5f6020820190506107a45f830184610782565b92915050565b5f604051905090565b5f80fd5b5f80fd5b5f819050919050565b6107cd816107bb565b81146107d7575f80fd5b50565b5f813590506107e8816107c4565b92915050565b5f6107f882610717565b9050919050565b610808816107ee565b8114610812575f80fd5b50565b5f81359050610823816107ff565b92915050565b5f806040838503121561083f5761083e6107b3565b5b5f61084c858286016107da565b925050602061085d85828601610815565b9150509250929050565b5f61087182610760565b9050919050565b61088181610867565b82525050565b5f60208201905061089a5f830184610878565b92915050565b5f805f606084860312156108b7576108b66107b3565b5b5f6108c4868287016107da565b93505060206108d5868287016107da565b92505060406108e6868287016107da565b9150509250925092565b5f60208284031215610905576109046107b3565b5b5f610912848285016107da565b91505092915050565b610924816107bb565b82525050565b5f61093482610717565b9050919050565b6109448161092a565b82525050565b5f8115159050919050565b61095e8161094a565b82525050565b60c082015f8201516109785f85018261091b565b50602082015161098b602085018261093b565b50604082015161099e6040850182610955565b5060608201516109b1606085018261091b565b5060808201516109c4608085018261091b565b5060a08201516109d760a085018261091b565b50505050565b5f60c0820190506109f05f830184610964565b92915050565b5f610a0082610760565b9050919050565b610a10816109f6565b82525050565b5f602082019050610a295f830184610a07565b92915050565b5f610a398261073f565b9050919050565b5f610a4a82610a2f565b9050919050565b610a5a81610a40565b82525050565b5f602082019050610a735f830184610a51565b92915050565b5f80fd5b5f80fd5b5f601f19601f8301169050919050565b7f4e487b71000000000000000000000000000000000000000000000000000000005f52604160045260245ffd5b610ac782610a81565b810181811067ffffffffffffffff82111715610ae657610ae5610a91565b5b80604052505050565b5f610af86107aa565b9050610b048282610abe565b919050565b5f67ffffffffffffffff821115610b2357610b22610a91565b5b610b2c82610a81565b9050602081019050919050565b828183375f83830152505050565b5f610b59610b5484610b09565b610aef565b905082815260208101848484011115610b7557610b74610a7d565b5b610b80848285610b39565b509392505050565b5f82601f830112610b9c57610b9b610a79565b5b8135610bac848260208601610b47565b91505092915050565b5f8060408385031215610bcb57610bca6107b3565b5b5f610bd8858286016107da565b925050602083013567ffffffffffffffff811115610bf957610bf86107b7565b5b610c0585828601610b88565b9150509250929050565b5f610c1982610760565b9050919050565b610c2981610c0f565b82525050565b5f602082019050610c425f830184610c20565b92915050565b5f805f60608486031215610c5f57610c5e6107b3565b5b5f84013567ffffffffffffffff811115610c7c57610c7b6107b7565b5b610c8886828701610b88565b935050602084013567ffffffffffffffff811115610ca957610ca86107b7565b5b610cb586828701610b88565b9250506040610cc6868287016107da565b9150509250925092565b5f610cda82610760565b9050919050565b610cea81610cd0565b82525050565b5f602082019050610d035f830184610ce1565b92915050565b610d12816107bb565b82525050565b610d21816107ee565b82525050565b5f604082019050610d3a5f830185610d09565b610d476020830184610d18565b9392505050565b5f606082019050610d615f830186610d09565b610d6e6020830185610d09565b610d7b6040830184610d09565b949350505050565b5f602082019050610d965f830184610d09565b92915050565b5f80fd5b5f81519050610dae816107c4565b92915050565b610dbd8161092a565b8114610dc7575f80fd5b50565b5f81519050610dd881610db4565b92915050565b610de78161094a565b8114610df1575f80fd5b50565b5f81519050610e0281610dde565b92915050565b5f60c08284031215610e1d57610e1c610d9c565b5b610e2760c0610aef565b90505f610e3684828501610da0565b5f830152506020610e4984828501610dca565b6020830152506040610e5d84828501610df4565b6040830152506060610e7184828501610da0565b6060830152506080610e8584828501610da0565b60808301525060a0610e9984828501610da0565b60a08301525092915050565b5f60c08284031215610eba57610eb96107b3565b5b5f610ec784828501610e08565b91505092915050565b5f81519050919050565b5f82825260208201905092915050565b5f5b83811015610f07578082015181840152602081019050610eec565b5f8484015250505050565b5f610f1c82610ed0565b610f268185610eda565b9350610f36818560208601610eea565b610f3f81610a81565b840191505092915050565b5f604082019050610f5d5f830185610d09565b8181036020830152610f6f8184610f12565b90509392505050565b5f6060820190508181035f830152610f908186610f12565b90508181036020830152610fa48185610f12565b9050610fb36040830184610d09565b94935050505056fea26469706673582212201492a7b89123fb80efe082359b5e0bcb9c3d81fd0e1b459d767bd2e5f3f2d4a364736f6c63430008160033",
			"opcodes": "PUSH1 0x80 PUSH1 0x40 MSTORE CALLVALUE DUP1 ISZERO PUSH3 0x10 JUMPI PUSH0 DUP1 REVERT JUMPDEST POP PUSH1 0x40 MLOAD PUSH3 0x12FF CODESIZE SUB DUP1 PUSH3 0x12FF DUP4 CODECOPY DUP2 DUP2 ADD PUSH1 0x40 MSTORE DUP2 ADD SWAP1 PUSH3 0x36 SWAP2 SWAP1 PUSH3 0x268 JUMP JUMPDEST DUP6 PUSH0 DUP1 PUSH2 0x100 EXP DUP2 SLOAD DUP2 PUSH20 0xFFFFFFFFFFFFFFFFFFFFFFFFFFFFFFFFFFFFFFFF MUL NOT AND SWAP1 DUP4 PUSH20 0xFFFFFFFFFFFFFFFFFFFFFFFFFFFFFFFFFFFFFFFF AND MUL OR SWAP1 SSTORE POP DUP5 PUSH1 0x1 PUSH0 PUSH2 0x100 EXP DUP2 SLOAD DUP2 PUSH20 0xFFFFFFFFFFFFFFFFFFFFFFFFFFFFFFFFFFFFFFFF MUL NOT AND SWAP1 DUP4 PUSH20 0xFFFFFFFFFFFFFFFFFFFFFFFFFFFFFFFFFFFFFFFF AND MUL OR SWAP1 SSTORE POP DUP4 PUSH1 0x2 PUSH0 PUSH2 0x100 EXP DUP2 SLOAD DUP2 PUSH20 0xFFFFFFFFFFFFFFFFFFFFFFFFFFFFFFFFFFFFFFFF MUL NOT AND SWAP1 DUP4 PUSH20 0xFFFFFFFFFFFFFFFFFFFFFFFFFFFFFFFFFFFFFFFF AND MUL OR SWAP1 SSTORE POP DUP3 PUSH1 0x3 PUSH0 PUSH2 0x100 EXP DUP2 SLOAD DUP2 PUSH20 0xFFFFFFFFFFFFFFFFFFFFFFFFFFFFFFFFFFFFFFFF MUL NOT AND SWAP1 DUP4 PUSH20 0xFFFFFFFFFFFFFFFFFFFFFFFFFFFFFFFFFFFFFFFF AND MUL OR SWAP1 SSTORE POP DUP2 PUSH1 0x4 PUSH0 PUSH2 0x100 EXP DUP2 SLOAD DUP2 PUSH20 0xFFFFFFFFFFFFFFFFFFFFFFFFFFFFFFFFFFFFFFFF MUL NOT AND SWAP1 DUP4 PUSH20 0xFFFFFFFFFFFFFFFFFFFFFFFFFFFFFFFFFFFFFFFF AND MUL OR SWAP1 SSTORE POP DUP1 PUSH1 0x5 PUSH0 PUSH2 0x100 EXP DUP2 SLOAD DUP2 PUSH20 0xFFFFFFFFFFFFFFFFFFFFFFFFFFFFFFFFFFFFFFFF MUL NOT AND SWAP1 DUP4 PUSH20 0xFFFFFFFFFFFFFFFFFFFFFFFFFFFFFFFFFFFFFFFF AND MUL OR SWAP1 SSTORE POP POP POP POP POP POP POP PUSH3 0x300 JUMP JUMPDEST PUSH0 DUP1 REVERT JUMPDEST PUSH0 PUSH20 0xFFFFFFFFFFFFFFFFFFFFFFFFFFFFFFFFFFFFFFFF DUP3 AND SWAP1 POP SWAP2 SWAP1 POP JUMP JUMPDEST PUSH0 PUSH3 0x1F0 DUP3 PUSH3 0x1C5 JUMP JUMPDEST SWAP1 POP SWAP2 SWAP1 POP JUMP JUMPDEST PUSH3 0x202 DUP2 PUSH3 0x1E4 JUMP JUMPDEST DUP2 EQ PUSH3 0x20D JUMPI PUSH0 DUP1 REVERT JUMPDEST POP JUMP JUMPDEST PUSH0 DUP2 MLOAD SWAP1 POP PUSH3 0x220 DUP2 PUSH3 0x1F7 JUMP JUMPDEST SWAP3 SWAP2 POP POP JUMP JUMPDEST PUSH0 PUSH3 0x232 DUP3 PUSH3 0x1C5 JUMP JUMPDEST SWAP1 POP SWAP2 SWAP1 POP JUMP JUMPDEST PUSH3 0x244 DUP2 PUSH3 0x226 JUMP JUMPDEST DUP2 EQ PUSH3 0x24F JUMPI PUSH0 DUP1 REVERT JUMPDEST POP JUMP JUMPDEST PUSH0 DUP2 MLOAD SWAP1 POP PUSH3 0x262 DUP2 PUSH3 0x239 JUMP JUMPDEST SWAP3 SWAP2 POP POP JUMP JUMPDEST PUSH0 DUP1 PUSH0 DUP1 PUSH0 DUP1 PUSH1 0xC0 DUP8 DUP10 SUB SLT ISZERO PUSH3 0x285 JUMPI PUSH3 0x284 PUSH3 0x1C1 JUMP JUMPDEST JUMPDEST PUSH0 PUSH3 0x294 DUP10 DUP3 DUP11 ADD PUSH3 0x210 JUMP JUMPDEST SWAP7 POP POP PUSH1 0x20 PUSH3 0x2A7 DUP10 DUP3 DUP11 ADD PUSH3 0x210 JUMP JUMPDEST SWAP6 POP POP PUSH1 0x40 PUSH3 0x2BA DUP10 DUP3 DUP11 ADD PUSH3 0x210 JUMP JUMPDEST SWAP5 POP POP PUSH1 0x60 PUSH3 0x2CD DUP10 DUP3 DUP11 ADD PUSH3 0x210 JUMP JUMPDEST SWAP4 POP POP PUSH1 0x80 PUSH3 0x2E0 DUP10 DUP3 DUP11 ADD PUSH3 0x210 JUMP JUMPDEST SWAP3 POP POP PUSH1 0xA0 PUSH3 0x2F3 DUP10 DUP3 DUP11 ADD PUSH3 0x252 JUMP JUMPDEST SWAP2 POP POP SWAP3 SWAP6 POP SWAP3 SWAP6 POP SWAP3 SWAP6 JUMP JUMPDEST PUSH2 0xFF1 DUP1 PUSH3 0x30E PUSH0 CODECOPY PUSH0 RETURN INVALID PUSH1 0x80 PUSH1 0x40 MSTORE CALLVALUE DUP1 ISZERO PUSH2 0xF JUMPI PUSH0 DUP1 REVERT JUMPDEST POP PUSH1 0x4 CALLDATASIZE LT PUSH2 0xE8 JUMPI PUSH0 CALLDATALOAD PUSH1 0xE0 SHR DUP1 PUSH4 0x72B81827 GT PUSH2 0x8A JUMPI DUP1 PUSH4 0xBEF18249 GT PUSH2 0x64 JUMPI DUP1 PUSH4 0xBEF18249 EQ PUSH2 0x210 JUMPI DUP1 PUSH4 0xCEF46304 EQ PUSH2 0x22C JUMPI DUP1 PUSH4 0xD3D2778F EQ PUSH2 0x24A JUMPI DUP1 PUSH4 0xDDAF0929 EQ PUSH2 0x266 JUMPI PUSH2 0xE8 JUMP JUMPDEST DUP1 PUSH4 0x72B81827 EQ PUSH2 0x1B8 JUMPI DUP1 PUSH4 0xA3E8CC4E EQ PUSH2 0x1D6 JUMPI DUP1 PUSH4 0xA51B81A9 EQ PUSH2 0x1F2 JUMPI PUSH2 0xE8 JUMP JUMPDEST DUP1 PUSH4 0x3CF93364 GT PUSH2 0xC6 JUMPI DUP1 PUSH4 0x3CF93364 EQ PUSH2 0x130 JUMPI DUP1 PUSH4 0x46E7246A EQ PUSH2 0x14E JUMPI DUP1 PUSH4 0x4D6D6A9C EQ PUSH2 0x16A JUMPI DUP1 PUSH4 0x6396B2A2 EQ PUSH2 0x19A JUMPI PUSH2 0xE8 JUMP JUMPDEST DUP1 PUSH4 0x113AE7F8 EQ PUSH2 0xEC JUMPI DUP1 PUSH4 0x1AA8BB62 EQ PUSH2 0xF6 JUMPI DUP1 PUSH4 0x3C847B5E EQ PUSH2 0x114 JUMPI JUMPDEST PUSH0 DUP1 REVERT JUMPDEST PUSH2 0xF4 PUSH2 0x282 JUMP JUMPDEST STOP JUMPDEST PUSH2 0xFE PUSH2 0x284 JUMP JUMPDEST PUSH1 0x40 MLOAD PUSH2 0x10B SWAP2 SWAP1 PUSH2 0x791 JUMP JUMPDEST PUSH1 0x40 MLOAD DUP1 SWAP2 SUB SWAP1 RETURN JUMPDEST PUSH2 0x12E PUSH1 0x4 DUP1 CALLDATASIZE SUB DUP2 ADD SWAP1 PUSH2 0x129 SWAP2 SWAP1 PUSH2 0x829 JUMP JUMPDEST PUSH2 0x2A9 JUMP JUMPDEST STOP JUMPDEST PUSH2 0x138 PUSH2 0x336 JUMP JUMPDEST PUSH1 0x40 MLOAD PUSH2 0x145 SWAP2 SWAP1 PUSH2 0x887 JUMP JUMPDEST PUSH1 0x40 MLOAD DUP1 SWAP2 SUB SWAP1 RETURN JUMPDEST PUSH2 0x168 PUSH1 0x4 DUP1 CALLDATASIZE SUB DUP2 ADD SWAP1 PUSH2 0x163 SWAP2 SWAP1 PUSH2 0x8A0 JUMP JUMPDEST PUSH2 0x35B JUMP JUMPDEST STOP JUMPDEST PUSH2 0x184 PUSH1 0x4 DUP1 CALLDATASIZE SUB DUP2 ADD SWAP1 PUSH2 0x17F SWAP2 SWAP1 PUSH2 0x8F0 JUMP JUMPDEST PUSH2 0x3EB JUMP JUMPDEST PUSH1 0x40 MLOAD PUSH2 0x191 SWAP2 SWAP1 PUSH2 0x9DD JUMP JUMPDEST PUSH1 0x40 MLOAD DUP1 SWAP2 SUB SWAP1 RETURN JUMPDEST PUSH2 0x1A2 PUSH2 0x493 JUMP JUMPDEST PUSH1 0x40 MLOAD PUSH2 0x1AF SWAP2 SWAP1 PUSH2 0xA16 JUMP JUMPDEST PUSH1 0x40 MLOAD DUP1 SWAP2 SUB SWAP1 RETURN JUMPDEST PUSH2 0x1C0 PUSH2 0x4B6 JUMP JUMPDEST PUSH1 0x40 MLOAD PUSH2 0x1CD SWAP2 SWAP1 PUSH2 0xA60 JUMP JUMPDEST PUSH1 0x40 MLOAD DUP1 SWAP2 SUB SWAP1 RETURN JUMPDEST PUSH2 0x1F0 PUSH1 0x4 DUP1 CALLDATASIZE SUB DUP2 ADD SWAP1 PUSH2 0x1EB SWAP2 SWAP1 PUSH2 0xBB5 JUMP JUMPDEST PUSH2 0x4DB JUMP JUMPDEST STOP JUMPDEST PUSH2 0x1FA PUSH2 0x568 JUMP JUMPDEST PUSH1 0x40 MLOAD PUSH2 0x207 SWAP2 SWAP1 PUSH2 0xC2F JUMP JUMPDEST PUSH1 0x40 MLOAD DUP1 SWAP2 SUB SWAP1 RETURN JUMPDEST PUSH2 0x22A PUSH1 0x4 DUP1 CALLDATASIZE SUB DUP2 ADD SWAP1 PUSH2 0x225 SWAP2 SWAP1 PUSH2 0xC48 JUMP JUMPDEST PUSH2 0x58D JUMP JUMPDEST STOP JUMPDEST PUSH2 0x234 PUSH2 0x61D JUMP JUMPDEST PUSH1 0x40 MLOAD PUSH2 0x241 SWAP2 SWAP1 PUSH2 0xCF0 JUMP JUMPDEST PUSH1 0x40 MLOAD DUP1 SWAP2 SUB SWAP1 RETURN JUMPDEST PUSH2 0x264 PUSH1 0x4 DUP1 CALLDATASIZE SUB DUP2 ADD SWAP1 PUSH2 0x25F SWAP2 SWAP1 PUSH2 0x8F0 JUMP JUMPDEST PUSH2 0x642 JUMP JUMPDEST STOP JUMPDEST PUSH2 0x280 PUSH1 0x4 DUP1 CALLDATASIZE SUB DUP2 ADD SWAP1 PUSH2 0x27B SWAP2 SWAP1 PUSH2 0x8F0 JUMP JUMPDEST PUSH2 0x6CC JUMP JUMPDEST STOP JUMPDEST JUMP JUMPDEST PUSH1 0x3 PUSH0 SWAP1 SLOAD SWAP1 PUSH2 0x100 EXP SWAP1 DIV PUSH20 0xFFFFFFFFFFFFFFFFFFFFFFFFFFFFFFFFFFFFFFFF AND DUP2 JUMP JUMPDEST PUSH1 0x4 PUSH0 SWAP1 SLOAD SWAP1 PUSH2 0x100 EXP SWAP1 DIV PUSH20 0xFFFFFFFFFFFFFFFFFFFFFFFFFFFFFFFFFFFFFFFF AND PUSH20 0xFFFFFFFFFFFFFFFFFFFFFFFFFFFFFFFFFFFFFFFF AND PUSH4 0x3C847B5E DUP4 DUP4 PUSH1 0x40 MLOAD DUP4 PUSH4 0xFFFFFFFF AND PUSH1 0xE0 SHL DUP2 MSTORE PUSH1 0x4 ADD PUSH2 0x305 SWAP3 SWAP2 SWAP1 PUSH2 0xD27 JUMP JUMPDEST PUSH0 PUSH1 0x40 MLOAD DUP1 DUP4 SUB DUP2 PUSH0 DUP8 DUP1 EXTCODESIZE ISZERO DUP1 ISZERO PUSH2 0x31C JUMPI PUSH0 DUP1 REVERT JUMPDEST POP GAS CALL ISZERO DUP1 ISZERO PUSH2 0x32E JUMPI RETURNDATASIZE PUSH0 DUP1 RETURNDATACOPY RETURNDATASIZE PUSH0 REVERT JUMPDEST POP POP POP POP POP POP JUMP JUMPDEST PUSH1 0x1 PUSH0 SWAP1 SLOAD SWAP1 PUSH2 0x100 EXP SWAP1 DIV PUSH20 0xFFFFFFFFFFFFFFFFFFFFFFFFFFFFFFFFFFFFFFFF AND DUP2 JUMP JUMPDEST PUSH1 0x5 PUSH0 SWAP1 SLOAD SWAP1 PUSH2 0x100 EXP SWAP1 DIV PUSH20 0xFFFFFFFFFFFFFFFFFFFFFFFFFFFFFFFFFFFFFFFF AND PUSH20 0xFFFFFFFFFFFFFFFFFFFFFFFFFFFFFFFFFFFFFFFF AND PUSH4 0x7A4085FA DUP5 DUP5 DUP5 PUSH1 0x40 MLOAD DUP5 PUSH4 0xFFFFFFFF AND PUSH1 0xE0 SHL DUP2 MSTORE PUSH1 0x4 ADD PUSH2 0x3B9 SWAP4 SWAP3 SWAP2 SWAP1 PUSH2 0xD4E JUMP JUMPDEST PUSH0 PUSH1 0x40 MLOAD DUP1 DUP4 SUB DUP2 PUSH0 DUP8 DUP1 EXTCODESIZE ISZERO DUP1 ISZERO PUSH2 0x3D0 JUMPI PUSH0 DUP1 REVERT JUMPDEST POP GAS CALL ISZERO DUP1 ISZERO PUSH2 0x3E2 JUMPI RETURNDATASIZE PUSH0 DUP1 RETURNDATACOPY RETURNDATASIZE PUSH0 REVERT JUMPDEST POP POP POP POP POP POP POP JUMP JUMPDEST PUSH2 0x3F3 PUSH2 0x6CF JUMP JUMPDEST PUSH1 0x5 PUSH0 SWAP1 SLOAD SWAP1 PUSH2 0x100 EXP SWAP1 DIV PUSH20 0xFFFFFFFFFFFFFFFFFFFFFFFFFFFFFFFFFFFFFFFF AND PUSH20 0xFFFFFFFFFFFFFFFFFFFFFFFFFFFFFFFFFFFFFFFF AND PUSH4 0x4D6D6A9C DUP4 PUSH1 0x40 MLOAD DUP3 PUSH4 0xFFFFFFFF AND PUSH1 0xE0 SHL DUP2 MSTORE PUSH1 0x4 ADD PUSH2 0x44D SWAP2 SWAP1 PUSH2 0xD83 JUMP JUMPDEST PUSH1 0xC0 PUSH1 0x40 MLOAD DUP1 DUP4 SUB DUP2 DUP7 GAS STATICCALL ISZERO DUP1 ISZERO PUSH2 0x468 JUMPI RETURNDATASIZE PUSH0 DUP1 RETURNDATACOPY RETURNDATASIZE PUSH0 REVERT JUMPDEST POP POP POP POP PUSH1 0x40 MLOAD RETURNDATASIZE PUSH1 0x1F NOT PUSH1 0x1F DUP3 ADD AND DUP3 ADD DUP1 PUSH1 0x40 MSTORE POP DUP2 ADD SWAP1 PUSH2 0x48C SWAP2 SWAP1 PUSH2 0xEA5 JUMP JUMPDEST SWAP1 POP SWAP2 SWAP1 POP JUMP JUMPDEST PUSH0 DUP1 SLOAD SWAP1 PUSH2 0x100 EXP SWAP1 DIV PUSH20 0xFFFFFFFFFFFFFFFFFFFFFFFFFFFFFFFFFFFFFFFF AND DUP2 JUMP JUMPDEST PUSH1 0x5 PUSH0 SWAP1 SLOAD SWAP1 PUSH2 0x100 EXP SWAP1 DIV PUSH20 0xFFFFFFFFFFFFFFFFFFFFFFFFFFFFFFFFFFFFFFFF AND DUP2 JUMP JUMPDEST PUSH1 0x2 PUSH0 SWAP1 SLOAD SWAP1 PUSH2 0x100 EXP SWAP1 DIV PUSH20 0xFFFFFFFFFFFFFFFFFFFFFFFFFFFFFFFFFFFFFFFF AND PUSH20 0xFFFFFFFFFFFFFFFFFFFFFFFFFFFFFFFFFFFFFFFF AND PUSH4 0x3A01135E DUP4 DUP4 PUSH1 0x40 MLOAD DUP4 PUSH4 0xFFFFFFFF AND PUSH1 0xE0 SHL DUP2 MSTORE PUSH1 0x4 ADD PUSH2 0x537 SWAP3 SWAP2 SWAP1 PUSH2 0xF4A JUMP JUMPDEST PUSH0 PUSH1 0x40 MLOAD DUP1 DUP4 SUB DUP2 PUSH0 DUP8 DUP1 EXTCODESIZE ISZERO DUP1 ISZERO PUSH2 0x54E JUMPI PUSH0 DUP1 REVERT JUMPDEST POP GAS CALL ISZERO DUP1 ISZERO PUSH2 0x560 JUMPI RETURNDATASIZE PUSH0 DUP1 RETURNDATACOPY RETURNDATASIZE PUSH0 REVERT JUMPDEST POP POP POP POP POP POP JUMP JUMPDEST PUSH1 0x4 PUSH0 SWAP1 SLOAD SWAP1 PUSH2 0x100 EXP SWAP1 DIV PUSH20 0xFFFFFFFFFFFFFFFFFFFFFFFFFFFFFFFFFFFFFFFF AND DUP2 JUMP JUMPDEST PUSH1 0x1 PUSH0 SWAP1 SLOAD SWAP1 PUSH2 0x100 EXP SWAP1 DIV PUSH20 0xFFFFFFFFFFFFFFFFFFFFFFFFFFFFFFFFFFFFFFFF AND PUSH20 0xFFFFFFFFFFFFFFFFFFFFFFFFFFFFFFFFFFFFFFFF AND PUSH4 0x67201887 DUP5 DUP5 DUP5 PUSH1 0x40 MLOAD DUP5 PUSH4 0xFFFFFFFF AND PUSH1 0xE0 SHL DUP2 MSTORE PUSH1 0x4 ADD PUSH2 0x5EB SWAP4 SWAP3 SWAP2 SWAP1 PUSH2 0xF78 JUMP JUMPDEST PUSH0 PUSH1 0x40 MLOAD DUP1 DUP4 SUB DUP2 PUSH0 DUP8 DUP1 EXTCODESIZE ISZERO DUP1 ISZERO PUSH2 0x602 JUMPI PUSH0 DUP1 REVERT JUMPDEST POP GAS CALL ISZERO DUP1 ISZERO PUSH2 0x614 JUMPI RETURNDATASIZE PUSH0 DUP1 RETURNDATACOPY RETURNDATASIZE PUSH0 REVERT JUMPDEST POP POP POP POP POP POP POP JUMP JUMPDEST PUSH1 0x2 PUSH0 SWAP1 SLOAD SWAP1 PUSH2 0x100 EXP SWAP1 DIV PUSH20 0xFFFFFFFFFFFFFFFFFFFFFFFFFFFFFFFFFFFFFFFF AND DUP2 JUMP JUMPDEST PUSH1 0x3 PUSH0 SWAP1 SLOAD SWAP1 PUSH2 0x100 EXP SWAP1 DIV PUSH20 0xFFFFFFFFFFFFFFFFFFFFFFFFFFFFFFFFFFFFFFFF AND PUSH20 0xFFFFFFFFFFFFFFFFFFFFFFFFFFFFFFFFFFFFFFFF AND PUSH4 0x3DFA2FEA DUP3 PUSH1 0x40 MLOAD DUP3 PUSH4 0xFFFFFFFF AND PUSH1 0xE0 SHL DUP2 MSTORE PUSH1 0x4 ADD PUSH2 0x69C SWAP2 SWAP1 PUSH2 0xD83 JUMP JUMPDEST PUSH0 PUSH1 0x40 MLOAD DUP1 DUP4 SUB DUP2 PUSH0 DUP8 DUP1 EXTCODESIZE ISZERO DUP1 ISZERO PUSH2 0x6B3 JUMPI PUSH0 DUP1 REVERT JUMPDEST POP GAS CALL ISZERO DUP1 ISZERO PUSH2 0x6C5 JUMPI RETURNDATASIZE PUSH0 DUP1 RETURNDATACOPY RETURNDATASIZE PUSH0 REVERT JUMPDEST POP POP POP POP POP JUMP JUMPDEST POP JUMP JUMPDEST PUSH1 0x40 MLOAD DUP1 PUSH1 0xC0 ADD PUSH1 0x40 MSTORE DUP1 PUSH0 DUP2 MSTORE PUSH1 0x20 ADD PUSH0 PUSH20 0xFFFFFFFFFFFFFFFFFFFFFFFFFFFFFFFFFFFFFFFF AND DUP2 MSTORE PUSH1 0x20 ADD PUSH0 ISZERO ISZERO DUP2 MSTORE PUSH1 0x20 ADD PUSH0 DUP2 MSTORE PUSH1 0x20 ADD PUSH0 DUP2 MSTORE PUSH1 0x20 ADD PUSH0 DUP2 MSTORE POP SWAP1 JUMP JUMPDEST PUSH0 PUSH20 0xFFFFFFFFFFFFFFFFFFFFFFFFFFFFFFFFFFFFFFFF DUP3 AND SWAP1 POP SWAP2 SWAP1 POP JUMP JUMPDEST PUSH0 DUP2 SWAP1 POP SWAP2 SWAP1 POP JUMP JUMPDEST PUSH0 PUSH2 0x759 PUSH2 0x754 PUSH2 0x74F DUP5 PUSH2 0x717 JUMP JUMPDEST PUSH2 0x736 JUMP JUMPDEST PUSH2 0x717 JUMP JUMPDEST SWAP1 POP SWAP2 SWAP1 POP JUMP JUMPDEST PUSH0 PUSH2 0x76A DUP3 PUSH2 0x73F JUMP JUMPDEST SWAP1 POP SWAP2 SWAP1 POP JUMP JUMPDEST PUSH0 PUSH2 0x77B DUP3 PUSH2 0x760 JUMP JUMPDEST SWAP1 POP SWAP2 SWAP1 POP JUMP JUMPDEST PUSH2 0x78B DUP2 PUSH2 0x771 JUMP JUMPDEST DUP3 MSTORE POP POP JUMP JUMPDEST PUSH0 PUSH1 0x20 DUP3 ADD SWAP1 POP PUSH2 0x7A4 PUSH0 DUP4 ADD DUP5 PUSH2 0x782 JUMP JUMPDEST SWAP3 SWAP2 POP POP JUMP JUMPDEST PUSH0 PUSH1 0x40 MLOAD SWAP1 POP SWAP1 JUMP JUMPDEST PUSH0 DUP1 REVERT JUMPDEST PUSH0 DUP1 REVERT JUMPDEST PUSH0 DUP2 SWAP1 POP SWAP2 SWAP1 POP JUMP JUMPDEST PUSH2 0x7CD DUP2 PUSH2 0x7BB JUMP JUMPDEST DUP2 EQ PUSH2 0x7D7 JUMPI PUSH0 DUP1 REVERT JUMPDEST POP JUMP JUMPDEST PUSH0 DUP2 CALLDATALOAD SWAP1 POP PUSH2 0x7E8 DUP2 PUSH2 0x7C4 JUMP JUMPDEST SWAP3 SWAP2 POP POP JUMP JUMPDEST PUSH0 PUSH2 0x7F8 DUP3 PUSH2 0x717 JUMP JUMPDEST SWAP1 POP SWAP2 SWAP1 POP JUMP JUMPDEST PUSH2 0x808 DUP2 PUSH2 0x7EE JUMP JUMPDEST DUP2 EQ PUSH2 0x812 JUMPI PUSH0 DUP1 REVERT JUMPDEST POP JUMP JUMPDEST PUSH0 DUP2 CALLDATALOAD SWAP1 POP PUSH2 0x823 DUP2 PUSH2 0x7FF JUMP JUMPDEST SWAP3 SWAP2 POP POP JUMP JUMPDEST PUSH0 DUP1 PUSH1 0x40 DUP4 DUP6 SUB SLT ISZERO PUSH2 0x83F JUMPI PUSH2 0x83E PUSH2 0x7B3 JUMP JUMPDEST JUMPDEST PUSH0 PUSH2 0x84C DUP6 DUP3 DUP7 ADD PUSH2 0x7DA JUMP JUMPDEST SWAP3 POP POP PUSH1 0x20 PUSH2 0x85D DUP6 DUP3 DUP7 ADD PUSH2 0x815 JUMP JUMPDEST SWAP2 POP POP SWAP3 POP SWAP3 SWAP1 POP JUMP JUMPDEST PUSH0 PUSH2 0x871 DUP3 PUSH2 0x760 JUMP JUMPDEST SWAP1 POP SWAP2 SWAP1 POP JUMP JUMPDEST PUSH2 0x881 DUP2 PUSH2 0x867 JUMP JUMPDEST DUP3 MSTORE POP POP JUMP JUMPDEST PUSH0 PUSH1 0x20 DUP3 ADD SWAP1 POP PUSH2 0x89A PUSH0 DUP4 ADD DUP5 PUSH2 0x878 JUMP JUMPDEST SWAP3 SWAP2 POP POP JUMP JUMPDEST PUSH0 DUP1 PUSH0 PUSH1 0x60 DUP5 DUP7 SUB SLT ISZERO PUSH2 0x8B7 JUMPI PUSH2 0x8B6 PUSH2 0x7B3 JUMP JUMPDEST JUMPDEST PUSH0 PUSH2 0x8C4 DUP7 DUP3 DUP8 ADD PUSH2 0x7DA JUMP JUMPDEST SWAP4 POP POP PUSH1 0x20 PUSH2 0x8D5 DUP7 DUP3 DUP8 ADD PUSH2 0x7DA JUMP JUMPDEST SWAP3 POP POP PUSH1 0x40 PUSH2 0x8E6 DUP7 DUP3 DUP8 ADD PUSH2 0x7DA JUMP JUMPDEST SWAP2 POP POP SWAP3 POP SWAP3 POP SWAP3 JUMP JUMPDEST PUSH0 PUSH1 0x20 DUP3 DUP5 SUB SLT ISZERO PUSH2 0x905 JUMPI PUSH2 0x904 PUSH2 0x7B3 JUMP JUMPDEST JUMPDEST PUSH0 PUSH2 0x912 DUP5 DUP3 DUP6 ADD PUSH2 0x7DA JUMP JUMPDEST SWAP2 POP POP SWAP3 SWAP2 POP POP JUMP JUMPDEST PUSH2 0x924 DUP2 PUSH2 0x7BB JUMP JUMPDEST DUP3 MSTORE POP POP JUMP JUMPDEST PUSH0 PUSH2 0x934 DUP3 PUSH2 0x717 JUMP JUMPDEST SWAP1 POP SWAP2 SWAP1 POP JUMP JUMPDEST PUSH2 0x944 DUP2 PUSH2 0x92A JUMP JUMPDEST DUP3 MSTORE POP POP JUMP JUMPDEST PUSH0 DUP2 ISZERO ISZERO SWAP1 POP SWAP2 SWAP1 POP JUMP JUMPDEST PUSH2 0x95E DUP2 PUSH2 0x94A JUMP JUMPDEST DUP3 MSTORE POP POP JUMP JUMPDEST PUSH1 0xC0 DUP3 ADD PUSH0 DUP3 ADD MLOAD PUSH2 0x978 PUSH0 DUP6 ADD DUP3 PUSH2 0x91B JUMP JUMPDEST POP PUSH1 0x20 DUP3 ADD MLOAD PUSH2 0x98B PUSH1 0x20 DUP6 ADD DUP3 PUSH2 0x93B JUMP JUMPDEST POP PUSH1 0x40 DUP3 ADD MLOAD PUSH2 0x99E PUSH1 0x40 DUP6 ADD DUP3 PUSH2 0x955 JUMP JUMPDEST POP PUSH1 0x60 DUP3 ADD MLOAD PUSH2 0x9B1 PUSH1 0x60 DUP6 ADD DUP3 PUSH2 0x91B JUMP JUMPDEST POP PUSH1 0x80 DUP3 ADD MLOAD PUSH2 0x9C4 PUSH1 0x80 DUP6 ADD DUP3 PUSH2 0x91B JUMP JUMPDEST POP PUSH1 0xA0 DUP3 ADD MLOAD PUSH2 0x9D7 PUSH1 0xA0 DUP6 ADD DUP3 PUSH2 0x91B JUMP JUMPDEST POP POP POP POP JUMP JUMPDEST PUSH0 PUSH1 0xC0 DUP3 ADD SWAP1 POP PUSH2 0x9F0 PUSH0 DUP4 ADD DUP5 PUSH2 0x964 JUMP JUMPDEST SWAP3 SWAP2 POP POP JUMP JUMPDEST PUSH0 PUSH2 0xA00 DUP3 PUSH2 0x760 JUMP JUMPDEST SWAP1 POP SWAP2 SWAP1 POP JUMP JUMPDEST PUSH2 0xA10 DUP2 PUSH2 0x9F6 JUMP JUMPDEST DUP3 MSTORE POP POP JUMP JUMPDEST PUSH0 PUSH1 0x20 DUP3 ADD SWAP1 POP PUSH2 0xA29 PUSH0 DUP4 ADD DUP5 PUSH2 0xA07 JUMP JUMPDEST SWAP3 SWAP2 POP POP JUMP JUMPDEST PUSH0 PUSH2 0xA39 DUP3 PUSH2 0x73F JUMP JUMPDEST SWAP1 POP SWAP2 SWAP1 POP JUMP JUMPDEST PUSH0 PUSH2 0xA4A DUP3 PUSH2 0xA2F JUMP JUMPDEST SWAP1 POP SWAP2 SWAP1 POP JUMP JUMPDEST PUSH2 0xA5A DUP2 PUSH2 0xA40 JUMP JUMPDEST DUP3 MSTORE POP POP JUMP JUMPDEST PUSH0 PUSH1 0x20 DUP3 ADD SWAP1 POP PUSH2 0xA73 PUSH0 DUP4 ADD DUP5 PUSH2 0xA51 JUMP JUMPDEST SWAP3 SWAP2 POP POP JUMP JUMPDEST PUSH0 DUP1 REVERT JUMPDEST PUSH0 DUP1 REVERT JUMPDEST PUSH0 PUSH1 0x1F NOT PUSH1 0x1F DUP4 ADD AND SWAP1 POP SWAP2 SWAP1 POP JUMP JUMPDEST PUSH32 0x4E487B7100000000000000000000000000000000000000000000000000000000 PUSH0 MSTORE PUSH1 0x41 PUSH1 0x4 MSTORE PUSH1 0x24 PUSH0 REVERT JUMPDEST PUSH2 0xAC7 DUP3 PUSH2 0xA81 JUMP JUMPDEST DUP2 ADD DUP2 DUP2 LT PUSH8 0xFFFFFFFFFFFFFFFF DUP3 GT OR ISZERO PUSH2 0xAE6 JUMPI PUSH2 0xAE5 PUSH2 0xA91 JUMP JUMPDEST JUMPDEST DUP1 PUSH1 0x40 MSTORE POP POP POP JUMP JUMPDEST PUSH0 PUSH2 0xAF8 PUSH2 0x7AA JUMP JUMPDEST SWAP1 POP PUSH2 0xB04 DUP3 DUP3 PUSH2 0xABE JUMP JUMPDEST SWAP2 SWAP1 POP JUMP JUMPDEST PUSH0 PUSH8 0xFFFFFFFFFFFFFFFF DUP3 GT ISZERO PUSH2 0xB23 JUMPI PUSH2 0xB22 PUSH2 0xA91 JUMP JUMPDEST JUMPDEST PUSH2 0xB2C DUP3 PUSH2 0xA81 JUMP JUMPDEST SWAP1 POP PUSH1 0x20 DUP2 ADD SWAP1 POP SWAP2 SWAP1 POP JUMP JUMPDEST DUP3 DUP2 DUP4 CALLDATACOPY PUSH0 DUP4 DUP4 ADD MSTORE POP POP POP JUMP JUMPDEST PUSH0 PUSH2 0xB59 PUSH2 0xB54 DUP5 PUSH2 0xB09 JUMP JUMPDEST PUSH2 0xAEF JUMP JUMPDEST SWAP1 POP DUP3 DUP2 MSTORE PUSH1 0x20 DUP2 ADD DUP5 DUP5 DUP5 ADD GT ISZERO PUSH2 0xB75 JUMPI PUSH2 0xB74 PUSH2 0xA7D JUMP JUMPDEST JUMPDEST PUSH2 0xB80 DUP5 DUP3 DUP6 PUSH2 0xB39 JUMP JUMPDEST POP SWAP4 SWAP3 POP POP POP JUMP JUMPDEST PUSH0 DUP3 PUSH1 0x1F DUP4 ADD SLT PUSH2 0xB9C JUMPI PUSH2 0xB9B PUSH2 0xA79 JUMP JUMPDEST JUMPDEST DUP2 CALLDATALOAD PUSH2 0xBAC DUP5 DUP3 PUSH1 0x20 DUP7 ADD PUSH2 0xB47 JUMP JUMPDEST SWAP2 POP POP SWAP3 SWAP2 POP POP JUMP JUMPDEST PUSH0 DUP1 PUSH1 0x40 DUP4 DUP6 SUB SLT ISZERO PUSH2 0xBCB JUMPI PUSH2 0xBCA PUSH2 0x7B3 JUMP JUMPDEST JUMPDEST PUSH0 PUSH2 0xBD8 DUP6 DUP3 DUP7 ADD PUSH2 0x7DA JUMP JUMPDEST SWAP3 POP POP PUSH1 0x20 DUP4 ADD CALLDATALOAD PUSH8 0xFFFFFFFFFFFFFFFF DUP2 GT ISZERO PUSH2 0xBF9 JUMPI PUSH2 0xBF8 PUSH2 0x7B7 JUMP JUMPDEST JUMPDEST PUSH2 0xC05 DUP6 DUP3 DUP7 ADD PUSH2 0xB88 JUMP JUMPDEST SWAP2 POP POP SWAP3 POP SWAP3 SWAP1 POP JUMP JUMPDEST PUSH0 PUSH2 0xC19 DUP3 PUSH2 0x760 JUMP JUMPDEST SWAP1 POP SWAP2 SWAP1 POP JUMP JUMPDEST PUSH2 0xC29 DUP2 PUSH2 0xC0F JUMP JUMPDEST DUP3 MSTORE POP POP JUMP JUMPDEST PUSH0 PUSH1 0x20 DUP3 ADD SWAP1 POP PUSH2 0xC42 PUSH0 DUP4 ADD DUP5 PUSH2 0xC20 JUMP JUMPDEST SWAP3 SWAP2 POP POP JUMP JUMPDEST PUSH0 DUP1 PUSH0 PUSH1 0x60 DUP5 DUP7 SUB SLT ISZERO PUSH2 0xC5F JUMPI PUSH2 0xC5E PUSH2 0x7B3 JUMP JUMPDEST JUMPDEST PUSH0 DUP5 ADD CALLDATALOAD PUSH8 0xFFFFFFFFFFFFFFFF DUP2 GT ISZERO PUSH2 0xC7C JUMPI PUSH2 0xC7B PUSH2 0x7B7 JUMP JUMPDEST JUMPDEST PUSH2 0xC88 DUP7 DUP3 DUP8 ADD PUSH2 0xB88 JUMP JUMPDEST SWAP4 POP POP PUSH1 0x20 DUP5 ADD CALLDATALOAD PUSH8 0xFFFFFFFFFFFFFFFF DUP2 GT ISZERO PUSH2 0xCA9 JUMPI PUSH2 0xCA8 PUSH2 0x7B7 JUMP JUMPDEST JUMPDEST PUSH2 0xCB5 DUP7 DUP3 DUP8 ADD PUSH2 0xB88 JUMP JUMPDEST SWAP3 POP POP PUSH1 0x40 PUSH2 0xCC6 DUP7 DUP3 DUP8 ADD PUSH2 0x7DA JUMP JUMPDEST SWAP2 POP POP SWAP3 POP SWAP3 POP SWAP3 JUMP JUMPDEST PUSH0 PUSH2 0xCDA DUP3 PUSH2 0x760 JUMP JUMPDEST SWAP1 POP SWAP2 SWAP1 POP JUMP JUMPDEST PUSH2 0xCEA DUP2 PUSH2 0xCD0 JUMP JUMPDEST DUP3 MSTORE POP POP JUMP JUMPDEST PUSH0 PUSH1 0x20 DUP3 ADD SWAP1 POP PUSH2 0xD03 PUSH0 DUP4 ADD DUP5 PUSH2 0xCE1 JUMP JUMPDEST SWAP3 SWAP2 POP POP JUMP JUMPDEST PUSH2 0xD12 DUP2 PUSH2 0x7BB JUMP JUMPDEST DUP3 MSTORE POP POP JUMP JUMPDEST PUSH2 0xD21 DUP2 PUSH2 0x7EE JUMP JUMPDEST DUP3 MSTORE POP POP JUMP JUMPDEST PUSH0 PUSH1 0x40 DUP3 ADD SWAP1 POP PUSH2 0xD3A PUSH0 DUP4 ADD DUP6 PUSH2 0xD09 JUMP JUMPDEST PUSH2 0xD47 PUSH1 0x20 DUP4 ADD DUP5 PUSH2 0xD18 JUMP JUMPDEST SWAP4 SWAP3 POP POP POP JUMP JUMPDEST PUSH0 PUSH1 0x60 DUP3 ADD SWAP1 POP PUSH2 0xD61 PUSH0 DUP4 ADD DUP7 PUSH2 0xD09 JUMP JUMPDEST PUSH2 0xD6E PUSH1 0x20 DUP4 ADD DUP6 PUSH2 0xD09 JUMP JUMPDEST PUSH2 0xD7B PUSH1 0x40 DUP4 ADD DUP5 PUSH2 0xD09 JUMP JUMPDEST SWAP5 SWAP4 POP POP POP POP JUMP JUMPDEST PUSH0 PUSH1 0x20 DUP3 ADD SWAP1 POP PUSH2 0xD96 PUSH0 DUP4 ADD DUP5 PUSH2 0xD09 JUMP JUMPDEST SWAP3 SWAP2 POP POP JUMP JUMPDEST PUSH0 DUP1 REVERT JUMPDEST PUSH0 DUP2 MLOAD SWAP1 POP PUSH2 0xDAE DUP2 PUSH2 0x7C4 JUMP JUMPDEST SWAP3 SWAP2 POP POP JUMP JUMPDEST PUSH2 0xDBD DUP2 PUSH2 0x92A JUMP JUMPDEST DUP2 EQ PUSH2 0xDC7 JUMPI PUSH0 DUP1 REVERT JUMPDEST POP JUMP JUMPDEST PUSH0 DUP2 MLOAD SWAP1 POP PUSH2 0xDD8 DUP2 PUSH2 0xDB4 JUMP JUMPDEST SWAP3 SWAP2 POP POP JUMP JUMPDEST PUSH2 0xDE7 DUP2 PUSH2 0x94A JUMP JUMPDEST DUP2 EQ PUSH2 0xDF1 JUMPI PUSH0 DUP1 REVERT JUMPDEST POP JUMP JUMPDEST PUSH0 DUP2 MLOAD SWAP1 POP PUSH2 0xE02 DUP2 PUSH2 0xDDE JUMP JUMPDEST SWAP3 SWAP2 POP POP JUMP JUMPDEST PUSH0 PUSH1 0xC0 DUP3 DUP5 SUB SLT ISZERO PUSH2 0xE1D JUMPI PUSH2 0xE1C PUSH2 0xD9C JUMP JUMPDEST JUMPDEST PUSH2 0xE27 PUSH1 0xC0 PUSH2 0xAEF JUMP JUMPDEST SWAP1 POP PUSH0 PUSH2 0xE36 DUP5 DUP3 DUP6 ADD PUSH2 0xDA0 JUMP JUMPDEST PUSH0 DUP4 ADD MSTORE POP PUSH1 0x20 PUSH2 0xE49 DUP5 DUP3 DUP6 ADD PUSH2 0xDCA JUMP JUMPDEST PUSH1 0x20 DUP4 ADD MSTORE POP PUSH1 0x40 PUSH2 0xE5D DUP5 DUP3 DUP6 ADD PUSH2 0xDF4 JUMP JUMPDEST PUSH1 0x40 DUP4 ADD MSTORE POP PUSH1 0x60 PUSH2 0xE71 DUP5 DUP3 DUP6 ADD PUSH2 0xDA0 JUMP JUMPDEST PUSH1 0x60 DUP4 ADD MSTORE POP PUSH1 0x80 PUSH2 0xE85 DUP5 DUP3 DUP6 ADD PUSH2 0xDA0 JUMP JUMPDEST PUSH1 0x80 DUP4 ADD MSTORE POP PUSH1 0xA0 PUSH2 0xE99 DUP5 DUP3 DUP6 ADD PUSH2 0xDA0 JUMP JUMPDEST PUSH1 0xA0 DUP4 ADD MSTORE POP SWAP3 SWAP2 POP POP JUMP JUMPDEST PUSH0 PUSH1 0xC0 DUP3 DUP5 SUB SLT ISZERO PUSH2 0xEBA JUMPI PUSH2 0xEB9 PUSH2 0x7B3 JUMP JUMPDEST JUMPDEST PUSH0 PUSH2 0xEC7 DUP5 DUP3 DUP6 ADD PUSH2 0xE08 JUMP JUMPDEST SWAP2 POP POP SWAP3 SWAP2 POP POP JUMP JUMPDEST PUSH0 DUP2 MLOAD SWAP1 POP SWAP2 SWAP1 POP JUMP JUMPDEST PUSH0 DUP3 DUP3 MSTORE PUSH1 0x20 DUP3 ADD SWAP1 POP SWAP3 SWAP2 POP POP JUMP JUMPDEST PUSH0 JUMPDEST DUP4 DUP2 LT ISZERO PUSH2 0xF07 JUMPI DUP1 DUP3 ADD MLOAD DUP2 DUP5 ADD MSTORE PUSH1 0x20 DUP2 ADD SWAP1 POP PUSH2 0xEEC JUMP JUMPDEST PUSH0 DUP5 DUP5 ADD MSTORE POP POP POP POP JUMP JUMPDEST PUSH0 PUSH2 0xF1C DUP3 PUSH2 0xED0 JUMP JUMPDEST PUSH2 0xF26 DUP2 DUP6 PUSH2 0xEDA JUMP JUMPDEST SWAP4 POP PUSH2 0xF36 DUP2 DUP6 PUSH1 0x20 DUP7 ADD PUSH2 0xEEA JUMP JUMPDEST PUSH2 0xF3F DUP2 PUSH2 0xA81 JUMP JUMPDEST DUP5 ADD SWAP2 POP POP SWAP3 SWAP2 POP POP JUMP JUMPDEST PUSH0 PUSH1 0x40 DUP3 ADD SWAP1 POP PUSH2 0xF5D PUSH0 DUP4 ADD DUP6 PUSH2 0xD09 JUMP JUMPDEST DUP2 DUP2 SUB PUSH1 0x20 DUP4 ADD MSTORE PUSH2 0xF6F DUP2 DUP5 PUSH2 0xF12 JUMP JUMPDEST SWAP1 POP SWAP4 SWAP3 POP POP POP JUMP JUMPDEST PUSH0 PUSH1 0x60 DUP3 ADD SWAP1 POP DUP2 DUP2 SUB PUSH0 DUP4 ADD MSTORE PUSH2 0xF90 DUP2 DUP7 PUSH2 0xF12 JUMP JUMPDEST SWAP1 POP DUP2 DUP2 SUB PUSH1 0x20 DUP4 ADD MSTORE PUSH2 0xFA4 DUP2 DUP6 PUSH2 0xF12 JUMP JUMPDEST SWAP1 POP PUSH2 0xFB3 PUSH1 0x40 DUP4 ADD DUP5 PUSH2 0xD09 JUMP JUMPDEST SWAP5 SWAP4 POP POP POP POP JUMP INVALID LOG2 PUSH5 0x6970667358 0x22 SLT KECCAK256 EQ SWAP3 0xA7 0xB8 SWAP2 0x23 0xFB DUP1 0xEF 0xE0 DUP3 CALLDATALOAD SWAP12 0x5E SIGNEXTEND 0xCB SWAP13 RETURNDATASIZE DUP2 REVERT 0xE SHL GASLIMIT SWAP14 PUSH23 0x7BD2E5F3F2D4A364736F6C634300081600330000000000 "
		},
		"gasEstimates": {
			"creation": {
				"codeDepositCost": "816200",
				"executionCost": "infinite",
				"totalCost": "infinite"
			},
			"external": {
				"approvalWorkflowContract()": "infinite",
				"approveBid(uint256,address)": "infinite",
				"auditTrail(uint256)": "489",
				"bidEvaluationContract()": "infinite",
				"bidSubmissionContract()": "infinite",
				"contractExecutionContract()": "infinite",
				"createRFP(string,string,uint256)": "infinite",
				"createVendorRegistration()": "167",
				"evaluateRFPBids(uint256)": "infinite",
				"executeContract(uint256,uint256,uint256)": "infinite",
				"getContractDetails(uint256)": "infinite",
				"rfpIssuanceContract()": "infinite",
				"submitBidToRFP(uint256,string)": "infinite",
				"vendorRegistrationContract()": "infinite"
			}
		},
		"methodIdentifiers": {
			"approvalWorkflowContract()": "a51b81a9",
			"approveBid(uint256,address)": "3c847b5e",
			"auditTrail(uint256)": "ddaf0929",
			"bidEvaluationContract()": "1aa8bb62",
			"bidSubmissionContract()": "cef46304",
			"contractExecutionContract()": "72b81827",
			"createRFP(string,string,uint256)": "bef18249",
			"createVendorRegistration()": "113ae7f8",
			"evaluateRFPBids(uint256)": "d3d2778f",
			"executeContract(uint256,uint256,uint256)": "46e7246a",
			"getContractDetails(uint256)": "4d6d6a9c",
			"rfpIssuanceContract()": "3cf93364",
			"submitBidToRFP(uint256,string)": "a3e8cc4e",
			"vendorRegistrationContract()": "6396b2a2"
		}
	},
	"abi": [
		{
			"inputs": [
				{
					"internalType": "address",
					"name": "_vendorRegistrationAddress",
					"type": "address"
				},
				{
					"internalType": "address",
					"name": "_rfpIssuanceAddress",
					"type": "address"
				},
				{
					"internalType": "address",
					"name": "_bidSubmissionAddress",
					"type": "address"
				},
				{
					"internalType": "address",
					"name": "_bidEvaluationAddress",
					"type": "address"
				},
				{
					"internalType": "address",
					"name": "_approvalWorkflowAddress",
					"type": "address"
				},
				{
					"internalType": "address payable",
					"name": "_contractExecutionAddress",
					"type": "address"
				}
			],
			"stateMutability": "nonpayable",
			"type": "constructor"
		},
		{
			"inputs": [],
			"name": "approvalWorkflowContract",
			"outputs": [
				{
					"internalType": "contract ApprovalWorkflow",
					"name": "",
					"type": "address"
				}
			],
			"stateMutability": "view",
			"type": "function"
		},
		{
			"inputs": [
				{
					"internalType": "uint256",
					"name": "_rfpId",
					"type": "uint256"
				},
				{
					"internalType": "address",
					"name": "_vendor",
					"type": "address"
				}
			],
			"name": "approveBid",
			"outputs": [],
			"stateMutability": "nonpayable",
			"type": "function"
		},
		{
			"inputs": [
				{
					"internalType": "uint256",
					"name": "_rfpId",
					"type": "uint256"
				}
			],
			"name": "auditTrail",
			"outputs": [],
			"stateMutability": "nonpayable",
			"type": "function"
		},
		{
			"inputs": [],
			"name": "bidEvaluationContract",
			"outputs": [
				{
					"internalType": "contract BidEvaluation",
					"name": "",
					"type": "address"
				}
			],
			"stateMutability": "view",
			"type": "function"
		},
		{
			"inputs": [],
			"name": "bidSubmissionContract",
			"outputs": [
				{
					"internalType": "contract BidSubmission",
					"name": "",
					"type": "address"
				}
			],
			"stateMutability": "view",
			"type": "function"
		},
		{
			"inputs": [],
			"name": "contractExecutionContract",
			"outputs": [
				{
					"internalType": "contract ContractExecution",
					"name": "",
					"type": "address"
				}
			],
			"stateMutability": "view",
			"type": "function"
		},
		{
			"inputs": [
				{
					"internalType": "string",
					"name": "_title",
					"type": "string"
				},
				{
					"internalType": "string",
					"name": "_description",
					"type": "string"
				},
				{
					"internalType": "uint256",
					"name": "_deadline",
					"type": "uint256"
				}
			],
			"name": "createRFP",
			"outputs": [],
			"stateMutability": "nonpayable",
			"type": "function"
		},
		{
			"inputs": [],
			"name": "createVendorRegistration",
			"outputs": [],
			"stateMutability": "nonpayable",
			"type": "function"
		},
		{
			"inputs": [
				{
					"internalType": "uint256",
					"name": "_rfpId",
					"type": "uint256"
				}
			],
			"name": "evaluateRFPBids",
			"outputs": [],
			"stateMutability": "nonpayable",
			"type": "function"
		},
		{
			"inputs": [
				{
					"internalType": "uint256",
					"name": "_rfpId",
					"type": "uint256"
				},
				{
					"internalType": "uint256",
					"name": "_totalMilestones",
					"type": "uint256"
				},
				{
					"internalType": "uint256",
					"name": "_milestonePaymentAmount",
					"type": "uint256"
				}
			],
			"name": "executeContract",
			"outputs": [],
			"stateMutability": "nonpayable",
			"type": "function"
		},
		{
			"inputs": [
				{
					"internalType": "uint256",
					"name": "_rfpId",
					"type": "uint256"
				}
			],
			"name": "getContractDetails",
			"outputs": [
				{
					"components": [
						{
							"internalType": "uint256",
							"name": "rfpId",
							"type": "uint256"
						},
						{
							"internalType": "address payable",
							"name": "vendor",
							"type": "address"
						},
						{
							"internalType": "bool",
							"name": "isActive",
							"type": "bool"
						},
						{
							"internalType": "uint256",
							"name": "totalMilestones",
							"type": "uint256"
						},
						{
							"internalType": "uint256",
							"name": "milestonesCompleted",
							"type": "uint256"
						},
						{
							"internalType": "uint256",
							"name": "milestonePaymentAmount",
							"type": "uint256"
						}
					],
					"internalType": "struct ContractExecution.Contract",
					"name": "",
					"type": "tuple"
				}
			],
			"stateMutability": "view",
			"type": "function"
		},
		{
			"inputs": [],
			"name": "rfpIssuanceContract",
			"outputs": [
				{
					"internalType": "contract RFPIssuance",
					"name": "",
					"type": "address"
				}
			],
			"stateMutability": "view",
			"type": "function"
		},
		{
			"inputs": [
				{
					"internalType": "uint256",
					"name": "_rfpId",
					"type": "uint256"
				},
				{
					"internalType": "string",
					"name": "_bidDetails",
					"type": "string"
				}
			],
			"name": "submitBidToRFP",
			"outputs": [],
			"stateMutability": "nonpayable",
			"type": "function"
		},
		{
			"inputs": [],
			"name": "vendorRegistrationContract",
			"outputs": [
				{
					"internalType": "contract VendorRegistration",
					"name": "",
					"type": "address"
				}
			],
			"stateMutability": "view",
			"type": "function"
		}
	]
}