{
	"data": {
		"bytecode": {
			"linkReferences": {},
			"object": "608060405260015f55348015610013575f80fd5b50611513806100215f395ff3fe608060405234801561000f575f80fd5b5060043610610060575f3560e01c80630923e95f146100645780632f72af3414610098578063464fb1d6146100c857806367201887146100e4578063c405e6bb14610100578063cd80204c1461011c575b5f80fd5b61007e600480360381019061007991906109ec565b61013a565b60405161008f959493929190610aca565b60405180910390f35b6100b260048036038101906100ad91906109ec565b610284565b6040516100bf9190610c09565b60405180910390f35b6100e260048036038101906100dd91906109ec565b61045c565b005b6100fe60048036038101906100f99190610d55565b610517565b005b61011a60048036038101906101159190610ddd565b610651565b005b610124610732565b6040516101319190610f9a565b60405180910390f35b6001602052805f5260405f205f91509050805f01549080600101805461015f90610fe7565b80601f016020809104026020016040519081016040528092919081815260200182805461018b90610fe7565b80156101d65780601f106101ad576101008083540402835291602001916101d6565b820191905f5260205f20905b8154815290600101906020018083116101b957829003601f168201915b5050505050908060020180546101eb90610fe7565b80601f016020809104026020016040519081016040528092919081815260200182805461021790610fe7565b80156102625780601f1061023957610100808354040283529160200191610262565b820191905f5260205f20905b81548152906001019060200180831161024557829003601f168201915b505050505090806003015490806004015f9054906101000a900460ff16905085565b61028c61097a565b60015f8381526020019081526020015f206004015f9054906101000a900460ff166102ec576040517f08c379a00000000000000000000000000000000000000000000000000000000081526004016102e390611061565b60405180910390fd5b60015f8381526020019081526020015f206040518060a00160405290815f820154815260200160018201805461032190610fe7565b80601f016020809104026020016040519081016040528092919081815260200182805461034d90610fe7565b80156103985780601f1061036f57610100808354040283529160200191610398565b820191905f5260205f20905b81548152906001019060200180831161037b57829003601f168201915b505050505081526020016002820180546103b190610fe7565b80601f01602080910402602001604051908101604052809291908181526020018280546103dd90610fe7565b80156104285780601f106103ff57610100808354040283529160200191610428565b820191905f5260205f20905b81548152906001019060200180831161040b57829003601f168201915b5050505050815260200160038201548152602001600482015f9054906101000a900460ff1615151515815250509050919050565b60015f8281526020019081526020015f206004015f9054906101000a900460ff166104bc576040517f08c379a00000000000000000000000000000000000000000000000000000000081526004016104b3906110c9565b60405180910390fd5b5f60015f8381526020019081526020015f206004015f6101000a81548160ff021916908315150217905550807f3a3c808f9542ee6603e1779307153ec62758039f734435deff7a297fe019ab0960405160405180910390a250565b428111610559576040517f08c379a000000000000000000000000000000000000000000000000000000000815260040161055090611131565b60405180910390fd5b5f6040518060a001604052805f5481526020018581526020018481526020018381526020016001151581525090508060015f805481526020019081526020015f205f820151815f015560208201518160010190816105b791906112ec565b5060408201518160020190816105cd91906112ec565b50606082015181600301556080820151816004015f6101000a81548160ff0219169083151502179055509050505f547f3867db6dad5ca2842afa16194e6a8137ec4230a448ba7bda8198dc3d486fc45a858460405161062d9291906113bb565b60405180910390a25f8081548092919061064690611416565b919050555050505050565b60015f8481526020019081526020015f206004015f9054906101000a900460ff166106b1576040517f08c379a00000000000000000000000000000000000000000000000000000000081526004016106a890611061565b60405180910390fd5b8160015f8581526020019081526020015f2060010190816106d291906112ec565b508060015f8581526020019081526020015f2060020190816106f491906112ec565b50827fe6fa50f83e8a1ba617c3dd9bb11671ebfc81645f1e3b3d9761bc51c2b746dae083604051610725919061145d565b60405180910390a2505050565b60605f60015f54610743919061147d565b67ffffffffffffffff81111561075c5761075b610c31565b5b60405190808252806020026020018201604052801561079557816020015b61078261097a565b81526020019060019003908161077a5790505b5090505f80600190505b5f548110156109715760015f8281526020019081526020015f206004015f9054906101000a900460ff16156109645760015f8281526020019081526020015f206040518060a00160405290815f820154815260200160018201805461080390610fe7565b80601f016020809104026020016040519081016040528092919081815260200182805461082f90610fe7565b801561087a5780601f106108515761010080835404028352916020019161087a565b820191905f5260205f20905b81548152906001019060200180831161085d57829003601f168201915b5050505050815260200160028201805461089390610fe7565b80601f01602080910402602001604051908101604052809291908181526020018280546108bf90610fe7565b801561090a5780601f106108e15761010080835404028352916020019161090a565b820191905f5260205f20905b8154815290600101906020018083116108ed57829003601f168201915b5050505050815260200160038201548152602001600482015f9054906101000a900460ff16151515158152505083838151811061094a576109496114b0565b5b6020026020010181905250818061096090611416565b9250505b808060010191505061079f565b50819250505090565b6040518060a001604052805f815260200160608152602001606081526020015f81526020015f151581525090565b5f604051905090565b5f80fd5b5f80fd5b5f819050919050565b6109cb816109b9565b81146109d5575f80fd5b50565b5f813590506109e6816109c2565b92915050565b5f60208284031215610a0157610a006109b1565b5b5f610a0e848285016109d8565b91505092915050565b610a20816109b9565b82525050565b5f81519050919050565b5f82825260208201905092915050565b5f5b83811015610a5d578082015181840152602081019050610a42565b5f8484015250505050565b5f601f19601f8301169050919050565b5f610a8282610a26565b610a8c8185610a30565b9350610a9c818560208601610a40565b610aa581610a68565b840191505092915050565b5f8115159050919050565b610ac481610ab0565b82525050565b5f60a082019050610add5f830188610a17565b8181036020830152610aef8187610a78565b90508181036040830152610b038186610a78565b9050610b126060830185610a17565b610b1f6080830184610abb565b9695505050505050565b610b32816109b9565b82525050565b5f82825260208201905092915050565b5f610b5282610a26565b610b5c8185610b38565b9350610b6c818560208601610a40565b610b7581610a68565b840191505092915050565b610b8981610ab0565b82525050565b5f60a083015f830151610ba45f860182610b29565b5060208301518482036020860152610bbc8282610b48565b91505060408301518482036040860152610bd68282610b48565b9150506060830151610beb6060860182610b29565b506080830151610bfe6080860182610b80565b508091505092915050565b5f6020820190508181035f830152610c218184610b8f565b905092915050565b5f80fd5b5f80fd5b7f4e487b71000000000000000000000000000000000000000000000000000000005f52604160045260245ffd5b610c6782610a68565b810181811067ffffffffffffffff82111715610c8657610c85610c31565b5b80604052505050565b5f610c986109a8565b9050610ca48282610c5e565b919050565b5f67ffffffffffffffff821115610cc357610cc2610c31565b5b610ccc82610a68565b9050602081019050919050565b828183375f83830152505050565b5f610cf9610cf484610ca9565b610c8f565b905082815260208101848484011115610d1557610d14610c2d565b5b610d20848285610cd9565b509392505050565b5f82601f830112610d3c57610d3b610c29565b5b8135610d4c848260208601610ce7565b91505092915050565b5f805f60608486031215610d6c57610d6b6109b1565b5b5f84013567ffffffffffffffff811115610d8957610d886109b5565b5b610d9586828701610d28565b935050602084013567ffffffffffffffff811115610db657610db56109b5565b5b610dc286828701610d28565b9250506040610dd3868287016109d8565b9150509250925092565b5f805f60608486031215610df457610df36109b1565b5b5f610e01868287016109d8565b935050602084013567ffffffffffffffff811115610e2257610e216109b5565b5b610e2e86828701610d28565b925050604084013567ffffffffffffffff811115610e4f57610e4e6109b5565b5b610e5b86828701610d28565b9150509250925092565b5f81519050919050565b5f82825260208201905092915050565b5f819050602082019050919050565b5f60a083015f830151610ea35f860182610b29565b5060208301518482036020860152610ebb8282610b48565b91505060408301518482036040860152610ed58282610b48565b9150506060830151610eea6060860182610b29565b506080830151610efd6080860182610b80565b508091505092915050565b5f610f138383610e8e565b905092915050565b5f602082019050919050565b5f610f3182610e65565b610f3b8185610e6f565b935083602082028501610f4d85610e7f565b805f5b85811015610f885784840389528151610f698582610f08565b9450610f7483610f1b565b925060208a01995050600181019050610f50565b50829750879550505050505092915050565b5f6020820190508181035f830152610fb28184610f27565b905092915050565b7f4e487b71000000000000000000000000000000000000000000000000000000005f52602260045260245ffd5b5f6002820490506001821680610ffe57607f821691505b60208210810361101157611010610fba565b5b50919050565b7f524650206973206e6f74206163746976650000000000000000000000000000005f82015250565b5f61104b601183610a30565b915061105682611017565b602082019050919050565b5f6020820190508181035f8301526110788161103f565b9050919050565b7f52465020697320616c726561647920696e6163746976650000000000000000005f82015250565b5f6110b3601783610a30565b91506110be8261107f565b602082019050919050565b5f6020820190508181035f8301526110e0816110a7565b9050919050565b7f446561646c696e652073686f756c6420626520696e20746865206675747572655f82015250565b5f61111b602083610a30565b9150611126826110e7565b602082019050919050565b5f6020820190508181035f8301526111488161110f565b9050919050565b5f819050815f5260205f209050919050565b5f6020601f8301049050919050565b5f82821b905092915050565b5f600883026111ab7fffffffffffffffffffffffffffffffffffffffffffffffffffffffffffffffff82611170565b6111b58683611170565b95508019841693508086168417925050509392505050565b5f819050919050565b5f6111f06111eb6111e6846109b9565b6111cd565b6109b9565b9050919050565b5f819050919050565b611209836111d6565b61121d611215826111f7565b84845461117c565b825550505050565b5f90565b611231611225565b61123c818484611200565b505050565b5b8181101561125f576112545f82611229565b600181019050611242565b5050565b601f8211156112a4576112758161114f565b61127e84611161565b8101602085101561128d578190505b6112a161129985611161565b830182611241565b50505b505050565b5f82821c905092915050565b5f6112c45f19846008026112a9565b1980831691505092915050565b5f6112dc83836112b5565b9150826002028217905092915050565b6112f582610a26565b67ffffffffffffffff81111561130e5761130d610c31565b5b6113188254610fe7565b611323828285611263565b5f60209050601f831160018114611354575f8415611342578287015190505b61134c85826112d1565b8655506113b3565b601f1984166113628661114f565b5f5b8281101561138957848901518255600182019150602085019450602081019050611364565b868310156113a657848901516113a2601f8916826112b5565b8355505b6001600288020188555050505b505050505050565b5f6040820190508181035f8301526113d38185610a78565b90506113e26020830184610a17565b9392505050565b7f4e487b71000000000000000000000000000000000000000000000000000000005f52601160045260245ffd5b5f611420826109b9565b91507fffffffffffffffffffffffffffffffffffffffffffffffffffffffffffffffff8203611452576114516113e9565b5b600182019050919050565b5f6020820190508181035f8301526114758184610a78565b905092915050565b5f611487826109b9565b9150611492836109b9565b92508282039050818111156114aa576114a96113e9565b5b92915050565b7f4e487b71000000000000000000000000000000000000000000000000000000005f52603260045260245ffdfea26469706673582212202e01938ef7b2256c60758d713621986c03beff29fb14e162303000687ff6b58164736f6c63430008160033",
			"opcodes": "PUSH1 0x80 PUSH1 0x40 MSTORE PUSH1 0x1 PUSH0 SSTORE CALLVALUE DUP1 ISZERO PUSH2 0x13 JUMPI PUSH0 DUP1 REVERT JUMPDEST POP PUSH2 0x1513 DUP1 PUSH2 0x21 PUSH0 CODECOPY PUSH0 RETURN INVALID PUSH1 0x80 PUSH1 0x40 MSTORE CALLVALUE DUP1 ISZERO PUSH2 0xF JUMPI PUSH0 DUP1 REVERT JUMPDEST POP PUSH1 0x4 CALLDATASIZE LT PUSH2 0x60 JUMPI PUSH0 CALLDATALOAD PUSH1 0xE0 SHR DUP1 PUSH4 0x923E95F EQ PUSH2 0x64 JUMPI DUP1 PUSH4 0x2F72AF34 EQ PUSH2 0x98 JUMPI DUP1 PUSH4 0x464FB1D6 EQ PUSH2 0xC8 JUMPI DUP1 PUSH4 0x67201887 EQ PUSH2 0xE4 JUMPI DUP1 PUSH4 0xC405E6BB EQ PUSH2 0x100 JUMPI DUP1 PUSH4 0xCD80204C EQ PUSH2 0x11C JUMPI JUMPDEST PUSH0 DUP1 REVERT JUMPDEST PUSH2 0x7E PUSH1 0x4 DUP1 CALLDATASIZE SUB DUP2 ADD SWAP1 PUSH2 0x79 SWAP2 SWAP1 PUSH2 0x9EC JUMP JUMPDEST PUSH2 0x13A JUMP JUMPDEST PUSH1 0x40 MLOAD PUSH2 0x8F SWAP6 SWAP5 SWAP4 SWAP3 SWAP2 SWAP1 PUSH2 0xACA JUMP JUMPDEST PUSH1 0x40 MLOAD DUP1 SWAP2 SUB SWAP1 RETURN JUMPDEST PUSH2 0xB2 PUSH1 0x4 DUP1 CALLDATASIZE SUB DUP2 ADD SWAP1 PUSH2 0xAD SWAP2 SWAP1 PUSH2 0x9EC JUMP JUMPDEST PUSH2 0x284 JUMP JUMPDEST PUSH1 0x40 MLOAD PUSH2 0xBF SWAP2 SWAP1 PUSH2 0xC09 JUMP JUMPDEST PUSH1 0x40 MLOAD DUP1 SWAP2 SUB SWAP1 RETURN JUMPDEST PUSH2 0xE2 PUSH1 0x4 DUP1 CALLDATASIZE SUB DUP2 ADD SWAP1 PUSH2 0xDD SWAP2 SWAP1 PUSH2 0x9EC JUMP JUMPDEST PUSH2 0x45C JUMP JUMPDEST STOP JUMPDEST PUSH2 0xFE PUSH1 0x4 DUP1 CALLDATASIZE SUB DUP2 ADD SWAP1 PUSH2 0xF9 SWAP2 SWAP1 PUSH2 0xD55 JUMP JUMPDEST PUSH2 0x517 JUMP JUMPDEST STOP JUMPDEST PUSH2 0x11A PUSH1 0x4 DUP1 CALLDATASIZE SUB DUP2 ADD SWAP1 PUSH2 0x115 SWAP2 SWAP1 PUSH2 0xDDD JUMP JUMPDEST PUSH2 0x651 JUMP JUMPDEST STOP JUMPDEST PUSH2 0x124 PUSH2 0x732 JUMP JUMPDEST PUSH1 0x40 MLOAD PUSH2 0x131 SWAP2 SWAP1 PUSH2 0xF9A JUMP JUMPDEST PUSH1 0x40 MLOAD DUP1 SWAP2 SUB SWAP1 RETURN JUMPDEST PUSH1 0x1 PUSH1 0x20 MSTORE DUP1 PUSH0 MSTORE PUSH1 0x40 PUSH0 KECCAK256 PUSH0 SWAP2 POP SWAP1 POP DUP1 PUSH0 ADD SLOAD SWAP1 DUP1 PUSH1 0x1 ADD DUP1 SLOAD PUSH2 0x15F SWAP1 PUSH2 0xFE7 JUMP JUMPDEST DUP1 PUSH1 0x1F ADD PUSH1 0x20 DUP1 SWAP2 DIV MUL PUSH1 0x20 ADD PUSH1 0x40 MLOAD SWAP1 DUP2 ADD PUSH1 0x40 MSTORE DUP1 SWAP3 SWAP2 SWAP1 DUP2 DUP2 MSTORE PUSH1 0x20 ADD DUP3 DUP1 SLOAD PUSH2 0x18B SWAP1 PUSH2 0xFE7 JUMP JUMPDEST DUP1 ISZERO PUSH2 0x1D6 JUMPI DUP1 PUSH1 0x1F LT PUSH2 0x1AD JUMPI PUSH2 0x100 DUP1 DUP4 SLOAD DIV MUL DUP4 MSTORE SWAP2 PUSH1 0x20 ADD SWAP2 PUSH2 0x1D6 JUMP JUMPDEST DUP3 ADD SWAP2 SWAP1 PUSH0 MSTORE PUSH1 0x20 PUSH0 KECCAK256 SWAP1 JUMPDEST DUP2 SLOAD DUP2 MSTORE SWAP1 PUSH1 0x1 ADD SWAP1 PUSH1 0x20 ADD DUP1 DUP4 GT PUSH2 0x1B9 JUMPI DUP3 SWAP1 SUB PUSH1 0x1F AND DUP3 ADD SWAP2 JUMPDEST POP POP POP POP POP SWAP1 DUP1 PUSH1 0x2 ADD DUP1 SLOAD PUSH2 0x1EB SWAP1 PUSH2 0xFE7 JUMP JUMPDEST DUP1 PUSH1 0x1F ADD PUSH1 0x20 DUP1 SWAP2 DIV MUL PUSH1 0x20 ADD PUSH1 0x40 MLOAD SWAP1 DUP2 ADD PUSH1 0x40 MSTORE DUP1 SWAP3 SWAP2 SWAP1 DUP2 DUP2 MSTORE PUSH1 0x20 ADD DUP3 DUP1 SLOAD PUSH2 0x217 SWAP1 PUSH2 0xFE7 JUMP JUMPDEST DUP1 ISZERO PUSH2 0x262 JUMPI DUP1 PUSH1 0x1F LT PUSH2 0x239 JUMPI PUSH2 0x100 DUP1 DUP4 SLOAD DIV MUL DUP4 MSTORE SWAP2 PUSH1 0x20 ADD SWAP2 PUSH2 0x262 JUMP JUMPDEST DUP3 ADD SWAP2 SWAP1 PUSH0 MSTORE PUSH1 0x20 PUSH0 KECCAK256 SWAP1 JUMPDEST DUP2 SLOAD DUP2 MSTORE SWAP1 PUSH1 0x1 ADD SWAP1 PUSH1 0x20 ADD DUP1 DUP4 GT PUSH2 0x245 JUMPI DUP3 SWAP1 SUB PUSH1 0x1F AND DUP3 ADD SWAP2 JUMPDEST POP POP POP POP POP SWAP1 DUP1 PUSH1 0x3 ADD SLOAD SWAP1 DUP1 PUSH1 0x4 ADD PUSH0 SWAP1 SLOAD SWAP1 PUSH2 0x100 EXP SWAP1 DIV PUSH1 0xFF AND SWAP1 POP DUP6 JUMP JUMPDEST PUSH2 0x28C PUSH2 0x97A JUMP JUMPDEST PUSH1 0x1 PUSH0 DUP4 DUP2 MSTORE PUSH1 0x20 ADD SWAP1 DUP2 MSTORE PUSH1 0x20 ADD PUSH0 KECCAK256 PUSH1 0x4 ADD PUSH0 SWAP1 SLOAD SWAP1 PUSH2 0x100 EXP SWAP1 DIV PUSH1 0xFF AND PUSH2 0x2EC JUMPI PUSH1 0x40 MLOAD PUSH32 0x8C379A000000000000000000000000000000000000000000000000000000000 DUP2 MSTORE PUSH1 0x4 ADD PUSH2 0x2E3 SWAP1 PUSH2 0x1061 JUMP JUMPDEST PUSH1 0x40 MLOAD DUP1 SWAP2 SUB SWAP1 REVERT JUMPDEST PUSH1 0x1 PUSH0 DUP4 DUP2 MSTORE PUSH1 0x20 ADD SWAP1 DUP2 MSTORE PUSH1 0x20 ADD PUSH0 KECCAK256 PUSH1 0x40 MLOAD DUP1 PUSH1 0xA0 ADD PUSH1 0x40 MSTORE SWAP1 DUP2 PUSH0 DUP3 ADD SLOAD DUP2 MSTORE PUSH1 0x20 ADD PUSH1 0x1 DUP3 ADD DUP1 SLOAD PUSH2 0x321 SWAP1 PUSH2 0xFE7 JUMP JUMPDEST DUP1 PUSH1 0x1F ADD PUSH1 0x20 DUP1 SWAP2 DIV MUL PUSH1 0x20 ADD PUSH1 0x40 MLOAD SWAP1 DUP2 ADD PUSH1 0x40 MSTORE DUP1 SWAP3 SWAP2 SWAP1 DUP2 DUP2 MSTORE PUSH1 0x20 ADD DUP3 DUP1 SLOAD PUSH2 0x34D SWAP1 PUSH2 0xFE7 JUMP JUMPDEST DUP1 ISZERO PUSH2 0x398 JUMPI DUP1 PUSH1 0x1F LT PUSH2 0x36F JUMPI PUSH2 0x100 DUP1 DUP4 SLOAD DIV MUL DUP4 MSTORE SWAP2 PUSH1 0x20 ADD SWAP2 PUSH2 0x398 JUMP JUMPDEST DUP3 ADD SWAP2 SWAP1 PUSH0 MSTORE PUSH1 0x20 PUSH0 KECCAK256 SWAP1 JUMPDEST DUP2 SLOAD DUP2 MSTORE SWAP1 PUSH1 0x1 ADD SWAP1 PUSH1 0x20 ADD DUP1 DUP4 GT PUSH2 0x37B JUMPI DUP3 SWAP1 SUB PUSH1 0x1F AND DUP3 ADD SWAP2 JUMPDEST POP POP POP POP POP DUP2 MSTORE PUSH1 0x20 ADD PUSH1 0x2 DUP3 ADD DUP1 SLOAD PUSH2 0x3B1 SWAP1 PUSH2 0xFE7 JUMP JUMPDEST DUP1 PUSH1 0x1F ADD PUSH1 0x20 DUP1 SWAP2 DIV MUL PUSH1 0x20 ADD PUSH1 0x40 MLOAD SWAP1 DUP2 ADD PUSH1 0x40 MSTORE DUP1 SWAP3 SWAP2 SWAP1 DUP2 DUP2 MSTORE PUSH1 0x20 ADD DUP3 DUP1 SLOAD PUSH2 0x3DD SWAP1 PUSH2 0xFE7 JUMP JUMPDEST DUP1 ISZERO PUSH2 0x428 JUMPI DUP1 PUSH1 0x1F LT PUSH2 0x3FF JUMPI PUSH2 0x100 DUP1 DUP4 SLOAD DIV MUL DUP4 MSTORE SWAP2 PUSH1 0x20 ADD SWAP2 PUSH2 0x428 JUMP JUMPDEST DUP3 ADD SWAP2 SWAP1 PUSH0 MSTORE PUSH1 0x20 PUSH0 KECCAK256 SWAP1 JUMPDEST DUP2 SLOAD DUP2 MSTORE SWAP1 PUSH1 0x1 ADD SWAP1 PUSH1 0x20 ADD DUP1 DUP4 GT PUSH2 0x40B JUMPI DUP3 SWAP1 SUB PUSH1 0x1F AND DUP3 ADD SWAP2 JUMPDEST POP POP POP POP POP DUP2 MSTORE PUSH1 0x20 ADD PUSH1 0x3 DUP3 ADD SLOAD DUP2 MSTORE PUSH1 0x20 ADD PUSH1 0x4 DUP3 ADD PUSH0 SWAP1 SLOAD SWAP1 PUSH2 0x100 EXP SWAP1 DIV PUSH1 0xFF AND ISZERO ISZERO ISZERO ISZERO DUP2 MSTORE POP POP SWAP1 POP SWAP2 SWAP1 POP JUMP JUMPDEST PUSH1 0x1 PUSH0 DUP3 DUP2 MSTORE PUSH1 0x20 ADD SWAP1 DUP2 MSTORE PUSH1 0x20 ADD PUSH0 KECCAK256 PUSH1 0x4 ADD PUSH0 SWAP1 SLOAD SWAP1 PUSH2 0x100 EXP SWAP1 DIV PUSH1 0xFF AND PUSH2 0x4BC JUMPI PUSH1 0x40 MLOAD PUSH32 0x8C379A000000000000000000000000000000000000000000000000000000000 DUP2 MSTORE PUSH1 0x4 ADD PUSH2 0x4B3 SWAP1 PUSH2 0x10C9 JUMP JUMPDEST PUSH1 0x40 MLOAD DUP1 SWAP2 SUB SWAP1 REVERT JUMPDEST PUSH0 PUSH1 0x1 PUSH0 DUP4 DUP2 MSTORE PUSH1 0x20 ADD SWAP1 DUP2 MSTORE PUSH1 0x20 ADD PUSH0 KECCAK256 PUSH1 0x4 ADD PUSH0 PUSH2 0x100 EXP DUP2 SLOAD DUP2 PUSH1 0xFF MUL NOT AND SWAP1 DUP4 ISZERO ISZERO MUL OR SWAP1 SSTORE POP DUP1 PUSH32 0x3A3C808F9542EE6603E1779307153EC62758039F734435DEFF7A297FE019AB09 PUSH1 0x40 MLOAD PUSH1 0x40 MLOAD DUP1 SWAP2 SUB SWAP1 LOG2 POP JUMP JUMPDEST TIMESTAMP DUP2 GT PUSH2 0x559 JUMPI PUSH1 0x40 MLOAD PUSH32 0x8C379A000000000000000000000000000000000000000000000000000000000 DUP2 MSTORE PUSH1 0x4 ADD PUSH2 0x550 SWAP1 PUSH2 0x1131 JUMP JUMPDEST PUSH1 0x40 MLOAD DUP1 SWAP2 SUB SWAP1 REVERT JUMPDEST PUSH0 PUSH1 0x40 MLOAD DUP1 PUSH1 0xA0 ADD PUSH1 0x40 MSTORE DUP1 PUSH0 SLOAD DUP2 MSTORE PUSH1 0x20 ADD DUP6 DUP2 MSTORE PUSH1 0x20 ADD DUP5 DUP2 MSTORE PUSH1 0x20 ADD DUP4 DUP2 MSTORE PUSH1 0x20 ADD PUSH1 0x1 ISZERO ISZERO DUP2 MSTORE POP SWAP1 POP DUP1 PUSH1 0x1 PUSH0 DUP1 SLOAD DUP2 MSTORE PUSH1 0x20 ADD SWAP1 DUP2 MSTORE PUSH1 0x20 ADD PUSH0 KECCAK256 PUSH0 DUP3 ADD MLOAD DUP2 PUSH0 ADD SSTORE PUSH1 0x20 DUP3 ADD MLOAD DUP2 PUSH1 0x1 ADD SWAP1 DUP2 PUSH2 0x5B7 SWAP2 SWAP1 PUSH2 0x12EC JUMP JUMPDEST POP PUSH1 0x40 DUP3 ADD MLOAD DUP2 PUSH1 0x2 ADD SWAP1 DUP2 PUSH2 0x5CD SWAP2 SWAP1 PUSH2 0x12EC JUMP JUMPDEST POP PUSH1 0x60 DUP3 ADD MLOAD DUP2 PUSH1 0x3 ADD SSTORE PUSH1 0x80 DUP3 ADD MLOAD DUP2 PUSH1 0x4 ADD PUSH0 PUSH2 0x100 EXP DUP2 SLOAD DUP2 PUSH1 0xFF MUL NOT AND SWAP1 DUP4 ISZERO ISZERO MUL OR SWAP1 SSTORE POP SWAP1 POP POP PUSH0 SLOAD PUSH32 0x3867DB6DAD5CA2842AFA16194E6A8137EC4230A448BA7BDA8198DC3D486FC45A DUP6 DUP5 PUSH1 0x40 MLOAD PUSH2 0x62D SWAP3 SWAP2 SWAP1 PUSH2 0x13BB JUMP JUMPDEST PUSH1 0x40 MLOAD DUP1 SWAP2 SUB SWAP1 LOG2 PUSH0 DUP1 DUP2 SLOAD DUP1 SWAP3 SWAP2 SWAP1 PUSH2 0x646 SWAP1 PUSH2 0x1416 JUMP JUMPDEST SWAP2 SWAP1 POP SSTORE POP POP POP POP POP JUMP JUMPDEST PUSH1 0x1 PUSH0 DUP5 DUP2 MSTORE PUSH1 0x20 ADD SWAP1 DUP2 MSTORE PUSH1 0x20 ADD PUSH0 KECCAK256 PUSH1 0x4 ADD PUSH0 SWAP1 SLOAD SWAP1 PUSH2 0x100 EXP SWAP1 DIV PUSH1 0xFF AND PUSH2 0x6B1 JUMPI PUSH1 0x40 MLOAD PUSH32 0x8C379A000000000000000000000000000000000000000000000000000000000 DUP2 MSTORE PUSH1 0x4 ADD PUSH2 0x6A8 SWAP1 PUSH2 0x1061 JUMP JUMPDEST PUSH1 0x40 MLOAD DUP1 SWAP2 SUB SWAP1 REVERT JUMPDEST DUP2 PUSH1 0x1 PUSH0 DUP6 DUP2 MSTORE PUSH1 0x20 ADD SWAP1 DUP2 MSTORE PUSH1 0x20 ADD PUSH0 KECCAK256 PUSH1 0x1 ADD SWAP1 DUP2 PUSH2 0x6D2 SWAP2 SWAP1 PUSH2 0x12EC JUMP JUMPDEST POP DUP1 PUSH1 0x1 PUSH0 DUP6 DUP2 MSTORE PUSH1 0x20 ADD SWAP1 DUP2 MSTORE PUSH1 0x20 ADD PUSH0 KECCAK256 PUSH1 0x2 ADD SWAP1 DUP2 PUSH2 0x6F4 SWAP2 SWAP1 PUSH2 0x12EC JUMP JUMPDEST POP DUP3 PUSH32 0xE6FA50F83E8A1BA617C3DD9BB11671EBFC81645F1E3B3D9761BC51C2B746DAE0 DUP4 PUSH1 0x40 MLOAD PUSH2 0x725 SWAP2 SWAP1 PUSH2 0x145D JUMP JUMPDEST PUSH1 0x40 MLOAD DUP1 SWAP2 SUB SWAP1 LOG2 POP POP POP JUMP JUMPDEST PUSH1 0x60 PUSH0 PUSH1 0x1 PUSH0 SLOAD PUSH2 0x743 SWAP2 SWAP1 PUSH2 0x147D JUMP JUMPDEST PUSH8 0xFFFFFFFFFFFFFFFF DUP2 GT ISZERO PUSH2 0x75C JUMPI PUSH2 0x75B PUSH2 0xC31 JUMP JUMPDEST JUMPDEST PUSH1 0x40 MLOAD SWAP1 DUP1 DUP3 MSTORE DUP1 PUSH1 0x20 MUL PUSH1 0x20 ADD DUP3 ADD PUSH1 0x40 MSTORE DUP1 ISZERO PUSH2 0x795 JUMPI DUP2 PUSH1 0x20 ADD JUMPDEST PUSH2 0x782 PUSH2 0x97A JUMP JUMPDEST DUP2 MSTORE PUSH1 0x20 ADD SWAP1 PUSH1 0x1 SWAP1 SUB SWAP1 DUP2 PUSH2 0x77A JUMPI SWAP1 POP JUMPDEST POP SWAP1 POP PUSH0 DUP1 PUSH1 0x1 SWAP1 POP JUMPDEST PUSH0 SLOAD DUP2 LT ISZERO PUSH2 0x971 JUMPI PUSH1 0x1 PUSH0 DUP3 DUP2 MSTORE PUSH1 0x20 ADD SWAP1 DUP2 MSTORE PUSH1 0x20 ADD PUSH0 KECCAK256 PUSH1 0x4 ADD PUSH0 SWAP1 SLOAD SWAP1 PUSH2 0x100 EXP SWAP1 DIV PUSH1 0xFF AND ISZERO PUSH2 0x964 JUMPI PUSH1 0x1 PUSH0 DUP3 DUP2 MSTORE PUSH1 0x20 ADD SWAP1 DUP2 MSTORE PUSH1 0x20 ADD PUSH0 KECCAK256 PUSH1 0x40 MLOAD DUP1 PUSH1 0xA0 ADD PUSH1 0x40 MSTORE SWAP1 DUP2 PUSH0 DUP3 ADD SLOAD DUP2 MSTORE PUSH1 0x20 ADD PUSH1 0x1 DUP3 ADD DUP1 SLOAD PUSH2 0x803 SWAP1 PUSH2 0xFE7 JUMP JUMPDEST DUP1 PUSH1 0x1F ADD PUSH1 0x20 DUP1 SWAP2 DIV MUL PUSH1 0x20 ADD PUSH1 0x40 MLOAD SWAP1 DUP2 ADD PUSH1 0x40 MSTORE DUP1 SWAP3 SWAP2 SWAP1 DUP2 DUP2 MSTORE PUSH1 0x20 ADD DUP3 DUP1 SLOAD PUSH2 0x82F SWAP1 PUSH2 0xFE7 JUMP JUMPDEST DUP1 ISZERO PUSH2 0x87A JUMPI DUP1 PUSH1 0x1F LT PUSH2 0x851 JUMPI PUSH2 0x100 DUP1 DUP4 SLOAD DIV MUL DUP4 MSTORE SWAP2 PUSH1 0x20 ADD SWAP2 PUSH2 0x87A JUMP JUMPDEST DUP3 ADD SWAP2 SWAP1 PUSH0 MSTORE PUSH1 0x20 PUSH0 KECCAK256 SWAP1 JUMPDEST DUP2 SLOAD DUP2 MSTORE SWAP1 PUSH1 0x1 ADD SWAP1 PUSH1 0x20 ADD DUP1 DUP4 GT PUSH2 0x85D JUMPI DUP3 SWAP1 SUB PUSH1 0x1F AND DUP3 ADD SWAP2 JUMPDEST POP POP POP POP POP DUP2 MSTORE PUSH1 0x20 ADD PUSH1 0x2 DUP3 ADD DUP1 SLOAD PUSH2 0x893 SWAP1 PUSH2 0xFE7 JUMP JUMPDEST DUP1 PUSH1 0x1F ADD PUSH1 0x20 DUP1 SWAP2 DIV MUL PUSH1 0x20 ADD PUSH1 0x40 MLOAD SWAP1 DUP2 ADD PUSH1 0x40 MSTORE DUP1 SWAP3 SWAP2 SWAP1 DUP2 DUP2 MSTORE PUSH1 0x20 ADD DUP3 DUP1 SLOAD PUSH2 0x8BF SWAP1 PUSH2 0xFE7 JUMP JUMPDEST DUP1 ISZERO PUSH2 0x90A JUMPI DUP1 PUSH1 0x1F LT PUSH2 0x8E1 JUMPI PUSH2 0x100 DUP1 DUP4 SLOAD DIV MUL DUP4 MSTORE SWAP2 PUSH1 0x20 ADD SWAP2 PUSH2 0x90A JUMP JUMPDEST DUP3 ADD SWAP2 SWAP1 PUSH0 MSTORE PUSH1 0x20 PUSH0 KECCAK256 SWAP1 JUMPDEST DUP2 SLOAD DUP2 MSTORE SWAP1 PUSH1 0x1 ADD SWAP1 PUSH1 0x20 ADD DUP1 DUP4 GT PUSH2 0x8ED JUMPI DUP3 SWAP1 SUB PUSH1 0x1F AND DUP3 ADD SWAP2 JUMPDEST POP POP POP POP POP DUP2 MSTORE PUSH1 0x20 ADD PUSH1 0x3 DUP3 ADD SLOAD DUP2 MSTORE PUSH1 0x20 ADD PUSH1 0x4 DUP3 ADD PUSH0 SWAP1 SLOAD SWAP1 PUSH2 0x100 EXP SWAP1 DIV PUSH1 0xFF AND ISZERO ISZERO ISZERO ISZERO DUP2 MSTORE POP POP DUP4 DUP4 DUP2 MLOAD DUP2 LT PUSH2 0x94A JUMPI PUSH2 0x949 PUSH2 0x14B0 JUMP JUMPDEST JUMPDEST PUSH1 0x20 MUL PUSH1 0x20 ADD ADD DUP2 SWAP1 MSTORE POP DUP2 DUP1 PUSH2 0x960 SWAP1 PUSH2 0x1416 JUMP JUMPDEST SWAP3 POP POP JUMPDEST DUP1 DUP1 PUSH1 0x1 ADD SWAP2 POP POP PUSH2 0x79F JUMP JUMPDEST POP DUP2 SWAP3 POP POP POP SWAP1 JUMP JUMPDEST PUSH1 0x40 MLOAD DUP1 PUSH1 0xA0 ADD PUSH1 0x40 MSTORE DUP1 PUSH0 DUP2 MSTORE PUSH1 0x20 ADD PUSH1 0x60 DUP2 MSTORE PUSH1 0x20 ADD PUSH1 0x60 DUP2 MSTORE PUSH1 0x20 ADD PUSH0 DUP2 MSTORE PUSH1 0x20 ADD PUSH0 ISZERO ISZERO DUP2 MSTORE POP SWAP1 JUMP JUMPDEST PUSH0 PUSH1 0x40 MLOAD SWAP1 POP SWAP1 JUMP JUMPDEST PUSH0 DUP1 REVERT JUMPDEST PUSH0 DUP1 REVERT JUMPDEST PUSH0 DUP2 SWAP1 POP SWAP2 SWAP1 POP JUMP JUMPDEST PUSH2 0x9CB DUP2 PUSH2 0x9B9 JUMP JUMPDEST DUP2 EQ PUSH2 0x9D5 JUMPI PUSH0 DUP1 REVERT JUMPDEST POP JUMP JUMPDEST PUSH0 DUP2 CALLDATALOAD SWAP1 POP PUSH2 0x9E6 DUP2 PUSH2 0x9C2 JUMP JUMPDEST SWAP3 SWAP2 POP POP JUMP JUMPDEST PUSH0 PUSH1 0x20 DUP3 DUP5 SUB SLT ISZERO PUSH2 0xA01 JUMPI PUSH2 0xA00 PUSH2 0x9B1 JUMP JUMPDEST JUMPDEST PUSH0 PUSH2 0xA0E DUP5 DUP3 DUP6 ADD PUSH2 0x9D8 JUMP JUMPDEST SWAP2 POP POP SWAP3 SWAP2 POP POP JUMP JUMPDEST PUSH2 0xA20 DUP2 PUSH2 0x9B9 JUMP JUMPDEST DUP3 MSTORE POP POP JUMP JUMPDEST PUSH0 DUP2 MLOAD SWAP1 POP SWAP2 SWAP1 POP JUMP JUMPDEST PUSH0 DUP3 DUP3 MSTORE PUSH1 0x20 DUP3 ADD SWAP1 POP SWAP3 SWAP2 POP POP JUMP JUMPDEST PUSH0 JUMPDEST DUP4 DUP2 LT ISZERO PUSH2 0xA5D JUMPI DUP1 DUP3 ADD MLOAD DUP2 DUP5 ADD MSTORE PUSH1 0x20 DUP2 ADD SWAP1 POP PUSH2 0xA42 JUMP JUMPDEST PUSH0 DUP5 DUP5 ADD MSTORE POP POP POP POP JUMP JUMPDEST PUSH0 PUSH1 0x1F NOT PUSH1 0x1F DUP4 ADD AND SWAP1 POP SWAP2 SWAP1 POP JUMP JUMPDEST PUSH0 PUSH2 0xA82 DUP3 PUSH2 0xA26 JUMP JUMPDEST PUSH2 0xA8C DUP2 DUP6 PUSH2 0xA30 JUMP JUMPDEST SWAP4 POP PUSH2 0xA9C DUP2 DUP6 PUSH1 0x20 DUP7 ADD PUSH2 0xA40 JUMP JUMPDEST PUSH2 0xAA5 DUP2 PUSH2 0xA68 JUMP JUMPDEST DUP5 ADD SWAP2 POP POP SWAP3 SWAP2 POP POP JUMP JUMPDEST PUSH0 DUP2 ISZERO ISZERO SWAP1 POP SWAP2 SWAP1 POP JUMP JUMPDEST PUSH2 0xAC4 DUP2 PUSH2 0xAB0 JUMP JUMPDEST DUP3 MSTORE POP POP JUMP JUMPDEST PUSH0 PUSH1 0xA0 DUP3 ADD SWAP1 POP PUSH2 0xADD PUSH0 DUP4 ADD DUP9 PUSH2 0xA17 JUMP JUMPDEST DUP2 DUP2 SUB PUSH1 0x20 DUP4 ADD MSTORE PUSH2 0xAEF DUP2 DUP8 PUSH2 0xA78 JUMP JUMPDEST SWAP1 POP DUP2 DUP2 SUB PUSH1 0x40 DUP4 ADD MSTORE PUSH2 0xB03 DUP2 DUP7 PUSH2 0xA78 JUMP JUMPDEST SWAP1 POP PUSH2 0xB12 PUSH1 0x60 DUP4 ADD DUP6 PUSH2 0xA17 JUMP JUMPDEST PUSH2 0xB1F PUSH1 0x80 DUP4 ADD DUP5 PUSH2 0xABB JUMP JUMPDEST SWAP7 SWAP6 POP POP POP POP POP POP JUMP JUMPDEST PUSH2 0xB32 DUP2 PUSH2 0x9B9 JUMP JUMPDEST DUP3 MSTORE POP POP JUMP JUMPDEST PUSH0 DUP3 DUP3 MSTORE PUSH1 0x20 DUP3 ADD SWAP1 POP SWAP3 SWAP2 POP POP JUMP JUMPDEST PUSH0 PUSH2 0xB52 DUP3 PUSH2 0xA26 JUMP JUMPDEST PUSH2 0xB5C DUP2 DUP6 PUSH2 0xB38 JUMP JUMPDEST SWAP4 POP PUSH2 0xB6C DUP2 DUP6 PUSH1 0x20 DUP7 ADD PUSH2 0xA40 JUMP JUMPDEST PUSH2 0xB75 DUP2 PUSH2 0xA68 JUMP JUMPDEST DUP5 ADD SWAP2 POP POP SWAP3 SWAP2 POP POP JUMP JUMPDEST PUSH2 0xB89 DUP2 PUSH2 0xAB0 JUMP JUMPDEST DUP3 MSTORE POP POP JUMP JUMPDEST PUSH0 PUSH1 0xA0 DUP4 ADD PUSH0 DUP4 ADD MLOAD PUSH2 0xBA4 PUSH0 DUP7 ADD DUP3 PUSH2 0xB29 JUMP JUMPDEST POP PUSH1 0x20 DUP4 ADD MLOAD DUP5 DUP3 SUB PUSH1 0x20 DUP7 ADD MSTORE PUSH2 0xBBC DUP3 DUP3 PUSH2 0xB48 JUMP JUMPDEST SWAP2 POP POP PUSH1 0x40 DUP4 ADD MLOAD DUP5 DUP3 SUB PUSH1 0x40 DUP7 ADD MSTORE PUSH2 0xBD6 DUP3 DUP3 PUSH2 0xB48 JUMP JUMPDEST SWAP2 POP POP PUSH1 0x60 DUP4 ADD MLOAD PUSH2 0xBEB PUSH1 0x60 DUP7 ADD DUP3 PUSH2 0xB29 JUMP JUMPDEST POP PUSH1 0x80 DUP4 ADD MLOAD PUSH2 0xBFE PUSH1 0x80 DUP7 ADD DUP3 PUSH2 0xB80 JUMP JUMPDEST POP DUP1 SWAP2 POP POP SWAP3 SWAP2 POP POP JUMP JUMPDEST PUSH0 PUSH1 0x20 DUP3 ADD SWAP1 POP DUP2 DUP2 SUB PUSH0 DUP4 ADD MSTORE PUSH2 0xC21 DUP2 DUP5 PUSH2 0xB8F JUMP JUMPDEST SWAP1 POP SWAP3 SWAP2 POP POP JUMP JUMPDEST PUSH0 DUP1 REVERT JUMPDEST PUSH0 DUP1 REVERT JUMPDEST PUSH32 0x4E487B7100000000000000000000000000000000000000000000000000000000 PUSH0 MSTORE PUSH1 0x41 PUSH1 0x4 MSTORE PUSH1 0x24 PUSH0 REVERT JUMPDEST PUSH2 0xC67 DUP3 PUSH2 0xA68 JUMP JUMPDEST DUP2 ADD DUP2 DUP2 LT PUSH8 0xFFFFFFFFFFFFFFFF DUP3 GT OR ISZERO PUSH2 0xC86 JUMPI PUSH2 0xC85 PUSH2 0xC31 JUMP JUMPDEST JUMPDEST DUP1 PUSH1 0x40 MSTORE POP POP POP JUMP JUMPDEST PUSH0 PUSH2 0xC98 PUSH2 0x9A8 JUMP JUMPDEST SWAP1 POP PUSH2 0xCA4 DUP3 DUP3 PUSH2 0xC5E JUMP JUMPDEST SWAP2 SWAP1 POP JUMP JUMPDEST PUSH0 PUSH8 0xFFFFFFFFFFFFFFFF DUP3 GT ISZERO PUSH2 0xCC3 JUMPI PUSH2 0xCC2 PUSH2 0xC31 JUMP JUMPDEST JUMPDEST PUSH2 0xCCC DUP3 PUSH2 0xA68 JUMP JUMPDEST SWAP1 POP PUSH1 0x20 DUP2 ADD SWAP1 POP SWAP2 SWAP1 POP JUMP JUMPDEST DUP3 DUP2 DUP4 CALLDATACOPY PUSH0 DUP4 DUP4 ADD MSTORE POP POP POP JUMP JUMPDEST PUSH0 PUSH2 0xCF9 PUSH2 0xCF4 DUP5 PUSH2 0xCA9 JUMP JUMPDEST PUSH2 0xC8F JUMP JUMPDEST SWAP1 POP DUP3 DUP2 MSTORE PUSH1 0x20 DUP2 ADD DUP5 DUP5 DUP5 ADD GT ISZERO PUSH2 0xD15 JUMPI PUSH2 0xD14 PUSH2 0xC2D JUMP JUMPDEST JUMPDEST PUSH2 0xD20 DUP5 DUP3 DUP6 PUSH2 0xCD9 JUMP JUMPDEST POP SWAP4 SWAP3 POP POP POP JUMP JUMPDEST PUSH0 DUP3 PUSH1 0x1F DUP4 ADD SLT PUSH2 0xD3C JUMPI PUSH2 0xD3B PUSH2 0xC29 JUMP JUMPDEST JUMPDEST DUP2 CALLDATALOAD PUSH2 0xD4C DUP5 DUP3 PUSH1 0x20 DUP7 ADD PUSH2 0xCE7 JUMP JUMPDEST SWAP2 POP POP SWAP3 SWAP2 POP POP JUMP JUMPDEST PUSH0 DUP1 PUSH0 PUSH1 0x60 DUP5 DUP7 SUB SLT ISZERO PUSH2 0xD6C JUMPI PUSH2 0xD6B PUSH2 0x9B1 JUMP JUMPDEST JUMPDEST PUSH0 DUP5 ADD CALLDATALOAD PUSH8 0xFFFFFFFFFFFFFFFF DUP2 GT ISZERO PUSH2 0xD89 JUMPI PUSH2 0xD88 PUSH2 0x9B5 JUMP JUMPDEST JUMPDEST PUSH2 0xD95 DUP7 DUP3 DUP8 ADD PUSH2 0xD28 JUMP JUMPDEST SWAP4 POP POP PUSH1 0x20 DUP5 ADD CALLDATALOAD PUSH8 0xFFFFFFFFFFFFFFFF DUP2 GT ISZERO PUSH2 0xDB6 JUMPI PUSH2 0xDB5 PUSH2 0x9B5 JUMP JUMPDEST JUMPDEST PUSH2 0xDC2 DUP7 DUP3 DUP8 ADD PUSH2 0xD28 JUMP JUMPDEST SWAP3 POP POP PUSH1 0x40 PUSH2 0xDD3 DUP7 DUP3 DUP8 ADD PUSH2 0x9D8 JUMP JUMPDEST SWAP2 POP POP SWAP3 POP SWAP3 POP SWAP3 JUMP JUMPDEST PUSH0 DUP1 PUSH0 PUSH1 0x60 DUP5 DUP7 SUB SLT ISZERO PUSH2 0xDF4 JUMPI PUSH2 0xDF3 PUSH2 0x9B1 JUMP JUMPDEST JUMPDEST PUSH0 PUSH2 0xE01 DUP7 DUP3 DUP8 ADD PUSH2 0x9D8 JUMP JUMPDEST SWAP4 POP POP PUSH1 0x20 DUP5 ADD CALLDATALOAD PUSH8 0xFFFFFFFFFFFFFFFF DUP2 GT ISZERO PUSH2 0xE22 JUMPI PUSH2 0xE21 PUSH2 0x9B5 JUMP JUMPDEST JUMPDEST PUSH2 0xE2E DUP7 DUP3 DUP8 ADD PUSH2 0xD28 JUMP JUMPDEST SWAP3 POP POP PUSH1 0x40 DUP5 ADD CALLDATALOAD PUSH8 0xFFFFFFFFFFFFFFFF DUP2 GT ISZERO PUSH2 0xE4F JUMPI PUSH2 0xE4E PUSH2 0x9B5 JUMP JUMPDEST JUMPDEST PUSH2 0xE5B DUP7 DUP3 DUP8 ADD PUSH2 0xD28 JUMP JUMPDEST SWAP2 POP POP SWAP3 POP SWAP3 POP SWAP3 JUMP JUMPDEST PUSH0 DUP2 MLOAD SWAP1 POP SWAP2 SWAP1 POP JUMP JUMPDEST PUSH0 DUP3 DUP3 MSTORE PUSH1 0x20 DUP3 ADD SWAP1 POP SWAP3 SWAP2 POP POP JUMP JUMPDEST PUSH0 DUP2 SWAP1 POP PUSH1 0x20 DUP3 ADD SWAP1 POP SWAP2 SWAP1 POP JUMP JUMPDEST PUSH0 PUSH1 0xA0 DUP4 ADD PUSH0 DUP4 ADD MLOAD PUSH2 0xEA3 PUSH0 DUP7 ADD DUP3 PUSH2 0xB29 JUMP JUMPDEST POP PUSH1 0x20 DUP4 ADD MLOAD DUP5 DUP3 SUB PUSH1 0x20 DUP7 ADD MSTORE PUSH2 0xEBB DUP3 DUP3 PUSH2 0xB48 JUMP JUMPDEST SWAP2 POP POP PUSH1 0x40 DUP4 ADD MLOAD DUP5 DUP3 SUB PUSH1 0x40 DUP7 ADD MSTORE PUSH2 0xED5 DUP3 DUP3 PUSH2 0xB48 JUMP JUMPDEST SWAP2 POP POP PUSH1 0x60 DUP4 ADD MLOAD PUSH2 0xEEA PUSH1 0x60 DUP7 ADD DUP3 PUSH2 0xB29 JUMP JUMPDEST POP PUSH1 0x80 DUP4 ADD MLOAD PUSH2 0xEFD PUSH1 0x80 DUP7 ADD DUP3 PUSH2 0xB80 JUMP JUMPDEST POP DUP1 SWAP2 POP POP SWAP3 SWAP2 POP POP JUMP JUMPDEST PUSH0 PUSH2 0xF13 DUP4 DUP4 PUSH2 0xE8E JUMP JUMPDEST SWAP1 POP SWAP3 SWAP2 POP POP JUMP JUMPDEST PUSH0 PUSH1 0x20 DUP3 ADD SWAP1 POP SWAP2 SWAP1 POP JUMP JUMPDEST PUSH0 PUSH2 0xF31 DUP3 PUSH2 0xE65 JUMP JUMPDEST PUSH2 0xF3B DUP2 DUP6 PUSH2 0xE6F JUMP JUMPDEST SWAP4 POP DUP4 PUSH1 0x20 DUP3 MUL DUP6 ADD PUSH2 0xF4D DUP6 PUSH2 0xE7F JUMP JUMPDEST DUP1 PUSH0 JUMPDEST DUP6 DUP2 LT ISZERO PUSH2 0xF88 JUMPI DUP5 DUP5 SUB DUP10 MSTORE DUP2 MLOAD PUSH2 0xF69 DUP6 DUP3 PUSH2 0xF08 JUMP JUMPDEST SWAP5 POP PUSH2 0xF74 DUP4 PUSH2 0xF1B JUMP JUMPDEST SWAP3 POP PUSH1 0x20 DUP11 ADD SWAP10 POP POP PUSH1 0x1 DUP2 ADD SWAP1 POP PUSH2 0xF50 JUMP JUMPDEST POP DUP3 SWAP8 POP DUP8 SWAP6 POP POP POP POP POP POP SWAP3 SWAP2 POP POP JUMP JUMPDEST PUSH0 PUSH1 0x20 DUP3 ADD SWAP1 POP DUP2 DUP2 SUB PUSH0 DUP4 ADD MSTORE PUSH2 0xFB2 DUP2 DUP5 PUSH2 0xF27 JUMP JUMPDEST SWAP1 POP SWAP3 SWAP2 POP POP JUMP JUMPDEST PUSH32 0x4E487B7100000000000000000000000000000000000000000000000000000000 PUSH0 MSTORE PUSH1 0x22 PUSH1 0x4 MSTORE PUSH1 0x24 PUSH0 REVERT JUMPDEST PUSH0 PUSH1 0x2 DUP3 DIV SWAP1 POP PUSH1 0x1 DUP3 AND DUP1 PUSH2 0xFFE JUMPI PUSH1 0x7F DUP3 AND SWAP2 POP JUMPDEST PUSH1 0x20 DUP3 LT DUP2 SUB PUSH2 0x1011 JUMPI PUSH2 0x1010 PUSH2 0xFBA JUMP JUMPDEST JUMPDEST POP SWAP2 SWAP1 POP JUMP JUMPDEST PUSH32 0x524650206973206E6F7420616374697665000000000000000000000000000000 PUSH0 DUP3 ADD MSTORE POP JUMP JUMPDEST PUSH0 PUSH2 0x104B PUSH1 0x11 DUP4 PUSH2 0xA30 JUMP JUMPDEST SWAP2 POP PUSH2 0x1056 DUP3 PUSH2 0x1017 JUMP JUMPDEST PUSH1 0x20 DUP3 ADD SWAP1 POP SWAP2 SWAP1 POP JUMP JUMPDEST PUSH0 PUSH1 0x20 DUP3 ADD SWAP1 POP DUP2 DUP2 SUB PUSH0 DUP4 ADD MSTORE PUSH2 0x1078 DUP2 PUSH2 0x103F JUMP JUMPDEST SWAP1 POP SWAP2 SWAP1 POP JUMP JUMPDEST PUSH32 0x52465020697320616C726561647920696E616374697665000000000000000000 PUSH0 DUP3 ADD MSTORE POP JUMP JUMPDEST PUSH0 PUSH2 0x10B3 PUSH1 0x17 DUP4 PUSH2 0xA30 JUMP JUMPDEST SWAP2 POP PUSH2 0x10BE DUP3 PUSH2 0x107F JUMP JUMPDEST PUSH1 0x20 DUP3 ADD SWAP1 POP SWAP2 SWAP1 POP JUMP JUMPDEST PUSH0 PUSH1 0x20 DUP3 ADD SWAP1 POP DUP2 DUP2 SUB PUSH0 DUP4 ADD MSTORE PUSH2 0x10E0 DUP2 PUSH2 0x10A7 JUMP JUMPDEST SWAP1 POP SWAP2 SWAP1 POP JUMP JUMPDEST PUSH32 0x446561646C696E652073686F756C6420626520696E2074686520667574757265 PUSH0 DUP3 ADD MSTORE POP JUMP JUMPDEST PUSH0 PUSH2 0x111B PUSH1 0x20 DUP4 PUSH2 0xA30 JUMP JUMPDEST SWAP2 POP PUSH2 0x1126 DUP3 PUSH2 0x10E7 JUMP JUMPDEST PUSH1 0x20 DUP3 ADD SWAP1 POP SWAP2 SWAP1 POP JUMP JUMPDEST PUSH0 PUSH1 0x20 DUP3 ADD SWAP1 POP DUP2 DUP2 SUB PUSH0 DUP4 ADD MSTORE PUSH2 0x1148 DUP2 PUSH2 0x110F JUMP JUMPDEST SWAP1 POP SWAP2 SWAP1 POP JUMP JUMPDEST PUSH0 DUP2 SWAP1 POP DUP2 PUSH0 MSTORE PUSH1 0x20 PUSH0 KECCAK256 SWAP1 POP SWAP2 SWAP1 POP JUMP JUMPDEST PUSH0 PUSH1 0x20 PUSH1 0x1F DUP4 ADD DIV SWAP1 POP SWAP2 SWAP1 POP JUMP JUMPDEST PUSH0 DUP3 DUP3 SHL SWAP1 POP SWAP3 SWAP2 POP POP JUMP JUMPDEST PUSH0 PUSH1 0x8 DUP4 MUL PUSH2 0x11AB PUSH32 0xFFFFFFFFFFFFFFFFFFFFFFFFFFFFFFFFFFFFFFFFFFFFFFFFFFFFFFFFFFFFFFFF DUP3 PUSH2 0x1170 JUMP JUMPDEST PUSH2 0x11B5 DUP7 DUP4 PUSH2 0x1170 JUMP JUMPDEST SWAP6 POP DUP1 NOT DUP5 AND SWAP4 POP DUP1 DUP7 AND DUP5 OR SWAP3 POP POP POP SWAP4 SWAP3 POP POP POP JUMP JUMPDEST PUSH0 DUP2 SWAP1 POP SWAP2 SWAP1 POP JUMP JUMPDEST PUSH0 PUSH2 0x11F0 PUSH2 0x11EB PUSH2 0x11E6 DUP5 PUSH2 0x9B9 JUMP JUMPDEST PUSH2 0x11CD JUMP JUMPDEST PUSH2 0x9B9 JUMP JUMPDEST SWAP1 POP SWAP2 SWAP1 POP JUMP JUMPDEST PUSH0 DUP2 SWAP1 POP SWAP2 SWAP1 POP JUMP JUMPDEST PUSH2 0x1209 DUP4 PUSH2 0x11D6 JUMP JUMPDEST PUSH2 0x121D PUSH2 0x1215 DUP3 PUSH2 0x11F7 JUMP JUMPDEST DUP5 DUP5 SLOAD PUSH2 0x117C JUMP JUMPDEST DUP3 SSTORE POP POP POP POP JUMP JUMPDEST PUSH0 SWAP1 JUMP JUMPDEST PUSH2 0x1231 PUSH2 0x1225 JUMP JUMPDEST PUSH2 0x123C DUP2 DUP5 DUP5 PUSH2 0x1200 JUMP JUMPDEST POP POP POP JUMP JUMPDEST JUMPDEST DUP2 DUP2 LT ISZERO PUSH2 0x125F JUMPI PUSH2 0x1254 PUSH0 DUP3 PUSH2 0x1229 JUMP JUMPDEST PUSH1 0x1 DUP2 ADD SWAP1 POP PUSH2 0x1242 JUMP JUMPDEST POP POP JUMP JUMPDEST PUSH1 0x1F DUP3 GT ISZERO PUSH2 0x12A4 JUMPI PUSH2 0x1275 DUP2 PUSH2 0x114F JUMP JUMPDEST PUSH2 0x127E DUP5 PUSH2 0x1161 JUMP JUMPDEST DUP2 ADD PUSH1 0x20 DUP6 LT ISZERO PUSH2 0x128D JUMPI DUP2 SWAP1 POP JUMPDEST PUSH2 0x12A1 PUSH2 0x1299 DUP6 PUSH2 0x1161 JUMP JUMPDEST DUP4 ADD DUP3 PUSH2 0x1241 JUMP JUMPDEST POP POP JUMPDEST POP POP POP JUMP JUMPDEST PUSH0 DUP3 DUP3 SHR SWAP1 POP SWAP3 SWAP2 POP POP JUMP JUMPDEST PUSH0 PUSH2 0x12C4 PUSH0 NOT DUP5 PUSH1 0x8 MUL PUSH2 0x12A9 JUMP JUMPDEST NOT DUP1 DUP4 AND SWAP2 POP POP SWAP3 SWAP2 POP POP JUMP JUMPDEST PUSH0 PUSH2 0x12DC DUP4 DUP4 PUSH2 0x12B5 JUMP JUMPDEST SWAP2 POP DUP3 PUSH1 0x2 MUL DUP3 OR SWAP1 POP SWAP3 SWAP2 POP POP JUMP JUMPDEST PUSH2 0x12F5 DUP3 PUSH2 0xA26 JUMP JUMPDEST PUSH8 0xFFFFFFFFFFFFFFFF DUP2 GT ISZERO PUSH2 0x130E JUMPI PUSH2 0x130D PUSH2 0xC31 JUMP JUMPDEST JUMPDEST PUSH2 0x1318 DUP3 SLOAD PUSH2 0xFE7 JUMP JUMPDEST PUSH2 0x1323 DUP3 DUP3 DUP6 PUSH2 0x1263 JUMP JUMPDEST PUSH0 PUSH1 0x20 SWAP1 POP PUSH1 0x1F DUP4 GT PUSH1 0x1 DUP2 EQ PUSH2 0x1354 JUMPI PUSH0 DUP5 ISZERO PUSH2 0x1342 JUMPI DUP3 DUP8 ADD MLOAD SWAP1 POP JUMPDEST PUSH2 0x134C DUP6 DUP3 PUSH2 0x12D1 JUMP JUMPDEST DUP7 SSTORE POP PUSH2 0x13B3 JUMP JUMPDEST PUSH1 0x1F NOT DUP5 AND PUSH2 0x1362 DUP7 PUSH2 0x114F JUMP JUMPDEST PUSH0 JUMPDEST DUP3 DUP2 LT ISZERO PUSH2 0x1389 JUMPI DUP5 DUP10 ADD MLOAD DUP3 SSTORE PUSH1 0x1 DUP3 ADD SWAP2 POP PUSH1 0x20 DUP6 ADD SWAP5 POP PUSH1 0x20 DUP2 ADD SWAP1 POP PUSH2 0x1364 JUMP JUMPDEST DUP7 DUP4 LT ISZERO PUSH2 0x13A6 JUMPI DUP5 DUP10 ADD MLOAD PUSH2 0x13A2 PUSH1 0x1F DUP10 AND DUP3 PUSH2 0x12B5 JUMP JUMPDEST DUP4 SSTORE POP JUMPDEST PUSH1 0x1 PUSH1 0x2 DUP9 MUL ADD DUP9 SSTORE POP POP POP JUMPDEST POP POP POP POP POP POP JUMP JUMPDEST PUSH0 PUSH1 0x40 DUP3 ADD SWAP1 POP DUP2 DUP2 SUB PUSH0 DUP4 ADD MSTORE PUSH2 0x13D3 DUP2 DUP6 PUSH2 0xA78 JUMP JUMPDEST SWAP1 POP PUSH2 0x13E2 PUSH1 0x20 DUP4 ADD DUP5 PUSH2 0xA17 JUMP JUMPDEST SWAP4 SWAP3 POP POP POP JUMP JUMPDEST PUSH32 0x4E487B7100000000000000000000000000000000000000000000000000000000 PUSH0 MSTORE PUSH1 0x11 PUSH1 0x4 MSTORE PUSH1 0x24 PUSH0 REVERT JUMPDEST PUSH0 PUSH2 0x1420 DUP3 PUSH2 0x9B9 JUMP JUMPDEST SWAP2 POP PUSH32 0xFFFFFFFFFFFFFFFFFFFFFFFFFFFFFFFFFFFFFFFFFFFFFFFFFFFFFFFFFFFFFFFF DUP3 SUB PUSH2 0x1452 JUMPI PUSH2 0x1451 PUSH2 0x13E9 JUMP JUMPDEST JUMPDEST PUSH1 0x1 DUP3 ADD SWAP1 POP SWAP2 SWAP1 POP JUMP JUMPDEST PUSH0 PUSH1 0x20 DUP3 ADD SWAP1 POP DUP2 DUP2 SUB PUSH0 DUP4 ADD MSTORE PUSH2 0x1475 DUP2 DUP5 PUSH2 0xA78 JUMP JUMPDEST SWAP1 POP SWAP3 SWAP2 POP POP JUMP JUMPDEST PUSH0 PUSH2 0x1487 DUP3 PUSH2 0x9B9 JUMP JUMPDEST SWAP2 POP PUSH2 0x1492 DUP4 PUSH2 0x9B9 JUMP JUMPDEST SWAP3 POP DUP3 DUP3 SUB SWAP1 POP DUP2 DUP2 GT ISZERO PUSH2 0x14AA JUMPI PUSH2 0x14A9 PUSH2 0x13E9 JUMP JUMPDEST JUMPDEST SWAP3 SWAP2 POP POP JUMP JUMPDEST PUSH32 0x4E487B7100000000000000000000000000000000000000000000000000000000 PUSH0 MSTORE PUSH1 0x32 PUSH1 0x4 MSTORE PUSH1 0x24 PUSH0 REVERT INVALID LOG2 PUSH5 0x6970667358 0x22 SLT KECCAK256 0x2E ADD SWAP4 DUP15 0xF7 0xB2 0x25 PUSH13 0x60758D713621986C03BEFF29FB EQ 0xE1 PUSH3 0x303000 PUSH9 0x7FF6B58164736F6C63 NUMBER STOP ADDMOD AND STOP CALLER "
		},
		"gasEstimates": {
			"creation": {
				"codeDepositCost": "1079000",
				"executionCost": "23223",
				"totalCost": "1102223"
			},
			"external": {
				"deactivateRFP(uint256)": "28159",
				"getRFP(uint256)": "infinite",
				"issueRFP(string,string,uint256)": "infinite",
				"listRFPs()": "infinite",
				"rfps(uint256)": "infinite",
				"updateRFP(uint256,string,string)": "infinite"
			}
		},
		"methodIdentifiers": {
			"deactivateRFP(uint256)": "464fb1d6",
			"getRFP(uint256)": "2f72af34",
			"issueRFP(string,string,uint256)": "67201887",
			"listRFPs()": "cd80204c",
			"rfps(uint256)": "0923e95f",
			"updateRFP(uint256,string,string)": "c405e6bb"
		}
	},
	"abi": [
		{
			"anonymous": false,
			"inputs": [
				{
					"indexed": true,
					"internalType": "uint256",
					"name": "rfpId",
					"type": "uint256"
				},
				{
					"indexed": false,
					"internalType": "string",
					"name": "title",
					"type": "string"
				},
				{
					"indexed": false,
					"internalType": "uint256",
					"name": "deadline",
					"type": "uint256"
				}
			],
			"name": "RFPCreated",
			"type": "event"
		},
		{
			"anonymous": false,
			"inputs": [
				{
					"indexed": true,
					"internalType": "uint256",
					"name": "rfpId",
					"type": "uint256"
				}
			],
			"name": "RFPDeactivated",
			"type": "event"
		},
		{
			"anonymous": false,
			"inputs": [
				{
					"indexed": true,
					"internalType": "uint256",
					"name": "rfpId",
					"type": "uint256"
				},
				{
					"indexed": false,
					"internalType": "string",
					"name": "title",
					"type": "string"
				}
			],
			"name": "RFPUpdated",
			"type": "event"
		},
		{
			"inputs": [
				{
					"internalType": "uint256",
					"name": "_rfpId",
					"type": "uint256"
				}
			],
			"name": "deactivateRFP",
			"outputs": [],
			"stateMutability": "nonpayable",
			"type": "function"
		},
		{
			"inputs": [
				{
					"internalType": "uint256",
					"name": "_rfpId",
					"type": "uint256"
				}
			],
			"name": "getRFP",
			"outputs": [
				{
					"components": [
						{
							"internalType": "uint256",
							"name": "id",
							"type": "uint256"
						},
						{
							"internalType": "string",
							"name": "title",
							"type": "string"
						},
						{
							"internalType": "string",
							"name": "description",
							"type": "string"
						},
						{
							"internalType": "uint256",
							"name": "deadline",
							"type": "uint256"
						},
						{
							"internalType": "bool",
							"name": "isActive",
							"type": "bool"
						}
					],
					"internalType": "struct RFPIssuance.RFP",
					"name": "",
					"type": "tuple"
				}
			],
			"stateMutability": "view",
			"type": "function"
		},
		{
			"inputs": [
				{
					"internalType": "string",
					"name": "_title",
					"type": "string"
				},
				{
					"internalType": "string",
					"name": "_description",
					"type": "string"
				},
				{
					"internalType": "uint256",
					"name": "_deadline",
					"type": "uint256"
				}
			],
			"name": "issueRFP",
			"outputs": [],
			"stateMutability": "nonpayable",
			"type": "function"
		},
		{
			"inputs": [],
			"name": "listRFPs",
			"outputs": [
				{
					"components": [
						{
							"internalType": "uint256",
							"name": "id",
							"type": "uint256"
						},
						{
							"internalType": "string",
							"name": "title",
							"type": "string"
						},
						{
							"internalType": "string",
							"name": "description",
							"type": "string"
						},
						{
							"internalType": "uint256",
							"name": "deadline",
							"type": "uint256"
						},
						{
							"internalType": "bool",
							"name": "isActive",
							"type": "bool"
						}
					],
					"internalType": "struct RFPIssuance.RFP[]",
					"name": "",
					"type": "tuple[]"
				}
			],
			"stateMutability": "view",
			"type": "function"
		},
		{
			"inputs": [
				{
					"internalType": "uint256",
					"name": "",
					"type": "uint256"
				}
			],
			"name": "rfps",
			"outputs": [
				{
					"internalType": "uint256",
					"name": "id",
					"type": "uint256"
				},
				{
					"internalType": "string",
					"name": "title",
					"type": "string"
				},
				{
					"internalType": "string",
					"name": "description",
					"type": "string"
				},
				{
					"internalType": "uint256",
					"name": "deadline",
					"type": "uint256"
				},
				{
					"internalType": "bool",
					"name": "isActive",
					"type": "bool"
				}
			],
			"stateMutability": "view",
			"type": "function"
		},
		{
			"inputs": [
				{
					"internalType": "uint256",
					"name": "_rfpId",
					"type": "uint256"
				},
				{
					"internalType": "string",
					"name": "_title",
					"type": "string"
				},
				{
					"internalType": "string",
					"name": "_description",
					"type": "string"
				}
			],
			"name": "updateRFP",
			"outputs": [],
			"stateMutability": "nonpayable",
			"type": "function"
		}
	]
}